{
	"AulaRecife/3modulo/VerificadorSimples.sol": {
		"VerificadorSimples": {
			"abi": [
				{
					"inputs": [],
					"name": "contador",
					"outputs": [
						{
							"internalType": "uint256",
							"name": "",
							"type": "uint256"
						}
					],
					"stateMutability": "view",
					"type": "function"
				},
				{
					"inputs": [
						{
							"internalType": "uint256",
							"name": "valor",
							"type": "uint256"
						}
					],
					"name": "decrementar",
					"outputs": [],
					"stateMutability": "nonpayable",
					"type": "function"
				},
				{
					"inputs": [
						{
							"internalType": "uint256",
							"name": "valor",
							"type": "uint256"
						}
					],
					"name": "incrementar",
					"outputs": [],
					"stateMutability": "nonpayable",
					"type": "function"
				},
				{
					"inputs": [],
					"name": "verificadorInvariavel",
					"outputs": [
						{
							"internalType": "bool",
							"name": "",
							"type": "bool"
						}
					],
					"stateMutability": "view",
					"type": "function"
				}
			],
			"devdoc": {
				"kind": "dev",
				"methods": {},
				"version": 1
			},
			"evm": {
				"assembly": "    /* \"AulaRecife/3modulo/VerificadorSimples.sol\":60:731  contract VerificadorSimples {... */\n  mstore(0x40, 0x80)\n  callvalue\n  dup1\n  iszero\n  tag_1\n  jumpi\n  revert(0x00, 0x00)\ntag_1:\n  pop\n  dataSize(sub_0)\n  dup1\n  dataOffset(sub_0)\n  0x00\n  codecopy\n  0x00\n  return\nstop\n\nsub_0: assembly {\n        /* \"AulaRecife/3modulo/VerificadorSimples.sol\":60:731  contract VerificadorSimples {... */\n      mstore(0x40, 0x80)\n      callvalue\n      dup1\n      iszero\n      tag_1\n      jumpi\n      revert(0x00, 0x00)\n    tag_1:\n      pop\n      jumpi(tag_2, lt(calldatasize, 0x04))\n      shr(0xe0, calldataload(0x00))\n      dup1\n      0x53d27cc2\n      eq\n      tag_3\n      jumpi\n      dup1\n      0xad85acf1\n      eq\n      tag_4\n      jumpi\n      dup1\n      0xb9e30ac6\n      eq\n      tag_5\n      jumpi\n      dup1\n      0xbd1c152e\n      eq\n      tag_6\n      jumpi\n    tag_2:\n      revert(0x00, 0x00)\n        /* \"AulaRecife/3modulo/VerificadorSimples.sol\":95:115  uint public contador */\n    tag_3:\n      tag_7\n      tag_8\n      jump\t// in\n    tag_7:\n      mload(0x40)\n      tag_9\n      swap2\n      swap1\n      tag_10\n      jump\t// in\n    tag_9:\n      mload(0x40)\n      dup1\n      swap2\n      sub\n      swap1\n      return\n        /* \"AulaRecife/3modulo/VerificadorSimples.sol\":550:728  function verificadorInvariavel() public view returns (bool) {... */\n    tag_4:\n      tag_11\n      tag_12\n      jump\t// in\n    tag_11:\n      mload(0x40)\n      tag_13\n      swap2\n      swap1\n      tag_14\n      jump\t// in\n    tag_13:\n      mload(0x40)\n      dup1\n      swap2\n      sub\n      swap1\n      return\n        /* \"AulaRecife/3modulo/VerificadorSimples.sol\":158:296  function incrementar(uint valor) public {... */\n    tag_5:\n      tag_15\n      0x04\n      dup1\n      calldatasize\n      sub\n      dup2\n      add\n      swap1\n      tag_16\n      swap2\n      swap1\n      tag_17\n      jump\t// in\n    tag_16:\n      tag_18\n      jump\t// in\n    tag_15:\n      stop\n        /* \"AulaRecife/3modulo/VerificadorSimples.sol\":337:511  function decrementar(uint valor) public {... */\n    tag_6:\n      tag_19\n      0x04\n      dup1\n      calldatasize\n      sub\n      dup2\n      add\n      swap1\n      tag_20\n      swap2\n      swap1\n      tag_17\n      jump\t// in\n    tag_20:\n      tag_21\n      jump\t// in\n    tag_19:\n      stop\n        /* \"AulaRecife/3modulo/VerificadorSimples.sol\":95:115  uint public contador */\n    tag_8:\n      sload(0x00)\n      dup2\n      jump\t// out\n        /* \"AulaRecife/3modulo/VerificadorSimples.sol\":550:728  function verificadorInvariavel() public view returns (bool) {... */\n    tag_12:\n        /* \"AulaRecife/3modulo/VerificadorSimples.sol\":604:608  bool */\n      0x00\n        /* \"AulaRecife/3modulo/VerificadorSimples.sol\":640:641  0 */\n      0x00\n        /* \"AulaRecife/3modulo/VerificadorSimples.sol\":628:636  contador */\n      sload(0x00)\n        /* \"AulaRecife/3modulo/VerificadorSimples.sol\":628:641  contador >= 0 */\n      lt\n      iszero\n        /* \"AulaRecife/3modulo/VerificadorSimples.sol\":621:642  assert(contador >= 0) */\n      tag_23\n      jumpi\n      tag_24\n      tag_25\n      jump\t// in\n    tag_24:\n    tag_23:\n        /* \"AulaRecife/3modulo/VerificadorSimples.sol\":716:720  true */\n      0x01\n        /* \"AulaRecife/3modulo/VerificadorSimples.sol\":709:720  return true */\n      swap1\n      pop\n        /* \"AulaRecife/3modulo/VerificadorSimples.sol\":550:728  function verificadorInvariavel() public view returns (bool) {... */\n      swap1\n      jump\t// out\n        /* \"AulaRecife/3modulo/VerificadorSimples.sol\":158:296  function incrementar(uint valor) public {... */\n    tag_18:\n        /* \"AulaRecife/3modulo/VerificadorSimples.sol\":225:226  0 */\n      0x00\n        /* \"AulaRecife/3modulo/VerificadorSimples.sol\":217:222  valor */\n      dup2\n        /* \"AulaRecife/3modulo/VerificadorSimples.sol\":217:226  valor > 0 */\n      gt\n        /* \"AulaRecife/3modulo/VerificadorSimples.sol\":209:260  require(valor > 0, \"Valor deve ser maior que zero\") */\n      tag_27\n      jumpi\n      mload(0x40)\n      0x08c379a000000000000000000000000000000000000000000000000000000000\n      dup2\n      mstore\n      0x04\n      add\n      tag_28\n      swap1\n      tag_29\n      jump\t// in\n    tag_28:\n      mload(0x40)\n      dup1\n      swap2\n      sub\n      swap1\n      revert\n    tag_27:\n        /* \"AulaRecife/3modulo/VerificadorSimples.sol\":283:288  valor */\n      dup1\n        /* \"AulaRecife/3modulo/VerificadorSimples.sol\":271:279  contador */\n      0x00\n      0x00\n        /* \"AulaRecife/3modulo/VerificadorSimples.sol\":271:288  contador += valor */\n      dup3\n      dup3\n      sload\n      tag_30\n      swap2\n      swap1\n      tag_31\n      jump\t// in\n    tag_30:\n      swap3\n      pop\n      pop\n      dup2\n      swap1\n      sstore\n      pop\n        /* \"AulaRecife/3modulo/VerificadorSimples.sol\":158:296  function incrementar(uint valor) public {... */\n      pop\n      jump\t// out\n        /* \"AulaRecife/3modulo/VerificadorSimples.sol\":337:511  function decrementar(uint valor) public {... */\n    tag_21:\n        /* \"AulaRecife/3modulo/VerificadorSimples.sol\":400:408  contador */\n      sload(0x00)\n        /* \"AulaRecife/3modulo/VerificadorSimples.sol\":392:397  valor */\n      dup2\n        /* \"AulaRecife/3modulo/VerificadorSimples.sol\":392:408  valor > contador */\n      gt\n        /* \"AulaRecife/3modulo/VerificadorSimples.sol\":388:476  if (valor > contador) {... */\n      iszero\n      tag_33\n      jumpi\n        /* \"AulaRecife/3modulo/VerificadorSimples.sol\":425:464  revert(\"Valor excede o contador atual\") */\n      mload(0x40)\n      0x08c379a000000000000000000000000000000000000000000000000000000000\n      dup2\n      mstore\n      0x04\n      add\n      tag_34\n      swap1\n      tag_35\n      jump\t// in\n    tag_34:\n      mload(0x40)\n      dup1\n      swap2\n      sub\n      swap1\n      revert\n        /* \"AulaRecife/3modulo/VerificadorSimples.sol\":388:476  if (valor > contador) {... */\n    tag_33:\n        /* \"AulaRecife/3modulo/VerificadorSimples.sol\":498:503  valor */\n      dup1\n        /* \"AulaRecife/3modulo/VerificadorSimples.sol\":486:494  contador */\n      0x00\n      0x00\n        /* \"AulaRecife/3modulo/VerificadorSimples.sol\":486:503  contador -= valor */\n      dup3\n      dup3\n      sload\n      tag_36\n      swap2\n      swap1\n      tag_37\n      jump\t// in\n    tag_36:\n      swap3\n      pop\n      pop\n      dup2\n      swap1\n      sstore\n      pop\n        /* \"AulaRecife/3modulo/VerificadorSimples.sol\":337:511  function decrementar(uint valor) public {... */\n      pop\n      jump\t// out\n        /* \"#utility.yul\":7:84   */\n    tag_38:\n        /* \"#utility.yul\":44:51   */\n      0x00\n        /* \"#utility.yul\":73:78   */\n      dup2\n        /* \"#utility.yul\":62:78   */\n      swap1\n      pop\n        /* \"#utility.yul\":7:84   */\n      swap2\n      swap1\n      pop\n      jump\t// out\n        /* \"#utility.yul\":90:208   */\n    tag_39:\n        /* \"#utility.yul\":177:201   */\n      tag_56\n        /* \"#utility.yul\":195:200   */\n      dup2\n        /* \"#utility.yul\":177:201   */\n      tag_38\n      jump\t// in\n    tag_56:\n        /* \"#utility.yul\":172:175   */\n      dup3\n        /* \"#utility.yul\":165:202   */\n      mstore\n        /* \"#utility.yul\":90:208   */\n      pop\n      pop\n      jump\t// out\n        /* \"#utility.yul\":214:436   */\n    tag_10:\n        /* \"#utility.yul\":307:311   */\n      0x00\n        /* \"#utility.yul\":345:347   */\n      0x20\n        /* \"#utility.yul\":334:343   */\n      dup3\n        /* \"#utility.yul\":330:348   */\n      add\n        /* \"#utility.yul\":322:348   */\n      swap1\n      pop\n        /* \"#utility.yul\":358:429   */\n      tag_58\n        /* \"#utility.yul\":426:427   */\n      0x00\n        /* \"#utility.yul\":415:424   */\n      dup4\n        /* \"#utility.yul\":411:428   */\n      add\n        /* \"#utility.yul\":402:408   */\n      dup5\n        /* \"#utility.yul\":358:429   */\n      tag_39\n      jump\t// in\n    tag_58:\n        /* \"#utility.yul\":214:436   */\n      swap3\n      swap2\n      pop\n      pop\n      jump\t// out\n        /* \"#utility.yul\":442:532   */\n    tag_40:\n        /* \"#utility.yul\":476:483   */\n      0x00\n        /* \"#utility.yul\":519:524   */\n      dup2\n        /* \"#utility.yul\":512:525   */\n      iszero\n        /* \"#utility.yul\":505:526   */\n      iszero\n        /* \"#utility.yul\":494:526   */\n      swap1\n      pop\n        /* \"#utility.yul\":442:532   */\n      swap2\n      swap1\n      pop\n      jump\t// out\n        /* \"#utility.yul\":538:647   */\n    tag_41:\n        /* \"#utility.yul\":619:640   */\n      tag_61\n        /* \"#utility.yul\":634:639   */\n      dup2\n        /* \"#utility.yul\":619:640   */\n      tag_40\n      jump\t// in\n    tag_61:\n        /* \"#utility.yul\":614:617   */\n      dup3\n        /* \"#utility.yul\":607:641   */\n      mstore\n        /* \"#utility.yul\":538:647   */\n      pop\n      pop\n      jump\t// out\n        /* \"#utility.yul\":653:863   */\n    tag_14:\n        /* \"#utility.yul\":740:744   */\n      0x00\n        /* \"#utility.yul\":778:780   */\n      0x20\n        /* \"#utility.yul\":767:776   */\n      dup3\n        /* \"#utility.yul\":763:781   */\n      add\n        /* \"#utility.yul\":755:781   */\n      swap1\n      pop\n        /* \"#utility.yul\":791:856   */\n      tag_63\n        /* \"#utility.yul\":853:854   */\n      0x00\n        /* \"#utility.yul\":842:851   */\n      dup4\n        /* \"#utility.yul\":838:855   */\n      add\n        /* \"#utility.yul\":829:835   */\n      dup5\n        /* \"#utility.yul\":791:856   */\n      tag_41\n      jump\t// in\n    tag_63:\n        /* \"#utility.yul\":653:863   */\n      swap3\n      swap2\n      pop\n      pop\n      jump\t// out\n        /* \"#utility.yul\":950:1067   */\n    tag_43:\n        /* \"#utility.yul\":1059:1060   */\n      0x00\n        /* \"#utility.yul\":1056:1057   */\n      0x00\n        /* \"#utility.yul\":1049:1061   */\n      revert\n        /* \"#utility.yul\":1196:1318   */\n    tag_45:\n        /* \"#utility.yul\":1269:1293   */\n      tag_68\n        /* \"#utility.yul\":1287:1292   */\n      dup2\n        /* \"#utility.yul\":1269:1293   */\n      tag_38\n      jump\t// in\n    tag_68:\n        /* \"#utility.yul\":1262:1267   */\n      dup2\n        /* \"#utility.yul\":1259:1294   */\n      eq\n        /* \"#utility.yul\":1249:1312   */\n      tag_69\n      jumpi\n        /* \"#utility.yul\":1308:1309   */\n      0x00\n        /* \"#utility.yul\":1305:1306   */\n      0x00\n        /* \"#utility.yul\":1298:1310   */\n      revert\n        /* \"#utility.yul\":1249:1312   */\n    tag_69:\n        /* \"#utility.yul\":1196:1318   */\n      pop\n      jump\t// out\n        /* \"#utility.yul\":1324:1463   */\n    tag_46:\n        /* \"#utility.yul\":1370:1375   */\n      0x00\n        /* \"#utility.yul\":1408:1414   */\n      dup2\n        /* \"#utility.yul\":1395:1415   */\n      calldataload\n        /* \"#utility.yul\":1386:1415   */\n      swap1\n      pop\n        /* \"#utility.yul\":1424:1457   */\n      tag_71\n        /* \"#utility.yul\":1451:1456   */\n      dup2\n        /* \"#utility.yul\":1424:1457   */\n      tag_45\n      jump\t// in\n    tag_71:\n        /* \"#utility.yul\":1324:1463   */\n      swap3\n      swap2\n      pop\n      pop\n      jump\t// out\n        /* \"#utility.yul\":1469:1798   */\n    tag_17:\n        /* \"#utility.yul\":1528:1534   */\n      0x00\n        /* \"#utility.yul\":1577:1579   */\n      0x20\n        /* \"#utility.yul\":1565:1574   */\n      dup3\n        /* \"#utility.yul\":1556:1563   */\n      dup5\n        /* \"#utility.yul\":1552:1575   */\n      sub\n        /* \"#utility.yul\":1548:1580   */\n      slt\n        /* \"#utility.yul\":1545:1664   */\n      iszero\n      tag_73\n      jumpi\n        /* \"#utility.yul\":1583:1662   */\n      tag_74\n      tag_43\n      jump\t// in\n    tag_74:\n        /* \"#utility.yul\":1545:1664   */\n    tag_73:\n        /* \"#utility.yul\":1703:1704   */\n      0x00\n        /* \"#utility.yul\":1728:1781   */\n      tag_75\n        /* \"#utility.yul\":1773:1780   */\n      dup5\n        /* \"#utility.yul\":1764:1770   */\n      dup3\n        /* \"#utility.yul\":1753:1762   */\n      dup6\n        /* \"#utility.yul\":1749:1771   */\n      add\n        /* \"#utility.yul\":1728:1781   */\n      tag_46\n      jump\t// in\n    tag_75:\n        /* \"#utility.yul\":1718:1781   */\n      swap2\n      pop\n        /* \"#utility.yul\":1674:1791   */\n      pop\n        /* \"#utility.yul\":1469:1798   */\n      swap3\n      swap2\n      pop\n      pop\n      jump\t// out\n        /* \"#utility.yul\":1804:1984   */\n    tag_25:\n        /* \"#utility.yul\":1852:1929   */\n      0x4e487b7100000000000000000000000000000000000000000000000000000000\n        /* \"#utility.yul\":1849:1850   */\n      0x00\n        /* \"#utility.yul\":1842:1930   */\n      mstore\n        /* \"#utility.yul\":1949:1953   */\n      0x01\n        /* \"#utility.yul\":1946:1947   */\n      0x04\n        /* \"#utility.yul\":1939:1954   */\n      mstore\n        /* \"#utility.yul\":1973:1977   */\n      0x24\n        /* \"#utility.yul\":1970:1971   */\n      0x00\n        /* \"#utility.yul\":1963:1978   */\n      revert\n        /* \"#utility.yul\":1990:2159   */\n    tag_47:\n        /* \"#utility.yul\":2074:2085   */\n      0x00\n        /* \"#utility.yul\":2108:2114   */\n      dup3\n        /* \"#utility.yul\":2103:2106   */\n      dup3\n        /* \"#utility.yul\":2096:2115   */\n      mstore\n        /* \"#utility.yul\":2148:2152   */\n      0x20\n        /* \"#utility.yul\":2143:2146   */\n      dup3\n        /* \"#utility.yul\":2139:2153   */\n      add\n        /* \"#utility.yul\":2124:2153   */\n      swap1\n      pop\n        /* \"#utility.yul\":1990:2159   */\n      swap3\n      swap2\n      pop\n      pop\n      jump\t// out\n        /* \"#utility.yul\":2165:2344   */\n    tag_48:\n        /* \"#utility.yul\":2305:2336   */\n      0x56616c6f72206465766520736572206d61696f7220717565207a65726f000000\n        /* \"#utility.yul\":2301:2302   */\n      0x00\n        /* \"#utility.yul\":2293:2299   */\n      dup3\n        /* \"#utility.yul\":2289:2303   */\n      add\n        /* \"#utility.yul\":2282:2337   */\n      mstore\n        /* \"#utility.yul\":2165:2344   */\n      pop\n      jump\t// out\n        /* \"#utility.yul\":2350:2716   */\n    tag_49:\n        /* \"#utility.yul\":2492:2495   */\n      0x00\n        /* \"#utility.yul\":2513:2580   */\n      tag_80\n        /* \"#utility.yul\":2577:2579   */\n      0x1d\n        /* \"#utility.yul\":2572:2575   */\n      dup4\n        /* \"#utility.yul\":2513:2580   */\n      tag_47\n      jump\t// in\n    tag_80:\n        /* \"#utility.yul\":2506:2580   */\n      swap2\n      pop\n        /* \"#utility.yul\":2589:2682   */\n      tag_81\n        /* \"#utility.yul\":2678:2681   */\n      dup3\n        /* \"#utility.yul\":2589:2682   */\n      tag_48\n      jump\t// in\n    tag_81:\n        /* \"#utility.yul\":2707:2709   */\n      0x20\n        /* \"#utility.yul\":2702:2705   */\n      dup3\n        /* \"#utility.yul\":2698:2710   */\n      add\n        /* \"#utility.yul\":2691:2710   */\n      swap1\n      pop\n        /* \"#utility.yul\":2350:2716   */\n      swap2\n      swap1\n      pop\n      jump\t// out\n        /* \"#utility.yul\":2722:3141   */\n    tag_29:\n        /* \"#utility.yul\":2888:2892   */\n      0x00\n        /* \"#utility.yul\":2926:2928   */\n      0x20\n        /* \"#utility.yul\":2915:2924   */\n      dup3\n        /* \"#utility.yul\":2911:2929   */\n      add\n        /* \"#utility.yul\":2903:2929   */\n      swap1\n      pop\n        /* \"#utility.yul\":2975:2984   */\n      dup2\n        /* \"#utility.yul\":2969:2973   */\n      dup2\n        /* \"#utility.yul\":2965:2985   */\n      sub\n        /* \"#utility.yul\":2961:2962   */\n      0x00\n        /* \"#utility.yul\":2950:2959   */\n      dup4\n        /* \"#utility.yul\":2946:2963   */\n      add\n        /* \"#utility.yul\":2939:2986   */\n      mstore\n        /* \"#utility.yul\":3003:3134   */\n      tag_83\n        /* \"#utility.yul\":3129:3133   */\n      dup2\n        /* \"#utility.yul\":3003:3134   */\n      tag_49\n      jump\t// in\n    tag_83:\n        /* \"#utility.yul\":2995:3134   */\n      swap1\n      pop\n        /* \"#utility.yul\":2722:3141   */\n      swap2\n      swap1\n      pop\n      jump\t// out\n        /* \"#utility.yul\":3147:3327   */\n    tag_50:\n        /* \"#utility.yul\":3195:3272   */\n      0x4e487b7100000000000000000000000000000000000000000000000000000000\n        /* \"#utility.yul\":3192:3193   */\n      0x00\n        /* \"#utility.yul\":3185:3273   */\n      mstore\n        /* \"#utility.yul\":3292:3296   */\n      0x11\n        /* \"#utility.yul\":3289:3290   */\n      0x04\n        /* \"#utility.yul\":3282:3297   */\n      mstore\n        /* \"#utility.yul\":3316:3320   */\n      0x24\n        /* \"#utility.yul\":3313:3314   */\n      0x00\n        /* \"#utility.yul\":3306:3321   */\n      revert\n        /* \"#utility.yul\":3333:3524   */\n    tag_31:\n        /* \"#utility.yul\":3373:3376   */\n      0x00\n        /* \"#utility.yul\":3392:3412   */\n      tag_86\n        /* \"#utility.yul\":3410:3411   */\n      dup3\n        /* \"#utility.yul\":3392:3412   */\n      tag_38\n      jump\t// in\n    tag_86:\n        /* \"#utility.yul\":3387:3412   */\n      swap2\n      pop\n        /* \"#utility.yul\":3426:3446   */\n      tag_87\n        /* \"#utility.yul\":3444:3445   */\n      dup4\n        /* \"#utility.yul\":3426:3446   */\n      tag_38\n      jump\t// in\n    tag_87:\n        /* \"#utility.yul\":3421:3446   */\n      swap3\n      pop\n        /* \"#utility.yul\":3469:3470   */\n      dup3\n        /* \"#utility.yul\":3466:3467   */\n      dup3\n        /* \"#utility.yul\":3462:3471   */\n      add\n        /* \"#utility.yul\":3455:3471   */\n      swap1\n      pop\n        /* \"#utility.yul\":3490:3493   */\n      dup1\n        /* \"#utility.yul\":3487:3488   */\n      dup3\n        /* \"#utility.yul\":3484:3494   */\n      gt\n        /* \"#utility.yul\":3481:3517   */\n      iszero\n      tag_88\n      jumpi\n        /* \"#utility.yul\":3497:3515   */\n      tag_89\n      tag_50\n      jump\t// in\n    tag_89:\n        /* \"#utility.yul\":3481:3517   */\n    tag_88:\n        /* \"#utility.yul\":3333:3524   */\n      swap3\n      swap2\n      pop\n      pop\n      jump\t// out\n        /* \"#utility.yul\":3530:3709   */\n    tag_51:\n        /* \"#utility.yul\":3670:3701   */\n      0x56616c6f7220657863656465206f20636f6e7461646f7220617475616c000000\n        /* \"#utility.yul\":3666:3667   */\n      0x00\n        /* \"#utility.yul\":3658:3664   */\n      dup3\n        /* \"#utility.yul\":3654:3668   */\n      add\n        /* \"#utility.yul\":3647:3702   */\n      mstore\n        /* \"#utility.yul\":3530:3709   */\n      pop\n      jump\t// out\n        /* \"#utility.yul\":3715:4081   */\n    tag_52:\n        /* \"#utility.yul\":3857:3860   */\n      0x00\n        /* \"#utility.yul\":3878:3945   */\n      tag_92\n        /* \"#utility.yul\":3942:3944   */\n      0x1d\n        /* \"#utility.yul\":3937:3940   */\n      dup4\n        /* \"#utility.yul\":3878:3945   */\n      tag_47\n      jump\t// in\n    tag_92:\n        /* \"#utility.yul\":3871:3945   */\n      swap2\n      pop\n        /* \"#utility.yul\":3954:4047   */\n      tag_93\n        /* \"#utility.yul\":4043:4046   */\n      dup3\n        /* \"#utility.yul\":3954:4047   */\n      tag_51\n      jump\t// in\n    tag_93:\n        /* \"#utility.yul\":4072:4074   */\n      0x20\n        /* \"#utility.yul\":4067:4070   */\n      dup3\n        /* \"#utility.yul\":4063:4075   */\n      add\n        /* \"#utility.yul\":4056:4075   */\n      swap1\n      pop\n        /* \"#utility.yul\":3715:4081   */\n      swap2\n      swap1\n      pop\n      jump\t// out\n        /* \"#utility.yul\":4087:4506   */\n    tag_35:\n        /* \"#utility.yul\":4253:4257   */\n      0x00\n        /* \"#utility.yul\":4291:4293   */\n      0x20\n        /* \"#utility.yul\":4280:4289   */\n      dup3\n        /* \"#utility.yul\":4276:4294   */\n      add\n        /* \"#utility.yul\":4268:4294   */\n      swap1\n      pop\n        /* \"#utility.yul\":4340:4349   */\n      dup2\n        /* \"#utility.yul\":4334:4338   */\n      dup2\n        /* \"#utility.yul\":4330:4350   */\n      sub\n        /* \"#utility.yul\":4326:4327   */\n      0x00\n        /* \"#utility.yul\":4315:4324   */\n      dup4\n        /* \"#utility.yul\":4311:4328   */\n      add\n        /* \"#utility.yul\":4304:4351   */\n      mstore\n        /* \"#utility.yul\":4368:4499   */\n      tag_95\n        /* \"#utility.yul\":4494:4498   */\n      dup2\n        /* \"#utility.yul\":4368:4499   */\n      tag_52\n      jump\t// in\n    tag_95:\n        /* \"#utility.yul\":4360:4499   */\n      swap1\n      pop\n        /* \"#utility.yul\":4087:4506   */\n      swap2\n      swap1\n      pop\n      jump\t// out\n        /* \"#utility.yul\":4512:4706   */\n    tag_37:\n        /* \"#utility.yul\":4552:4556   */\n      0x00\n        /* \"#utility.yul\":4572:4592   */\n      tag_97\n        /* \"#utility.yul\":4590:4591   */\n      dup3\n        /* \"#utility.yul\":4572:4592   */\n      tag_38\n      jump\t// in\n    tag_97:\n        /* \"#utility.yul\":4567:4592   */\n      swap2\n      pop\n        /* \"#utility.yul\":4606:4626   */\n      tag_98\n        /* \"#utility.yul\":4624:4625   */\n      dup4\n        /* \"#utility.yul\":4606:4626   */\n      tag_38\n      jump\t// in\n    tag_98:\n        /* \"#utility.yul\":4601:4626   */\n      swap3\n      pop\n        /* \"#utility.yul\":4650:4651   */\n      dup3\n        /* \"#utility.yul\":4647:4648   */\n      dup3\n        /* \"#utility.yul\":4643:4652   */\n      sub\n        /* \"#utility.yul\":4635:4652   */\n      swap1\n      pop\n        /* \"#utility.yul\":4674:4675   */\n      dup2\n        /* \"#utility.yul\":4668:4672   */\n      dup2\n        /* \"#utility.yul\":4665:4676   */\n      gt\n        /* \"#utility.yul\":4662:4699   */\n      iszero\n      tag_99\n      jumpi\n        /* \"#utility.yul\":4679:4697   */\n      tag_100\n      tag_50\n      jump\t// in\n    tag_100:\n        /* \"#utility.yul\":4662:4699   */\n    tag_99:\n        /* \"#utility.yul\":4512:4706   */\n      swap3\n      swap2\n      pop\n      pop\n      jump\t// out\n\n    auxdata: 0xa264697066735822122014a800b6e73e36a9d3505ae08478f7482bdc8f88a2e5eff4955d8b40d74682a964736f6c634300081e0033\n}\n",
				"bytecode": {
					"linkReferences": {},
					"object": "6080604052348015600e575f5ffd5b5061042e8061001c5f395ff3fe608060405234801561000f575f5ffd5b506004361061004a575f3560e01c806353d27cc21461004e578063ad85acf11461006c578063b9e30ac61461008a578063bd1c152e146100a6575b5f5ffd5b6100566100c2565b60405161006391906101b3565b60405180910390f35b6100746100c7565b60405161008191906101e6565b60405180910390f35b6100a4600480360381019061009f919061022d565b6100e1565b005b6100c060048036038101906100bb919061022d565b61013d565b005b5f5481565b5f5f5f5410156100da576100d9610258565b5b6001905090565b5f8111610123576040517f08c379a000000000000000000000000000000000000000000000000000000000815260040161011a906102df565b60405180910390fd5b805f5f828254610133919061032a565b9250508190555050565b5f54811115610181576040517f08c379a0000000000000000000000000000000000000000000000000000000008152600401610178906103a7565b60405180910390fd5b805f5f82825461019191906103c5565b9250508190555050565b5f819050919050565b6101ad8161019b565b82525050565b5f6020820190506101c65f8301846101a4565b92915050565b5f8115159050919050565b6101e0816101cc565b82525050565b5f6020820190506101f95f8301846101d7565b92915050565b5f5ffd5b61020c8161019b565b8114610216575f5ffd5b50565b5f8135905061022781610203565b92915050565b5f60208284031215610242576102416101ff565b5b5f61024f84828501610219565b91505092915050565b7f4e487b71000000000000000000000000000000000000000000000000000000005f52600160045260245ffd5b5f82825260208201905092915050565b7f56616c6f72206465766520736572206d61696f7220717565207a65726f0000005f82015250565b5f6102c9601d83610285565b91506102d482610295565b602082019050919050565b5f6020820190508181035f8301526102f6816102bd565b9050919050565b7f4e487b71000000000000000000000000000000000000000000000000000000005f52601160045260245ffd5b5f6103348261019b565b915061033f8361019b565b9250828201905080821115610357576103566102fd565b5b92915050565b7f56616c6f7220657863656465206f20636f6e7461646f7220617475616c0000005f82015250565b5f610391601d83610285565b915061039c8261035d565b602082019050919050565b5f6020820190508181035f8301526103be81610385565b9050919050565b5f6103cf8261019b565b91506103da8361019b565b92508282039050818111156103f2576103f16102fd565b5b9291505056fea264697066735822122014a800b6e73e36a9d3505ae08478f7482bdc8f88a2e5eff4955d8b40d74682a964736f6c634300081e0033",
					"opcodes": "PUSH1 0x80 PUSH1 0x40 MSTORE CALLVALUE DUP1 ISZERO PUSH1 0xE JUMPI PUSH0 PUSH0 REVERT JUMPDEST POP PUSH2 0x42E DUP1 PUSH2 0x1C PUSH0 CODECOPY PUSH0 RETURN INVALID PUSH1 0x80 PUSH1 0x40 MSTORE CALLVALUE DUP1 ISZERO PUSH2 0xF JUMPI PUSH0 PUSH0 REVERT JUMPDEST POP PUSH1 0x4 CALLDATASIZE LT PUSH2 0x4A JUMPI PUSH0 CALLDATALOAD PUSH1 0xE0 SHR DUP1 PUSH4 0x53D27CC2 EQ PUSH2 0x4E JUMPI DUP1 PUSH4 0xAD85ACF1 EQ PUSH2 0x6C JUMPI DUP1 PUSH4 0xB9E30AC6 EQ PUSH2 0x8A JUMPI DUP1 PUSH4 0xBD1C152E EQ PUSH2 0xA6 JUMPI JUMPDEST PUSH0 PUSH0 REVERT JUMPDEST PUSH2 0x56 PUSH2 0xC2 JUMP JUMPDEST PUSH1 0x40 MLOAD PUSH2 0x63 SWAP2 SWAP1 PUSH2 0x1B3 JUMP JUMPDEST PUSH1 0x40 MLOAD DUP1 SWAP2 SUB SWAP1 RETURN JUMPDEST PUSH2 0x74 PUSH2 0xC7 JUMP JUMPDEST PUSH1 0x40 MLOAD PUSH2 0x81 SWAP2 SWAP1 PUSH2 0x1E6 JUMP JUMPDEST PUSH1 0x40 MLOAD DUP1 SWAP2 SUB SWAP1 RETURN JUMPDEST PUSH2 0xA4 PUSH1 0x4 DUP1 CALLDATASIZE SUB DUP2 ADD SWAP1 PUSH2 0x9F SWAP2 SWAP1 PUSH2 0x22D JUMP JUMPDEST PUSH2 0xE1 JUMP JUMPDEST STOP JUMPDEST PUSH2 0xC0 PUSH1 0x4 DUP1 CALLDATASIZE SUB DUP2 ADD SWAP1 PUSH2 0xBB SWAP2 SWAP1 PUSH2 0x22D JUMP JUMPDEST PUSH2 0x13D JUMP JUMPDEST STOP JUMPDEST PUSH0 SLOAD DUP2 JUMP JUMPDEST PUSH0 PUSH0 PUSH0 SLOAD LT ISZERO PUSH2 0xDA JUMPI PUSH2 0xD9 PUSH2 0x258 JUMP JUMPDEST JUMPDEST PUSH1 0x1 SWAP1 POP SWAP1 JUMP JUMPDEST PUSH0 DUP2 GT PUSH2 0x123 JUMPI PUSH1 0x40 MLOAD PUSH32 0x8C379A000000000000000000000000000000000000000000000000000000000 DUP2 MSTORE PUSH1 0x4 ADD PUSH2 0x11A SWAP1 PUSH2 0x2DF JUMP JUMPDEST PUSH1 0x40 MLOAD DUP1 SWAP2 SUB SWAP1 REVERT JUMPDEST DUP1 PUSH0 PUSH0 DUP3 DUP3 SLOAD PUSH2 0x133 SWAP2 SWAP1 PUSH2 0x32A JUMP JUMPDEST SWAP3 POP POP DUP2 SWAP1 SSTORE POP POP JUMP JUMPDEST PUSH0 SLOAD DUP2 GT ISZERO PUSH2 0x181 JUMPI PUSH1 0x40 MLOAD PUSH32 0x8C379A000000000000000000000000000000000000000000000000000000000 DUP2 MSTORE PUSH1 0x4 ADD PUSH2 0x178 SWAP1 PUSH2 0x3A7 JUMP JUMPDEST PUSH1 0x40 MLOAD DUP1 SWAP2 SUB SWAP1 REVERT JUMPDEST DUP1 PUSH0 PUSH0 DUP3 DUP3 SLOAD PUSH2 0x191 SWAP2 SWAP1 PUSH2 0x3C5 JUMP JUMPDEST SWAP3 POP POP DUP2 SWAP1 SSTORE POP POP JUMP JUMPDEST PUSH0 DUP2 SWAP1 POP SWAP2 SWAP1 POP JUMP JUMPDEST PUSH2 0x1AD DUP2 PUSH2 0x19B JUMP JUMPDEST DUP3 MSTORE POP POP JUMP JUMPDEST PUSH0 PUSH1 0x20 DUP3 ADD SWAP1 POP PUSH2 0x1C6 PUSH0 DUP4 ADD DUP5 PUSH2 0x1A4 JUMP JUMPDEST SWAP3 SWAP2 POP POP JUMP JUMPDEST PUSH0 DUP2 ISZERO ISZERO SWAP1 POP SWAP2 SWAP1 POP JUMP JUMPDEST PUSH2 0x1E0 DUP2 PUSH2 0x1CC JUMP JUMPDEST DUP3 MSTORE POP POP JUMP JUMPDEST PUSH0 PUSH1 0x20 DUP3 ADD SWAP1 POP PUSH2 0x1F9 PUSH0 DUP4 ADD DUP5 PUSH2 0x1D7 JUMP JUMPDEST SWAP3 SWAP2 POP POP JUMP JUMPDEST PUSH0 PUSH0 REVERT JUMPDEST PUSH2 0x20C DUP2 PUSH2 0x19B JUMP JUMPDEST DUP2 EQ PUSH2 0x216 JUMPI PUSH0 PUSH0 REVERT JUMPDEST POP JUMP JUMPDEST PUSH0 DUP2 CALLDATALOAD SWAP1 POP PUSH2 0x227 DUP2 PUSH2 0x203 JUMP JUMPDEST SWAP3 SWAP2 POP POP JUMP JUMPDEST PUSH0 PUSH1 0x20 DUP3 DUP5 SUB SLT ISZERO PUSH2 0x242 JUMPI PUSH2 0x241 PUSH2 0x1FF JUMP JUMPDEST JUMPDEST PUSH0 PUSH2 0x24F DUP5 DUP3 DUP6 ADD PUSH2 0x219 JUMP JUMPDEST SWAP2 POP POP SWAP3 SWAP2 POP POP JUMP JUMPDEST PUSH32 0x4E487B7100000000000000000000000000000000000000000000000000000000 PUSH0 MSTORE PUSH1 0x1 PUSH1 0x4 MSTORE PUSH1 0x24 PUSH0 REVERT JUMPDEST PUSH0 DUP3 DUP3 MSTORE PUSH1 0x20 DUP3 ADD SWAP1 POP SWAP3 SWAP2 POP POP JUMP JUMPDEST PUSH32 0x56616C6F72206465766520736572206D61696F7220717565207A65726F000000 PUSH0 DUP3 ADD MSTORE POP JUMP JUMPDEST PUSH0 PUSH2 0x2C9 PUSH1 0x1D DUP4 PUSH2 0x285 JUMP JUMPDEST SWAP2 POP PUSH2 0x2D4 DUP3 PUSH2 0x295 JUMP JUMPDEST PUSH1 0x20 DUP3 ADD SWAP1 POP SWAP2 SWAP1 POP JUMP JUMPDEST PUSH0 PUSH1 0x20 DUP3 ADD SWAP1 POP DUP2 DUP2 SUB PUSH0 DUP4 ADD MSTORE PUSH2 0x2F6 DUP2 PUSH2 0x2BD JUMP JUMPDEST SWAP1 POP SWAP2 SWAP1 POP JUMP JUMPDEST PUSH32 0x4E487B7100000000000000000000000000000000000000000000000000000000 PUSH0 MSTORE PUSH1 0x11 PUSH1 0x4 MSTORE PUSH1 0x24 PUSH0 REVERT JUMPDEST PUSH0 PUSH2 0x334 DUP3 PUSH2 0x19B JUMP JUMPDEST SWAP2 POP PUSH2 0x33F DUP4 PUSH2 0x19B JUMP JUMPDEST SWAP3 POP DUP3 DUP3 ADD SWAP1 POP DUP1 DUP3 GT ISZERO PUSH2 0x357 JUMPI PUSH2 0x356 PUSH2 0x2FD JUMP JUMPDEST JUMPDEST SWAP3 SWAP2 POP POP JUMP JUMPDEST PUSH32 0x56616C6F7220657863656465206F20636F6E7461646F7220617475616C000000 PUSH0 DUP3 ADD MSTORE POP JUMP JUMPDEST PUSH0 PUSH2 0x391 PUSH1 0x1D DUP4 PUSH2 0x285 JUMP JUMPDEST SWAP2 POP PUSH2 0x39C DUP3 PUSH2 0x35D JUMP JUMPDEST PUSH1 0x20 DUP3 ADD SWAP1 POP SWAP2 SWAP1 POP JUMP JUMPDEST PUSH0 PUSH1 0x20 DUP3 ADD SWAP1 POP DUP2 DUP2 SUB PUSH0 DUP4 ADD MSTORE PUSH2 0x3BE DUP2 PUSH2 0x385 JUMP JUMPDEST SWAP1 POP SWAP2 SWAP1 POP JUMP JUMPDEST PUSH0 PUSH2 0x3CF DUP3 PUSH2 0x19B JUMP JUMPDEST SWAP2 POP PUSH2 0x3DA DUP4 PUSH2 0x19B JUMP JUMPDEST SWAP3 POP DUP3 DUP3 SUB SWAP1 POP DUP2 DUP2 GT ISZERO PUSH2 0x3F2 JUMPI PUSH2 0x3F1 PUSH2 0x2FD JUMP JUMPDEST JUMPDEST SWAP3 SWAP2 POP POP JUMP INVALID LOG2 PUSH5 0x6970667358 0x22 SLT KECCAK256 EQ 0xA8 STOP 0xB6 SWAPN 0x3E CALLDATASIZE 0xA9 0xD3 POP GAS RJUMP 0x8478 0xF7 BASEFEE 0x2B 0xDC DUP16 DUP9 LOG2 JUMPF 0xEFF4 SWAP6 TSTORE DUP12 BLOCKHASH 0xD7 CHAINID DUP3 0xA9 PUSH5 0x736F6C6343 STOP ADDMOD 0x1E STOP CALLER "
				},
				"gasEstimates": {
					"creation": {
						"codeDepositCost": "214000",
						"executionCost": "255",
						"totalCost": "214255"
					},
					"external": {
						"contador()": "2402",
						"decrementar(uint256)": "infinite",
						"incrementar(uint256)": "infinite",
						"verificadorInvariavel()": "2462"
					}
				},
				"methodIdentifiers": {
					"contador()": "53d27cc2",
					"decrementar(uint256)": "bd1c152e",
					"incrementar(uint256)": "b9e30ac6",
					"verificadorInvariavel()": "ad85acf1"
				}
			},
			"storageLayout": {
				"storage": [
					{
						"astId": 3,
						"contract": "AulaRecife/3modulo/VerificadorSimples.sol:VerificadorSimples",
						"label": "contador",
						"offset": 0,
						"slot": "0",
						"type": "t_uint256"
					}
				],
				"types": {
					"t_uint256": {
						"encoding": "inplace",
						"label": "uint256",
						"numberOfBytes": "32"
					}
				}
			},
			"userdoc": {
				"kind": "user",
				"methods": {},
				"version": 1
			}
		}
	}
}