{
	"AulaRecife/3modulo/Desafio/Cliente.sol": {
		"Cliente": {
			"abi": [
				{
					"inputs": [
						{
							"internalType": "address",
							"name": "_cofre",
							"type": "address"
						}
					],
					"stateMutability": "nonpayable",
					"type": "constructor"
				},
				{
					"anonymous": false,
					"inputs": [
						{
							"indexed": true,
							"internalType": "address",
							"name": "ownerAddr",
							"type": "address"
						},
						{
							"indexed": false,
							"internalType": "uint256",
							"name": "valor",
							"type": "uint256"
						}
					],
					"name": "DepositoDoOwner",
					"type": "event"
				},
				{
					"anonymous": false,
					"inputs": [
						{
							"indexed": true,
							"internalType": "address",
							"name": "ownerAddr",
							"type": "address"
						},
						{
							"indexed": false,
							"internalType": "uint256",
							"name": "valor",
							"type": "uint256"
						}
					],
					"name": "SaqueDoOwner",
					"type": "event"
				},
				{
					"inputs": [],
					"name": "cofreEndereco",
					"outputs": [
						{
							"internalType": "address",
							"name": "",
							"type": "address"
						}
					],
					"stateMutability": "view",
					"type": "function"
				},
				{
					"inputs": [],
					"name": "consultarMeuSaldoNoCofre",
					"outputs": [
						{
							"internalType": "uint256",
							"name": "",
							"type": "uint256"
						}
					],
					"stateMutability": "view",
					"type": "function"
				},
				{
					"inputs": [],
					"name": "depositar",
					"outputs": [],
					"stateMutability": "payable",
					"type": "function"
				},
				{
					"inputs": [],
					"name": "owner",
					"outputs": [
						{
							"internalType": "address",
							"name": "",
							"type": "address"
						}
					],
					"stateMutability": "view",
					"type": "function"
				},
				{
					"inputs": [
						{
							"internalType": "uint256",
							"name": "valor",
							"type": "uint256"
						}
					],
					"name": "sacar",
					"outputs": [],
					"stateMutability": "nonpayable",
					"type": "function"
				},
				{
					"stateMutability": "payable",
					"type": "receive"
				}
			],
			"devdoc": {
				"kind": "dev",
				"methods": {},
				"version": 1
			},
			"evm": {
				"assembly": "    /* \"AulaRecife/3modulo/Desafio/Cliente.sol\":94:3122  contract Cliente {... */\n  mstore(0x40, 0x80)\n    /* \"AulaRecife/3modulo/Desafio/Cliente.sol\":480:700  constructor(address _cofre) {... */\n  callvalue\n  dup1\n  iszero\n  tag_1\n  jumpi\n  revert(0x00, 0x00)\ntag_1:\n  pop\n  mload(0x40)\n  sub(codesize, bytecodeSize)\n  dup1\n  bytecodeSize\n  dup4\n  codecopy\n  dup2\n  dup2\n  add\n  0x40\n  mstore\n  dup2\n  add\n  swap1\n  tag_2\n  swap2\n  swap1\n  tag_3\n  jump\t// in\ntag_2:\n    /* \"AulaRecife/3modulo/Desafio/Cliente.sol\":545:546  0 */\n  0x00\n    /* \"AulaRecife/3modulo/Desafio/Cliente.sol\":527:547  _cofre != address(0) */\n  0xffffffffffffffffffffffffffffffffffffffff\n  and\n    /* \"AulaRecife/3modulo/Desafio/Cliente.sol\":527:533  _cofre */\n  dup2\n    /* \"AulaRecife/3modulo/Desafio/Cliente.sol\":527:547  _cofre != address(0) */\n  0xffffffffffffffffffffffffffffffffffffffff\n  and\n  sub\n    /* \"AulaRecife/3modulo/Desafio/Cliente.sol\":519:587  require(_cofre != address(0), \"Endereco do Cofre nao pode ser zero\") */\n  tag_6\n  jumpi\n  mload(0x40)\n  0x08c379a000000000000000000000000000000000000000000000000000000000\n  dup2\n  mstore\n  0x04\n  add\n  tag_7\n  swap1\n  tag_8\n  jump\t// in\ntag_7:\n  mload(0x40)\n  dup1\n  swap2\n  sub\n  swap1\n  revert\ntag_6:\n    /* \"AulaRecife/3modulo/Desafio/Cliente.sol\":614:620  _cofre */\n  dup1\n    /* \"AulaRecife/3modulo/Desafio/Cliente.sol\":598:611  cofreEndereco */\n  0x00\n  0x00\n    /* \"AulaRecife/3modulo/Desafio/Cliente.sol\":598:620  cofreEndereco = _cofre */\n  0x0100\n  exp\n  dup2\n  sload\n  dup2\n  0xffffffffffffffffffffffffffffffffffffffff\n  mul\n  not\n  and\n  swap1\n  dup4\n  0xffffffffffffffffffffffffffffffffffffffff\n  and\n  mul\n  or\n  swap1\n  sstore\n  pop\n    /* \"AulaRecife/3modulo/Desafio/Cliente.sol\":639:649  msg.sender */\n  caller\n    /* \"AulaRecife/3modulo/Desafio/Cliente.sol\":631:636  owner */\n  0x01\n  0x00\n    /* \"AulaRecife/3modulo/Desafio/Cliente.sol\":631:649  owner = msg.sender */\n  0x0100\n  exp\n  dup2\n  sload\n  dup2\n  0xffffffffffffffffffffffffffffffffffffffff\n  mul\n  not\n  and\n  swap1\n  dup4\n  0xffffffffffffffffffffffffffffffffffffffff\n  and\n  mul\n  or\n  swap1\n  sstore\n  pop\n    /* \"AulaRecife/3modulo/Desafio/Cliente.sol\":480:700  constructor(address _cofre) {... */\n  pop\n    /* \"AulaRecife/3modulo/Desafio/Cliente.sol\":94:3122  contract Cliente {... */\n  jump(tag_9)\n    /* \"#utility.yul\":88:205   */\ntag_11:\n    /* \"#utility.yul\":197:198   */\n  0x00\n    /* \"#utility.yul\":194:195   */\n  0x00\n    /* \"#utility.yul\":187:199   */\n  revert\n    /* \"#utility.yul\":334:460   */\ntag_13:\n    /* \"#utility.yul\":371:378   */\n  0x00\n    /* \"#utility.yul\":411:453   */\n  0xffffffffffffffffffffffffffffffffffffffff\n    /* \"#utility.yul\":404:409   */\n  dup3\n    /* \"#utility.yul\":400:454   */\n  and\n    /* \"#utility.yul\":389:454   */\n  swap1\n  pop\n    /* \"#utility.yul\":334:460   */\n  swap2\n  swap1\n  pop\n  jump\t// out\n    /* \"#utility.yul\":466:562   */\ntag_14:\n    /* \"#utility.yul\":503:510   */\n  0x00\n    /* \"#utility.yul\":532:556   */\n  tag_26\n    /* \"#utility.yul\":550:555   */\n  dup3\n    /* \"#utility.yul\":532:556   */\n  tag_13\n  jump\t// in\ntag_26:\n    /* \"#utility.yul\":521:556   */\n  swap1\n  pop\n    /* \"#utility.yul\":466:562   */\n  swap2\n  swap1\n  pop\n  jump\t// out\n    /* \"#utility.yul\":568:690   */\ntag_15:\n    /* \"#utility.yul\":641:665   */\n  tag_28\n    /* \"#utility.yul\":659:664   */\n  dup2\n    /* \"#utility.yul\":641:665   */\n  tag_14\n  jump\t// in\ntag_28:\n    /* \"#utility.yul\":634:639   */\n  dup2\n    /* \"#utility.yul\":631:666   */\n  eq\n    /* \"#utility.yul\":621:684   */\n  tag_29\n  jumpi\n    /* \"#utility.yul\":680:681   */\n  0x00\n    /* \"#utility.yul\":677:678   */\n  0x00\n    /* \"#utility.yul\":670:682   */\n  revert\n    /* \"#utility.yul\":621:684   */\ntag_29:\n    /* \"#utility.yul\":568:690   */\n  pop\n  jump\t// out\n    /* \"#utility.yul\":696:839   */\ntag_16:\n    /* \"#utility.yul\":753:758   */\n  0x00\n    /* \"#utility.yul\":784:790   */\n  dup2\n    /* \"#utility.yul\":778:791   */\n  mload\n    /* \"#utility.yul\":769:791   */\n  swap1\n  pop\n    /* \"#utility.yul\":800:833   */\n  tag_31\n    /* \"#utility.yul\":827:832   */\n  dup2\n    /* \"#utility.yul\":800:833   */\n  tag_15\n  jump\t// in\ntag_31:\n    /* \"#utility.yul\":696:839   */\n  swap3\n  swap2\n  pop\n  pop\n  jump\t// out\n    /* \"#utility.yul\":845:1196   */\ntag_3:\n    /* \"#utility.yul\":915:921   */\n  0x00\n    /* \"#utility.yul\":964:966   */\n  0x20\n    /* \"#utility.yul\":952:961   */\n  dup3\n    /* \"#utility.yul\":943:950   */\n  dup5\n    /* \"#utility.yul\":939:962   */\n  sub\n    /* \"#utility.yul\":935:967   */\n  slt\n    /* \"#utility.yul\":932:1051   */\n  iszero\n  tag_33\n  jumpi\n    /* \"#utility.yul\":970:1049   */\n  tag_34\n  tag_11\n  jump\t// in\ntag_34:\n    /* \"#utility.yul\":932:1051   */\ntag_33:\n    /* \"#utility.yul\":1090:1091   */\n  0x00\n    /* \"#utility.yul\":1115:1179   */\n  tag_35\n    /* \"#utility.yul\":1171:1178   */\n  dup5\n    /* \"#utility.yul\":1162:1168   */\n  dup3\n    /* \"#utility.yul\":1151:1160   */\n  dup6\n    /* \"#utility.yul\":1147:1169   */\n  add\n    /* \"#utility.yul\":1115:1179   */\n  tag_16\n  jump\t// in\ntag_35:\n    /* \"#utility.yul\":1105:1179   */\n  swap2\n  pop\n    /* \"#utility.yul\":1061:1189   */\n  pop\n    /* \"#utility.yul\":845:1196   */\n  swap3\n  swap2\n  pop\n  pop\n  jump\t// out\n    /* \"#utility.yul\":1202:1371   */\ntag_17:\n    /* \"#utility.yul\":1286:1297   */\n  0x00\n    /* \"#utility.yul\":1320:1326   */\n  dup3\n    /* \"#utility.yul\":1315:1318   */\n  dup3\n    /* \"#utility.yul\":1308:1327   */\n  mstore\n    /* \"#utility.yul\":1360:1364   */\n  0x20\n    /* \"#utility.yul\":1355:1358   */\n  dup3\n    /* \"#utility.yul\":1351:1365   */\n  add\n    /* \"#utility.yul\":1336:1365   */\n  swap1\n  pop\n    /* \"#utility.yul\":1202:1371   */\n  swap3\n  swap2\n  pop\n  pop\n  jump\t// out\n    /* \"#utility.yul\":1377:1599   */\ntag_18:\n    /* \"#utility.yul\":1517:1551   */\n  0x456e64657265636f20646f20436f667265206e616f20706f646520736572207a\n    /* \"#utility.yul\":1513:1514   */\n  0x00\n    /* \"#utility.yul\":1505:1511   */\n  dup3\n    /* \"#utility.yul\":1501:1515   */\n  add\n    /* \"#utility.yul\":1494:1552   */\n  mstore\n    /* \"#utility.yul\":1586:1591   */\n  0x65726f0000000000000000000000000000000000000000000000000000000000\n    /* \"#utility.yul\":1581:1583   */\n  0x20\n    /* \"#utility.yul\":1573:1579   */\n  dup3\n    /* \"#utility.yul\":1569:1584   */\n  add\n    /* \"#utility.yul\":1562:1592   */\n  mstore\n    /* \"#utility.yul\":1377:1599   */\n  pop\n  jump\t// out\n    /* \"#utility.yul\":1605:1971   */\ntag_19:\n    /* \"#utility.yul\":1747:1750   */\n  0x00\n    /* \"#utility.yul\":1768:1835   */\n  tag_39\n    /* \"#utility.yul\":1832:1834   */\n  0x23\n    /* \"#utility.yul\":1827:1830   */\n  dup4\n    /* \"#utility.yul\":1768:1835   */\n  tag_17\n  jump\t// in\ntag_39:\n    /* \"#utility.yul\":1761:1835   */\n  swap2\n  pop\n    /* \"#utility.yul\":1844:1937   */\n  tag_40\n    /* \"#utility.yul\":1933:1936   */\n  dup3\n    /* \"#utility.yul\":1844:1937   */\n  tag_18\n  jump\t// in\ntag_40:\n    /* \"#utility.yul\":1962:1964   */\n  0x40\n    /* \"#utility.yul\":1957:1960   */\n  dup3\n    /* \"#utility.yul\":1953:1965   */\n  add\n    /* \"#utility.yul\":1946:1965   */\n  swap1\n  pop\n    /* \"#utility.yul\":1605:1971   */\n  swap2\n  swap1\n  pop\n  jump\t// out\n    /* \"#utility.yul\":1977:2396   */\ntag_8:\n    /* \"#utility.yul\":2143:2147   */\n  0x00\n    /* \"#utility.yul\":2181:2183   */\n  0x20\n    /* \"#utility.yul\":2170:2179   */\n  dup3\n    /* \"#utility.yul\":2166:2184   */\n  add\n    /* \"#utility.yul\":2158:2184   */\n  swap1\n  pop\n    /* \"#utility.yul\":2230:2239   */\n  dup2\n    /* \"#utility.yul\":2224:2228   */\n  dup2\n    /* \"#utility.yul\":2220:2240   */\n  sub\n    /* \"#utility.yul\":2216:2217   */\n  0x00\n    /* \"#utility.yul\":2205:2214   */\n  dup4\n    /* \"#utility.yul\":2201:2218   */\n  add\n    /* \"#utility.yul\":2194:2241   */\n  mstore\n    /* \"#utility.yul\":2258:2389   */\n  tag_42\n    /* \"#utility.yul\":2384:2388   */\n  dup2\n    /* \"#utility.yul\":2258:2389   */\n  tag_19\n  jump\t// in\ntag_42:\n    /* \"#utility.yul\":2250:2389   */\n  swap1\n  pop\n    /* \"#utility.yul\":1977:2396   */\n  swap2\n  swap1\n  pop\n  jump\t// out\n    /* \"AulaRecife/3modulo/Desafio/Cliente.sol\":94:3122  contract Cliente {... */\ntag_9:\n  dataSize(sub_0)\n  dup1\n  dataOffset(sub_0)\n  0x00\n  codecopy\n  0x00\n  return\nstop\n\nsub_0: assembly {\n        /* \"AulaRecife/3modulo/Desafio/Cliente.sol\":94:3122  contract Cliente {... */\n      mstore(0x40, 0x80)\n      jumpi(tag_1, lt(calldatasize, 0x04))\n      shr(0xe0, calldataload(0x00))\n      dup1\n      0x3d922f90\n      eq\n      tag_3\n      jumpi\n      dup1\n      0x426ee8cf\n      eq\n      tag_4\n      jumpi\n      dup1\n      0x7371b0d6\n      eq\n      tag_5\n      jumpi\n      dup1\n      0x8da5cb5b\n      eq\n      tag_6\n      jumpi\n      dup1\n      0xfd6b81da\n      eq\n      tag_7\n      jumpi\n      jump(tag_2)\n    tag_1:\n      jumpi(tag_2, calldatasize)\n      stop\n    tag_2:\n      revert(0x00, 0x00)\n        /* \"AulaRecife/3modulo/Desafio/Cliente.sol\":1335:1754  function depositar() external payable onlyOwner { // Apenas o owner do Cliente pode depositar para o pool... */\n    tag_3:\n      tag_10\n      tag_11\n      jump\t// in\n    tag_10:\n      stop\n        /* \"AulaRecife/3modulo/Desafio/Cliente.sol\":1842:2092  function consultarMeuSaldoNoCofre() external view onlyOwner returns (uint256) {... */\n    tag_4:\n      callvalue\n      dup1\n      iszero\n      tag_12\n      jumpi\n      revert(0x00, 0x00)\n    tag_12:\n      pop\n      tag_13\n      tag_14\n      jump\t// in\n    tag_13:\n      mload(0x40)\n      tag_15\n      swap2\n      swap1\n      tag_16\n      jump\t// in\n    tag_15:\n      mload(0x40)\n      dup1\n      swap2\n      sub\n      swap1\n      return\n        /* \"AulaRecife/3modulo/Desafio/Cliente.sol\":2232:3119  function sacar(uint256 valor) external onlyOwner { // Apenas o owner do Cliente pode sacar do pool... */\n    tag_5:\n      callvalue\n      dup1\n      iszero\n      tag_17\n      jumpi\n      revert(0x00, 0x00)\n    tag_17:\n      pop\n      tag_18\n      0x04\n      dup1\n      calldatasize\n      sub\n      dup2\n      add\n      swap1\n      tag_19\n      swap2\n      swap1\n      tag_20\n      jump\t// in\n    tag_19:\n      tag_21\n      jump\t// in\n    tag_18:\n      stop\n        /* \"AulaRecife/3modulo/Desafio/Cliente.sol\":153:173  address public owner */\n    tag_6:\n      callvalue\n      dup1\n      iszero\n      tag_22\n      jumpi\n      revert(0x00, 0x00)\n    tag_22:\n      pop\n      tag_23\n      tag_24\n      jump\t// in\n    tag_23:\n      mload(0x40)\n      tag_25\n      swap2\n      swap1\n      tag_26\n      jump\t// in\n    tag_25:\n      mload(0x40)\n      dup1\n      swap2\n      sub\n      swap1\n      return\n        /* \"AulaRecife/3modulo/Desafio/Cliente.sol\":118:146  address public cofreEndereco */\n    tag_7:\n      callvalue\n      dup1\n      iszero\n      tag_27\n      jumpi\n      revert(0x00, 0x00)\n    tag_27:\n      pop\n      tag_28\n      tag_29\n      jump\t// in\n    tag_28:\n      mload(0x40)\n      tag_30\n      swap2\n      swap1\n      tag_26\n      jump\t// in\n    tag_30:\n      mload(0x40)\n      dup1\n      swap2\n      sub\n      swap1\n      return\n        /* \"AulaRecife/3modulo/Desafio/Cliente.sol\":1335:1754  function depositar() external payable onlyOwner { // Apenas o owner do Cliente pode depositar para o pool... */\n    tag_11:\n        /* \"AulaRecife/3modulo/Desafio/Cliente.sol\":852:857  owner */\n      0x01\n      0x00\n      swap1\n      sload\n      swap1\n      0x0100\n      exp\n      swap1\n      div\n      0xffffffffffffffffffffffffffffffffffffffff\n      and\n        /* \"AulaRecife/3modulo/Desafio/Cliente.sol\":838:857  msg.sender == owner */\n      0xffffffffffffffffffffffffffffffffffffffff\n      and\n        /* \"AulaRecife/3modulo/Desafio/Cliente.sol\":838:848  msg.sender */\n      caller\n        /* \"AulaRecife/3modulo/Desafio/Cliente.sol\":838:857  msg.sender == owner */\n      0xffffffffffffffffffffffffffffffffffffffff\n      and\n      eq\n        /* \"AulaRecife/3modulo/Desafio/Cliente.sol\":830:919  require(msg.sender == owner, \"Only owner of this client contract can call this function\") */\n      tag_32\n      jumpi\n      mload(0x40)\n      0x08c379a000000000000000000000000000000000000000000000000000000000\n      dup2\n      mstore\n      0x04\n      add\n      tag_33\n      swap1\n      tag_34\n      jump\t// in\n    tag_33:\n      mload(0x40)\n      dup1\n      swap2\n      sub\n      swap1\n      revert\n    tag_32:\n        /* \"AulaRecife/3modulo/Desafio/Cliente.sol\":1470:1471  0 */\n      0x00\n        /* \"AulaRecife/3modulo/Desafio/Cliente.sol\":1458:1467  msg.value */\n      callvalue\n        /* \"AulaRecife/3modulo/Desafio/Cliente.sol\":1458:1471  msg.value > 0 */\n      gt\n        /* \"AulaRecife/3modulo/Desafio/Cliente.sol\":1450:1502  require(msg.value > 0, \"Precisa enviar algum Ether\") */\n      tag_36\n      jumpi\n      mload(0x40)\n      0x08c379a000000000000000000000000000000000000000000000000000000000\n      dup2\n      mstore\n      0x04\n      add\n      tag_37\n      swap1\n      tag_38\n      jump\t// in\n    tag_37:\n      mload(0x40)\n      dup1\n      swap2\n      sub\n      swap1\n      revert\n    tag_36:\n        /* \"AulaRecife/3modulo/Desafio/Cliente.sol\":1638:1651  cofreEndereco */\n      0x00\n      0x00\n      swap1\n      sload\n      swap1\n      0x0100\n      exp\n      swap1\n      div\n      0xffffffffffffffffffffffffffffffffffffffff\n      and\n        /* \"AulaRecife/3modulo/Desafio/Cliente.sol\":1631:1662  ICofre(cofreEndereco).depositar */\n      0xffffffffffffffffffffffffffffffffffffffff\n      and\n      0x3d922f90\n        /* \"AulaRecife/3modulo/Desafio/Cliente.sol\":1670:1679  msg.value */\n      callvalue\n        /* \"AulaRecife/3modulo/Desafio/Cliente.sol\":1631:1682  ICofre(cofreEndereco).depositar{value: msg.value}() */\n      mload(0x40)\n      dup3\n      0xffffffff\n      and\n      0xe0\n      shl\n      dup2\n      mstore\n      0x04\n      add\n      0x00\n      mload(0x40)\n      dup1\n      dup4\n      sub\n      dup2\n      dup6\n      dup9\n      dup1\n      extcodesize\n      iszero\n      dup1\n      iszero\n      tag_39\n      jumpi\n      revert(0x00, 0x00)\n    tag_39:\n      pop\n      gas\n      call\n      iszero\n      dup1\n      iszero\n      tag_41\n      jumpi\n      returndatacopy(0x00, 0x00, returndatasize)\n      revert(0x00, returndatasize)\n    tag_41:\n      pop\n      pop\n      pop\n      pop\n      pop\n        /* \"AulaRecife/3modulo/Desafio/Cliente.sol\":1724:1734  msg.sender */\n      caller\n        /* \"AulaRecife/3modulo/Desafio/Cliente.sol\":1708:1746  DepositoDoOwner(msg.sender, msg.value) */\n      0xffffffffffffffffffffffffffffffffffffffff\n      and\n      0xa88377ec48ddb8362c554cf1ff840dfad21fa997ea01f734207b8b6ef96ae248\n        /* \"AulaRecife/3modulo/Desafio/Cliente.sol\":1736:1745  msg.value */\n      callvalue\n        /* \"AulaRecife/3modulo/Desafio/Cliente.sol\":1708:1746  DepositoDoOwner(msg.sender, msg.value) */\n      mload(0x40)\n      tag_42\n      swap2\n      swap1\n      tag_16\n      jump\t// in\n    tag_42:\n      mload(0x40)\n      dup1\n      swap2\n      sub\n      swap1\n      log2\n        /* \"AulaRecife/3modulo/Desafio/Cliente.sol\":1335:1754  function depositar() external payable onlyOwner { // Apenas o owner do Cliente pode depositar para o pool... */\n      jump\t// out\n        /* \"AulaRecife/3modulo/Desafio/Cliente.sol\":1842:2092  function consultarMeuSaldoNoCofre() external view onlyOwner returns (uint256) {... */\n    tag_14:\n        /* \"AulaRecife/3modulo/Desafio/Cliente.sol\":1911:1918  uint256 */\n      0x00\n        /* \"AulaRecife/3modulo/Desafio/Cliente.sol\":852:857  owner */\n      0x01\n      0x00\n      swap1\n      sload\n      swap1\n      0x0100\n      exp\n      swap1\n      div\n      0xffffffffffffffffffffffffffffffffffffffff\n      and\n        /* \"AulaRecife/3modulo/Desafio/Cliente.sol\":838:857  msg.sender == owner */\n      0xffffffffffffffffffffffffffffffffffffffff\n      and\n        /* \"AulaRecife/3modulo/Desafio/Cliente.sol\":838:848  msg.sender */\n      caller\n        /* \"AulaRecife/3modulo/Desafio/Cliente.sol\":838:857  msg.sender == owner */\n      0xffffffffffffffffffffffffffffffffffffffff\n      and\n      eq\n        /* \"AulaRecife/3modulo/Desafio/Cliente.sol\":830:919  require(msg.sender == owner, \"Only owner of this client contract can call this function\") */\n      tag_44\n      jumpi\n      mload(0x40)\n      0x08c379a000000000000000000000000000000000000000000000000000000000\n      dup2\n      mstore\n      0x04\n      add\n      tag_45\n      swap1\n      tag_34\n      jump\t// in\n    tag_45:\n      mload(0x40)\n      dup1\n      swap2\n      sub\n      swap1\n      revert\n    tag_44:\n        /* \"AulaRecife/3modulo/Desafio/Cliente.sol\":2040:2053  cofreEndereco */\n      0x00\n      0x00\n      swap1\n      sload\n      swap1\n      0x0100\n      exp\n      swap1\n      div\n      0xffffffffffffffffffffffffffffffffffffffff\n      and\n        /* \"AulaRecife/3modulo/Desafio/Cliente.sol\":2033:2069  ICofre(cofreEndereco).consultarSaldo */\n      0xffffffffffffffffffffffffffffffffffffffff\n      and\n      0x218895e3\n        /* \"AulaRecife/3modulo/Desafio/Cliente.sol\":2078:2082  this */\n      address\n        /* \"AulaRecife/3modulo/Desafio/Cliente.sol\":2033:2084  ICofre(cofreEndereco).consultarSaldo(address(this)) */\n      mload(0x40)\n      dup3\n      0xffffffff\n      and\n      0xe0\n      shl\n      dup2\n      mstore\n      0x04\n      add\n      tag_47\n      swap2\n      swap1\n      tag_26\n      jump\t// in\n    tag_47:\n      0x20\n      mload(0x40)\n      dup1\n      dup4\n      sub\n      dup2\n      dup7\n      gas\n      staticcall\n      iszero\n      dup1\n      iszero\n      tag_49\n      jumpi\n      returndatacopy(0x00, 0x00, returndatasize)\n      revert(0x00, returndatasize)\n    tag_49:\n      pop\n      pop\n      pop\n      pop\n      mload(0x40)\n      returndatasize\n      not(0x1f)\n      0x1f\n      dup3\n      add\n      and\n      dup3\n      add\n      dup1\n      0x40\n      mstore\n      pop\n      dup2\n      add\n      swap1\n      tag_50\n      swap2\n      swap1\n      tag_51\n      jump\t// in\n    tag_50:\n        /* \"AulaRecife/3modulo/Desafio/Cliente.sol\":2026:2084  return ICofre(cofreEndereco).consultarSaldo(address(this)) */\n      swap1\n      pop\n        /* \"AulaRecife/3modulo/Desafio/Cliente.sol\":1842:2092  function consultarMeuSaldoNoCofre() external view onlyOwner returns (uint256) {... */\n      swap1\n      jump\t// out\n        /* \"AulaRecife/3modulo/Desafio/Cliente.sol\":2232:3119  function sacar(uint256 valor) external onlyOwner { // Apenas o owner do Cliente pode sacar do pool... */\n    tag_21:\n        /* \"AulaRecife/3modulo/Desafio/Cliente.sol\":852:857  owner */\n      0x01\n      0x00\n      swap1\n      sload\n      swap1\n      0x0100\n      exp\n      swap1\n      div\n      0xffffffffffffffffffffffffffffffffffffffff\n      and\n        /* \"AulaRecife/3modulo/Desafio/Cliente.sol\":838:857  msg.sender == owner */\n      0xffffffffffffffffffffffffffffffffffffffff\n      and\n        /* \"AulaRecife/3modulo/Desafio/Cliente.sol\":838:848  msg.sender */\n      caller\n        /* \"AulaRecife/3modulo/Desafio/Cliente.sol\":838:857  msg.sender == owner */\n      0xffffffffffffffffffffffffffffffffffffffff\n      and\n      eq\n        /* \"AulaRecife/3modulo/Desafio/Cliente.sol\":830:919  require(msg.sender == owner, \"Only owner of this client contract can call this function\") */\n      tag_53\n      jumpi\n      mload(0x40)\n      0x08c379a000000000000000000000000000000000000000000000000000000000\n      dup2\n      mstore\n      0x04\n      add\n      tag_54\n      swap1\n      tag_34\n      jump\t// in\n    tag_54:\n      mload(0x40)\n      dup1\n      swap2\n      sub\n      swap1\n      revert\n    tag_53:\n        /* \"AulaRecife/3modulo/Desafio/Cliente.sol\":2356:2357  0 */\n      0x00\n        /* \"AulaRecife/3modulo/Desafio/Cliente.sol\":2348:2353  valor */\n      dup2\n        /* \"AulaRecife/3modulo/Desafio/Cliente.sol\":2348:2357  valor > 0 */\n      gt\n        /* \"AulaRecife/3modulo/Desafio/Cliente.sol\":2340:2400  require(valor > 0, \"Valor do saque deve ser maior que zero\") */\n      tag_56\n      jumpi\n      mload(0x40)\n      0x08c379a000000000000000000000000000000000000000000000000000000000\n      dup2\n      mstore\n      0x04\n      add\n      tag_57\n      swap1\n      tag_58\n      jump\t// in\n    tag_57:\n      mload(0x40)\n      dup1\n      swap2\n      sub\n      swap1\n      revert\n    tag_56:\n        /* \"AulaRecife/3modulo/Desafio/Cliente.sol\":2421:2433  ICofre cofre */\n      0x00\n        /* \"AulaRecife/3modulo/Desafio/Cliente.sol\":2443:2456  cofreEndereco */\n      0x00\n      0x00\n      swap1\n      sload\n      swap1\n      0x0100\n      exp\n      swap1\n      div\n      0xffffffffffffffffffffffffffffffffffffffff\n      and\n        /* \"AulaRecife/3modulo/Desafio/Cliente.sol\":2421:2457  ICofre cofre = ICofre(cofreEndereco) */\n      swap1\n      pop\n        /* \"AulaRecife/3modulo/Desafio/Cliente.sol\":2603:2608  cofre */\n      dup1\n        /* \"AulaRecife/3modulo/Desafio/Cliente.sol\":2603:2614  cofre.sacar */\n      0xffffffffffffffffffffffffffffffffffffffff\n      and\n      0x7371b0d6\n        /* \"AulaRecife/3modulo/Desafio/Cliente.sol\":2615:2620  valor */\n      dup4\n        /* \"AulaRecife/3modulo/Desafio/Cliente.sol\":2603:2621  cofre.sacar(valor) */\n      mload(0x40)\n      dup3\n      0xffffffff\n      and\n      0xe0\n      shl\n      dup2\n      mstore\n      0x04\n      add\n      tag_59\n      swap2\n      swap1\n      tag_16\n      jump\t// in\n    tag_59:\n      0x00\n      mload(0x40)\n      dup1\n      dup4\n      sub\n      dup2\n      0x00\n      dup8\n      dup1\n      extcodesize\n      iszero\n      dup1\n      iszero\n      tag_60\n      jumpi\n      revert(0x00, 0x00)\n    tag_60:\n      pop\n      gas\n      call\n      iszero\n      dup1\n      iszero\n      tag_62\n      jumpi\n      returndatacopy(0x00, 0x00, returndatasize)\n      revert(0x00, returndatasize)\n    tag_62:\n      pop\n      pop\n      pop\n      pop\n        /* \"AulaRecife/3modulo/Desafio/Cliente.sol\":2803:2808  valor */\n      dup2\n        /* \"AulaRecife/3modulo/Desafio/Cliente.sol\":2778:2799  address(this).balance */\n      selfbalance\n        /* \"AulaRecife/3modulo/Desafio/Cliente.sol\":2778:2808  address(this).balance >= valor */\n      lt\n      iszero\n        /* \"AulaRecife/3modulo/Desafio/Cliente.sol\":2770:2868  require(address(this).balance >= valor, \"Cliente nao tem Ether suficiente para repassar do Cofre\") */\n      tag_63\n      jumpi\n      mload(0x40)\n      0x08c379a000000000000000000000000000000000000000000000000000000000\n      dup2\n      mstore\n      0x04\n      add\n      tag_64\n      swap1\n      tag_65\n      jump\t// in\n    tag_64:\n      mload(0x40)\n      dup1\n      swap2\n      sub\n      swap1\n      revert\n    tag_63:\n        /* \"AulaRecife/3modulo/Desafio/Cliente.sol\":2934:2946  bool success */\n      0x00\n        /* \"AulaRecife/3modulo/Desafio/Cliente.sol\":2960:2965  owner */\n      0x01\n      0x00\n      swap1\n      sload\n      swap1\n      0x0100\n      exp\n      swap1\n      div\n      0xffffffffffffffffffffffffffffffffffffffff\n      and\n        /* \"AulaRecife/3modulo/Desafio/Cliente.sol\":2952:2971  payable(owner).call */\n      0xffffffffffffffffffffffffffffffffffffffff\n      and\n        /* \"AulaRecife/3modulo/Desafio/Cliente.sol\":2979:2984  valor */\n      dup4\n        /* \"AulaRecife/3modulo/Desafio/Cliente.sol\":2952:2989  payable(owner).call{value: valor}(\"\") */\n      mload(0x40)\n      tag_66\n      swap1\n      tag_67\n      jump\t// in\n    tag_66:\n      0x00\n      mload(0x40)\n      dup1\n      dup4\n      sub\n      dup2\n      dup6\n      dup8\n      gas\n      call\n      swap3\n      pop\n      pop\n      pop\n      returndatasize\n      dup1\n      0x00\n      dup2\n      eq\n      tag_70\n      jumpi\n      mload(0x40)\n      swap2\n      pop\n      and(add(returndatasize, 0x3f), not(0x1f))\n      dup3\n      add\n      0x40\n      mstore\n      returndatasize\n      dup3\n      mstore\n      returndatasize\n      0x00\n      0x20\n      dup5\n      add\n      returndatacopy\n      jump(tag_69)\n    tag_70:\n      0x60\n      swap2\n      pop\n    tag_69:\n      pop\n        /* \"AulaRecife/3modulo/Desafio/Cliente.sol\":2933:2989  (bool success, ) = payable(owner).call{value: valor}(\"\") */\n      pop\n      swap1\n      pop\n        /* \"AulaRecife/3modulo/Desafio/Cliente.sol\":3008:3015  success */\n      dup1\n        /* \"AulaRecife/3modulo/Desafio/Cliente.sol\":3000:3059  require(success, \"Repasse do Cliente para o owner falhou!\") */\n      tag_71\n      jumpi\n      mload(0x40)\n      0x08c379a000000000000000000000000000000000000000000000000000000000\n      dup2\n      mstore\n      0x04\n      add\n      tag_72\n      swap1\n      tag_73\n      jump\t// in\n    tag_72:\n      mload(0x40)\n      dup1\n      swap2\n      sub\n      swap1\n      revert\n    tag_71:\n        /* \"AulaRecife/3modulo/Desafio/Cliente.sol\":3098:3103  owner */\n      0x01\n      0x00\n      swap1\n      sload\n      swap1\n      0x0100\n      exp\n      swap1\n      div\n      0xffffffffffffffffffffffffffffffffffffffff\n      and\n        /* \"AulaRecife/3modulo/Desafio/Cliente.sol\":3085:3111  SaqueDoOwner(owner, valor) */\n      0xffffffffffffffffffffffffffffffffffffffff\n      and\n      0xa523e521ea00545229e9e3f967a022ffb0be374bcd9009e2ad50432c5a5e5259\n        /* \"AulaRecife/3modulo/Desafio/Cliente.sol\":3105:3110  valor */\n      dup5\n        /* \"AulaRecife/3modulo/Desafio/Cliente.sol\":3085:3111  SaqueDoOwner(owner, valor) */\n      mload(0x40)\n      tag_74\n      swap2\n      swap1\n      tag_16\n      jump\t// in\n    tag_74:\n      mload(0x40)\n      dup1\n      swap2\n      sub\n      swap1\n      log2\n        /* \"AulaRecife/3modulo/Desafio/Cliente.sol\":2281:3119  { // Apenas o owner do Cliente pode sacar do pool... */\n      pop\n      pop\n        /* \"AulaRecife/3modulo/Desafio/Cliente.sol\":2232:3119  function sacar(uint256 valor) external onlyOwner { // Apenas o owner do Cliente pode sacar do pool... */\n      pop\n      jump\t// out\n        /* \"AulaRecife/3modulo/Desafio/Cliente.sol\":153:173  address public owner */\n    tag_24:\n      0x01\n      0x00\n      swap1\n      sload\n      swap1\n      0x0100\n      exp\n      swap1\n      div\n      0xffffffffffffffffffffffffffffffffffffffff\n      and\n      dup2\n      jump\t// out\n        /* \"AulaRecife/3modulo/Desafio/Cliente.sol\":118:146  address public cofreEndereco */\n    tag_29:\n      0x00\n      0x00\n      swap1\n      sload\n      swap1\n      0x0100\n      exp\n      swap1\n      div\n      0xffffffffffffffffffffffffffffffffffffffff\n      and\n      dup2\n      jump\t// out\n        /* \"#utility.yul\":7:84   */\n    tag_75:\n        /* \"#utility.yul\":44:51   */\n      0x00\n        /* \"#utility.yul\":73:78   */\n      dup2\n        /* \"#utility.yul\":62:78   */\n      swap1\n      pop\n        /* \"#utility.yul\":7:84   */\n      swap2\n      swap1\n      pop\n      jump\t// out\n        /* \"#utility.yul\":90:208   */\n    tag_76:\n        /* \"#utility.yul\":177:201   */\n      tag_103\n        /* \"#utility.yul\":195:200   */\n      dup2\n        /* \"#utility.yul\":177:201   */\n      tag_75\n      jump\t// in\n    tag_103:\n        /* \"#utility.yul\":172:175   */\n      dup3\n        /* \"#utility.yul\":165:202   */\n      mstore\n        /* \"#utility.yul\":90:208   */\n      pop\n      pop\n      jump\t// out\n        /* \"#utility.yul\":214:436   */\n    tag_16:\n        /* \"#utility.yul\":307:311   */\n      0x00\n        /* \"#utility.yul\":345:347   */\n      0x20\n        /* \"#utility.yul\":334:343   */\n      dup3\n        /* \"#utility.yul\":330:348   */\n      add\n        /* \"#utility.yul\":322:348   */\n      swap1\n      pop\n        /* \"#utility.yul\":358:429   */\n      tag_105\n        /* \"#utility.yul\":426:427   */\n      0x00\n        /* \"#utility.yul\":415:424   */\n      dup4\n        /* \"#utility.yul\":411:428   */\n      add\n        /* \"#utility.yul\":402:408   */\n      dup5\n        /* \"#utility.yul\":358:429   */\n      tag_76\n      jump\t// in\n    tag_105:\n        /* \"#utility.yul\":214:436   */\n      swap3\n      swap2\n      pop\n      pop\n      jump\t// out\n        /* \"#utility.yul\":523:640   */\n    tag_78:\n        /* \"#utility.yul\":632:633   */\n      0x00\n        /* \"#utility.yul\":629:630   */\n      0x00\n        /* \"#utility.yul\":622:634   */\n      revert\n        /* \"#utility.yul\":769:891   */\n    tag_80:\n        /* \"#utility.yul\":842:866   */\n      tag_110\n        /* \"#utility.yul\":860:865   */\n      dup2\n        /* \"#utility.yul\":842:866   */\n      tag_75\n      jump\t// in\n    tag_110:\n        /* \"#utility.yul\":835:840   */\n      dup2\n        /* \"#utility.yul\":832:867   */\n      eq\n        /* \"#utility.yul\":822:885   */\n      tag_111\n      jumpi\n        /* \"#utility.yul\":881:882   */\n      0x00\n        /* \"#utility.yul\":878:879   */\n      0x00\n        /* \"#utility.yul\":871:883   */\n      revert\n        /* \"#utility.yul\":822:885   */\n    tag_111:\n        /* \"#utility.yul\":769:891   */\n      pop\n      jump\t// out\n        /* \"#utility.yul\":897:1036   */\n    tag_81:\n        /* \"#utility.yul\":943:948   */\n      0x00\n        /* \"#utility.yul\":981:987   */\n      dup2\n        /* \"#utility.yul\":968:988   */\n      calldataload\n        /* \"#utility.yul\":959:988   */\n      swap1\n      pop\n        /* \"#utility.yul\":997:1030   */\n      tag_113\n        /* \"#utility.yul\":1024:1029   */\n      dup2\n        /* \"#utility.yul\":997:1030   */\n      tag_80\n      jump\t// in\n    tag_113:\n        /* \"#utility.yul\":897:1036   */\n      swap3\n      swap2\n      pop\n      pop\n      jump\t// out\n        /* \"#utility.yul\":1042:1371   */\n    tag_20:\n        /* \"#utility.yul\":1101:1107   */\n      0x00\n        /* \"#utility.yul\":1150:1152   */\n      0x20\n        /* \"#utility.yul\":1138:1147   */\n      dup3\n        /* \"#utility.yul\":1129:1136   */\n      dup5\n        /* \"#utility.yul\":1125:1148   */\n      sub\n        /* \"#utility.yul\":1121:1153   */\n      slt\n        /* \"#utility.yul\":1118:1237   */\n      iszero\n      tag_115\n      jumpi\n        /* \"#utility.yul\":1156:1235   */\n      tag_116\n      tag_78\n      jump\t// in\n    tag_116:\n        /* \"#utility.yul\":1118:1237   */\n    tag_115:\n        /* \"#utility.yul\":1276:1277   */\n      0x00\n        /* \"#utility.yul\":1301:1354   */\n      tag_117\n        /* \"#utility.yul\":1346:1353   */\n      dup5\n        /* \"#utility.yul\":1337:1343   */\n      dup3\n        /* \"#utility.yul\":1326:1335   */\n      dup6\n        /* \"#utility.yul\":1322:1344   */\n      add\n        /* \"#utility.yul\":1301:1354   */\n      tag_81\n      jump\t// in\n    tag_117:\n        /* \"#utility.yul\":1291:1354   */\n      swap2\n      pop\n        /* \"#utility.yul\":1247:1364   */\n      pop\n        /* \"#utility.yul\":1042:1371   */\n      swap3\n      swap2\n      pop\n      pop\n      jump\t// out\n        /* \"#utility.yul\":1377:1503   */\n    tag_82:\n        /* \"#utility.yul\":1414:1421   */\n      0x00\n        /* \"#utility.yul\":1454:1496   */\n      0xffffffffffffffffffffffffffffffffffffffff\n        /* \"#utility.yul\":1447:1452   */\n      dup3\n        /* \"#utility.yul\":1443:1497   */\n      and\n        /* \"#utility.yul\":1432:1497   */\n      swap1\n      pop\n        /* \"#utility.yul\":1377:1503   */\n      swap2\n      swap1\n      pop\n      jump\t// out\n        /* \"#utility.yul\":1509:1605   */\n    tag_83:\n        /* \"#utility.yul\":1546:1553   */\n      0x00\n        /* \"#utility.yul\":1575:1599   */\n      tag_120\n        /* \"#utility.yul\":1593:1598   */\n      dup3\n        /* \"#utility.yul\":1575:1599   */\n      tag_82\n      jump\t// in\n    tag_120:\n        /* \"#utility.yul\":1564:1599   */\n      swap1\n      pop\n        /* \"#utility.yul\":1509:1605   */\n      swap2\n      swap1\n      pop\n      jump\t// out\n        /* \"#utility.yul\":1611:1729   */\n    tag_84:\n        /* \"#utility.yul\":1698:1722   */\n      tag_122\n        /* \"#utility.yul\":1716:1721   */\n      dup2\n        /* \"#utility.yul\":1698:1722   */\n      tag_83\n      jump\t// in\n    tag_122:\n        /* \"#utility.yul\":1693:1696   */\n      dup3\n        /* \"#utility.yul\":1686:1723   */\n      mstore\n        /* \"#utility.yul\":1611:1729   */\n      pop\n      pop\n      jump\t// out\n        /* \"#utility.yul\":1735:1957   */\n    tag_26:\n        /* \"#utility.yul\":1828:1832   */\n      0x00\n        /* \"#utility.yul\":1866:1868   */\n      0x20\n        /* \"#utility.yul\":1855:1864   */\n      dup3\n        /* \"#utility.yul\":1851:1869   */\n      add\n        /* \"#utility.yul\":1843:1869   */\n      swap1\n      pop\n        /* \"#utility.yul\":1879:1950   */\n      tag_124\n        /* \"#utility.yul\":1947:1948   */\n      0x00\n        /* \"#utility.yul\":1936:1945   */\n      dup4\n        /* \"#utility.yul\":1932:1949   */\n      add\n        /* \"#utility.yul\":1923:1929   */\n      dup5\n        /* \"#utility.yul\":1879:1950   */\n      tag_84\n      jump\t// in\n    tag_124:\n        /* \"#utility.yul\":1735:1957   */\n      swap3\n      swap2\n      pop\n      pop\n      jump\t// out\n        /* \"#utility.yul\":1963:2132   */\n    tag_85:\n        /* \"#utility.yul\":2047:2058   */\n      0x00\n        /* \"#utility.yul\":2081:2087   */\n      dup3\n        /* \"#utility.yul\":2076:2079   */\n      dup3\n        /* \"#utility.yul\":2069:2088   */\n      mstore\n        /* \"#utility.yul\":2121:2125   */\n      0x20\n        /* \"#utility.yul\":2116:2119   */\n      dup3\n        /* \"#utility.yul\":2112:2126   */\n      add\n        /* \"#utility.yul\":2097:2126   */\n      swap1\n      pop\n        /* \"#utility.yul\":1963:2132   */\n      swap3\n      swap2\n      pop\n      pop\n      jump\t// out\n        /* \"#utility.yul\":2138:2382   */\n    tag_86:\n        /* \"#utility.yul\":2278:2312   */\n      0x4f6e6c79206f776e6572206f66207468697320636c69656e7420636f6e747261\n        /* \"#utility.yul\":2274:2275   */\n      0x00\n        /* \"#utility.yul\":2266:2272   */\n      dup3\n        /* \"#utility.yul\":2262:2276   */\n      add\n        /* \"#utility.yul\":2255:2313   */\n      mstore\n        /* \"#utility.yul\":2347:2374   */\n      0x63742063616e2063616c6c20746869732066756e6374696f6e00000000000000\n        /* \"#utility.yul\":2342:2344   */\n      0x20\n        /* \"#utility.yul\":2334:2340   */\n      dup3\n        /* \"#utility.yul\":2330:2345   */\n      add\n        /* \"#utility.yul\":2323:2375   */\n      mstore\n        /* \"#utility.yul\":2138:2382   */\n      pop\n      jump\t// out\n        /* \"#utility.yul\":2388:2754   */\n    tag_87:\n        /* \"#utility.yul\":2530:2533   */\n      0x00\n        /* \"#utility.yul\":2551:2618   */\n      tag_128\n        /* \"#utility.yul\":2615:2617   */\n      0x39\n        /* \"#utility.yul\":2610:2613   */\n      dup4\n        /* \"#utility.yul\":2551:2618   */\n      tag_85\n      jump\t// in\n    tag_128:\n        /* \"#utility.yul\":2544:2618   */\n      swap2\n      pop\n        /* \"#utility.yul\":2627:2720   */\n      tag_129\n        /* \"#utility.yul\":2716:2719   */\n      dup3\n        /* \"#utility.yul\":2627:2720   */\n      tag_86\n      jump\t// in\n    tag_129:\n        /* \"#utility.yul\":2745:2747   */\n      0x40\n        /* \"#utility.yul\":2740:2743   */\n      dup3\n        /* \"#utility.yul\":2736:2748   */\n      add\n        /* \"#utility.yul\":2729:2748   */\n      swap1\n      pop\n        /* \"#utility.yul\":2388:2754   */\n      swap2\n      swap1\n      pop\n      jump\t// out\n        /* \"#utility.yul\":2760:3179   */\n    tag_34:\n        /* \"#utility.yul\":2926:2930   */\n      0x00\n        /* \"#utility.yul\":2964:2966   */\n      0x20\n        /* \"#utility.yul\":2953:2962   */\n      dup3\n        /* \"#utility.yul\":2949:2967   */\n      add\n        /* \"#utility.yul\":2941:2967   */\n      swap1\n      pop\n        /* \"#utility.yul\":3013:3022   */\n      dup2\n        /* \"#utility.yul\":3007:3011   */\n      dup2\n        /* \"#utility.yul\":3003:3023   */\n      sub\n        /* \"#utility.yul\":2999:3000   */\n      0x00\n        /* \"#utility.yul\":2988:2997   */\n      dup4\n        /* \"#utility.yul\":2984:3001   */\n      add\n        /* \"#utility.yul\":2977:3024   */\n      mstore\n        /* \"#utility.yul\":3041:3172   */\n      tag_131\n        /* \"#utility.yul\":3167:3171   */\n      dup2\n        /* \"#utility.yul\":3041:3172   */\n      tag_87\n      jump\t// in\n    tag_131:\n        /* \"#utility.yul\":3033:3172   */\n      swap1\n      pop\n        /* \"#utility.yul\":2760:3179   */\n      swap2\n      swap1\n      pop\n      jump\t// out\n        /* \"#utility.yul\":3185:3361   */\n    tag_88:\n        /* \"#utility.yul\":3325:3353   */\n      0x5072656369736120656e7669617220616c67756d204574686572000000000000\n        /* \"#utility.yul\":3321:3322   */\n      0x00\n        /* \"#utility.yul\":3313:3319   */\n      dup3\n        /* \"#utility.yul\":3309:3323   */\n      add\n        /* \"#utility.yul\":3302:3354   */\n      mstore\n        /* \"#utility.yul\":3185:3361   */\n      pop\n      jump\t// out\n        /* \"#utility.yul\":3367:3733   */\n    tag_89:\n        /* \"#utility.yul\":3509:3512   */\n      0x00\n        /* \"#utility.yul\":3530:3597   */\n      tag_134\n        /* \"#utility.yul\":3594:3596   */\n      0x1a\n        /* \"#utility.yul\":3589:3592   */\n      dup4\n        /* \"#utility.yul\":3530:3597   */\n      tag_85\n      jump\t// in\n    tag_134:\n        /* \"#utility.yul\":3523:3597   */\n      swap2\n      pop\n        /* \"#utility.yul\":3606:3699   */\n      tag_135\n        /* \"#utility.yul\":3695:3698   */\n      dup3\n        /* \"#utility.yul\":3606:3699   */\n      tag_88\n      jump\t// in\n    tag_135:\n        /* \"#utility.yul\":3724:3726   */\n      0x20\n        /* \"#utility.yul\":3719:3722   */\n      dup3\n        /* \"#utility.yul\":3715:3727   */\n      add\n        /* \"#utility.yul\":3708:3727   */\n      swap1\n      pop\n        /* \"#utility.yul\":3367:3733   */\n      swap2\n      swap1\n      pop\n      jump\t// out\n        /* \"#utility.yul\":3739:4158   */\n    tag_38:\n        /* \"#utility.yul\":3905:3909   */\n      0x00\n        /* \"#utility.yul\":3943:3945   */\n      0x20\n        /* \"#utility.yul\":3932:3941   */\n      dup3\n        /* \"#utility.yul\":3928:3946   */\n      add\n        /* \"#utility.yul\":3920:3946   */\n      swap1\n      pop\n        /* \"#utility.yul\":3992:4001   */\n      dup2\n        /* \"#utility.yul\":3986:3990   */\n      dup2\n        /* \"#utility.yul\":3982:4002   */\n      sub\n        /* \"#utility.yul\":3978:3979   */\n      0x00\n        /* \"#utility.yul\":3967:3976   */\n      dup4\n        /* \"#utility.yul\":3963:3980   */\n      add\n        /* \"#utility.yul\":3956:4003   */\n      mstore\n        /* \"#utility.yul\":4020:4151   */\n      tag_137\n        /* \"#utility.yul\":4146:4150   */\n      dup2\n        /* \"#utility.yul\":4020:4151   */\n      tag_89\n      jump\t// in\n    tag_137:\n        /* \"#utility.yul\":4012:4151   */\n      swap1\n      pop\n        /* \"#utility.yul\":3739:4158   */\n      swap2\n      swap1\n      pop\n      jump\t// out\n        /* \"#utility.yul\":4164:4307   */\n    tag_90:\n        /* \"#utility.yul\":4221:4226   */\n      0x00\n        /* \"#utility.yul\":4252:4258   */\n      dup2\n        /* \"#utility.yul\":4246:4259   */\n      mload\n        /* \"#utility.yul\":4237:4259   */\n      swap1\n      pop\n        /* \"#utility.yul\":4268:4301   */\n      tag_139\n        /* \"#utility.yul\":4295:4300   */\n      dup2\n        /* \"#utility.yul\":4268:4301   */\n      tag_80\n      jump\t// in\n    tag_139:\n        /* \"#utility.yul\":4164:4307   */\n      swap3\n      swap2\n      pop\n      pop\n      jump\t// out\n        /* \"#utility.yul\":4313:4664   */\n    tag_51:\n        /* \"#utility.yul\":4383:4389   */\n      0x00\n        /* \"#utility.yul\":4432:4434   */\n      0x20\n        /* \"#utility.yul\":4420:4429   */\n      dup3\n        /* \"#utility.yul\":4411:4418   */\n      dup5\n        /* \"#utility.yul\":4407:4430   */\n      sub\n        /* \"#utility.yul\":4403:4435   */\n      slt\n        /* \"#utility.yul\":4400:4519   */\n      iszero\n      tag_141\n      jumpi\n        /* \"#utility.yul\":4438:4517   */\n      tag_142\n      tag_78\n      jump\t// in\n    tag_142:\n        /* \"#utility.yul\":4400:4519   */\n    tag_141:\n        /* \"#utility.yul\":4558:4559   */\n      0x00\n        /* \"#utility.yul\":4583:4647   */\n      tag_143\n        /* \"#utility.yul\":4639:4646   */\n      dup5\n        /* \"#utility.yul\":4630:4636   */\n      dup3\n        /* \"#utility.yul\":4619:4628   */\n      dup6\n        /* \"#utility.yul\":4615:4637   */\n      add\n        /* \"#utility.yul\":4583:4647   */\n      tag_90\n      jump\t// in\n    tag_143:\n        /* \"#utility.yul\":4573:4647   */\n      swap2\n      pop\n        /* \"#utility.yul\":4529:4657   */\n      pop\n        /* \"#utility.yul\":4313:4664   */\n      swap3\n      swap2\n      pop\n      pop\n      jump\t// out\n        /* \"#utility.yul\":4670:4895   */\n    tag_91:\n        /* \"#utility.yul\":4810:4844   */\n      0x56616c6f7220646f207361717565206465766520736572206d61696f72207175\n        /* \"#utility.yul\":4806:4807   */\n      0x00\n        /* \"#utility.yul\":4798:4804   */\n      dup3\n        /* \"#utility.yul\":4794:4808   */\n      add\n        /* \"#utility.yul\":4787:4845   */\n      mstore\n        /* \"#utility.yul\":4879:4887   */\n      0x65207a65726f0000000000000000000000000000000000000000000000000000\n        /* \"#utility.yul\":4874:4876   */\n      0x20\n        /* \"#utility.yul\":4866:4872   */\n      dup3\n        /* \"#utility.yul\":4862:4877   */\n      add\n        /* \"#utility.yul\":4855:4888   */\n      mstore\n        /* \"#utility.yul\":4670:4895   */\n      pop\n      jump\t// out\n        /* \"#utility.yul\":4901:5267   */\n    tag_92:\n        /* \"#utility.yul\":5043:5046   */\n      0x00\n        /* \"#utility.yul\":5064:5131   */\n      tag_146\n        /* \"#utility.yul\":5128:5130   */\n      0x26\n        /* \"#utility.yul\":5123:5126   */\n      dup4\n        /* \"#utility.yul\":5064:5131   */\n      tag_85\n      jump\t// in\n    tag_146:\n        /* \"#utility.yul\":5057:5131   */\n      swap2\n      pop\n        /* \"#utility.yul\":5140:5233   */\n      tag_147\n        /* \"#utility.yul\":5229:5232   */\n      dup3\n        /* \"#utility.yul\":5140:5233   */\n      tag_91\n      jump\t// in\n    tag_147:\n        /* \"#utility.yul\":5258:5260   */\n      0x40\n        /* \"#utility.yul\":5253:5256   */\n      dup3\n        /* \"#utility.yul\":5249:5261   */\n      add\n        /* \"#utility.yul\":5242:5261   */\n      swap1\n      pop\n        /* \"#utility.yul\":4901:5267   */\n      swap2\n      swap1\n      pop\n      jump\t// out\n        /* \"#utility.yul\":5273:5692   */\n    tag_58:\n        /* \"#utility.yul\":5439:5443   */\n      0x00\n        /* \"#utility.yul\":5477:5479   */\n      0x20\n        /* \"#utility.yul\":5466:5475   */\n      dup3\n        /* \"#utility.yul\":5462:5480   */\n      add\n        /* \"#utility.yul\":5454:5480   */\n      swap1\n      pop\n        /* \"#utility.yul\":5526:5535   */\n      dup2\n        /* \"#utility.yul\":5520:5524   */\n      dup2\n        /* \"#utility.yul\":5516:5536   */\n      sub\n        /* \"#utility.yul\":5512:5513   */\n      0x00\n        /* \"#utility.yul\":5501:5510   */\n      dup4\n        /* \"#utility.yul\":5497:5514   */\n      add\n        /* \"#utility.yul\":5490:5537   */\n      mstore\n        /* \"#utility.yul\":5554:5685   */\n      tag_149\n        /* \"#utility.yul\":5680:5684   */\n      dup2\n        /* \"#utility.yul\":5554:5685   */\n      tag_92\n      jump\t// in\n    tag_149:\n        /* \"#utility.yul\":5546:5685   */\n      swap1\n      pop\n        /* \"#utility.yul\":5273:5692   */\n      swap2\n      swap1\n      pop\n      jump\t// out\n        /* \"#utility.yul\":5698:5940   */\n    tag_93:\n        /* \"#utility.yul\":5838:5872   */\n      0x436c69656e7465206e616f2074656d20457468657220737566696369656e7465\n        /* \"#utility.yul\":5834:5835   */\n      0x00\n        /* \"#utility.yul\":5826:5832   */\n      dup3\n        /* \"#utility.yul\":5822:5836   */\n      add\n        /* \"#utility.yul\":5815:5873   */\n      mstore\n        /* \"#utility.yul\":5907:5932   */\n      0x207061726120726570617373617220646f20436f667265000000000000000000\n        /* \"#utility.yul\":5902:5904   */\n      0x20\n        /* \"#utility.yul\":5894:5900   */\n      dup3\n        /* \"#utility.yul\":5890:5905   */\n      add\n        /* \"#utility.yul\":5883:5933   */\n      mstore\n        /* \"#utility.yul\":5698:5940   */\n      pop\n      jump\t// out\n        /* \"#utility.yul\":5946:6312   */\n    tag_94:\n        /* \"#utility.yul\":6088:6091   */\n      0x00\n        /* \"#utility.yul\":6109:6176   */\n      tag_152\n        /* \"#utility.yul\":6173:6175   */\n      0x37\n        /* \"#utility.yul\":6168:6171   */\n      dup4\n        /* \"#utility.yul\":6109:6176   */\n      tag_85\n      jump\t// in\n    tag_152:\n        /* \"#utility.yul\":6102:6176   */\n      swap2\n      pop\n        /* \"#utility.yul\":6185:6278   */\n      tag_153\n        /* \"#utility.yul\":6274:6277   */\n      dup3\n        /* \"#utility.yul\":6185:6278   */\n      tag_93\n      jump\t// in\n    tag_153:\n        /* \"#utility.yul\":6303:6305   */\n      0x40\n        /* \"#utility.yul\":6298:6301   */\n      dup3\n        /* \"#utility.yul\":6294:6306   */\n      add\n        /* \"#utility.yul\":6287:6306   */\n      swap1\n      pop\n        /* \"#utility.yul\":5946:6312   */\n      swap2\n      swap1\n      pop\n      jump\t// out\n        /* \"#utility.yul\":6318:6737   */\n    tag_65:\n        /* \"#utility.yul\":6484:6488   */\n      0x00\n        /* \"#utility.yul\":6522:6524   */\n      0x20\n        /* \"#utility.yul\":6511:6520   */\n      dup3\n        /* \"#utility.yul\":6507:6525   */\n      add\n        /* \"#utility.yul\":6499:6525   */\n      swap1\n      pop\n        /* \"#utility.yul\":6571:6580   */\n      dup2\n        /* \"#utility.yul\":6565:6569   */\n      dup2\n        /* \"#utility.yul\":6561:6581   */\n      sub\n        /* \"#utility.yul\":6557:6558   */\n      0x00\n        /* \"#utility.yul\":6546:6555   */\n      dup4\n        /* \"#utility.yul\":6542:6559   */\n      add\n        /* \"#utility.yul\":6535:6582   */\n      mstore\n        /* \"#utility.yul\":6599:6730   */\n      tag_155\n        /* \"#utility.yul\":6725:6729   */\n      dup2\n        /* \"#utility.yul\":6599:6730   */\n      tag_94\n      jump\t// in\n    tag_155:\n        /* \"#utility.yul\":6591:6730   */\n      swap1\n      pop\n        /* \"#utility.yul\":6318:6737   */\n      swap2\n      swap1\n      pop\n      jump\t// out\n        /* \"#utility.yul\":6743:6890   */\n    tag_95:\n        /* \"#utility.yul\":6844:6855   */\n      0x00\n        /* \"#utility.yul\":6881:6884   */\n      dup2\n        /* \"#utility.yul\":6866:6884   */\n      swap1\n      pop\n        /* \"#utility.yul\":6743:6890   */\n      swap3\n      swap2\n      pop\n      pop\n      jump\t// out\n        /* \"#utility.yul\":6896:7010   */\n    tag_96:\n      pop\n      jump\t// out\n        /* \"#utility.yul\":7016:7414   */\n    tag_97:\n        /* \"#utility.yul\":7175:7178   */\n      0x00\n        /* \"#utility.yul\":7196:7279   */\n      tag_159\n        /* \"#utility.yul\":7277:7278   */\n      0x00\n        /* \"#utility.yul\":7272:7275   */\n      dup4\n        /* \"#utility.yul\":7196:7279   */\n      tag_95\n      jump\t// in\n    tag_159:\n        /* \"#utility.yul\":7189:7279   */\n      swap2\n      pop\n        /* \"#utility.yul\":7288:7381   */\n      tag_160\n        /* \"#utility.yul\":7377:7380   */\n      dup3\n        /* \"#utility.yul\":7288:7381   */\n      tag_96\n      jump\t// in\n    tag_160:\n        /* \"#utility.yul\":7406:7407   */\n      0x00\n        /* \"#utility.yul\":7401:7404   */\n      dup3\n        /* \"#utility.yul\":7397:7408   */\n      add\n        /* \"#utility.yul\":7390:7408   */\n      swap1\n      pop\n        /* \"#utility.yul\":7016:7414   */\n      swap2\n      swap1\n      pop\n      jump\t// out\n        /* \"#utility.yul\":7420:7799   */\n    tag_67:\n        /* \"#utility.yul\":7604:7607   */\n      0x00\n        /* \"#utility.yul\":7626:7773   */\n      tag_162\n        /* \"#utility.yul\":7769:7772   */\n      dup3\n        /* \"#utility.yul\":7626:7773   */\n      tag_97\n      jump\t// in\n    tag_162:\n        /* \"#utility.yul\":7619:7773   */\n      swap2\n      pop\n        /* \"#utility.yul\":7790:7793   */\n      dup2\n        /* \"#utility.yul\":7783:7793   */\n      swap1\n      pop\n        /* \"#utility.yul\":7420:7799   */\n      swap2\n      swap1\n      pop\n      jump\t// out\n        /* \"#utility.yul\":7805:8031   */\n    tag_98:\n        /* \"#utility.yul\":7945:7979   */\n      0x5265706173736520646f20436c69656e74652070617261206f206f776e657220\n        /* \"#utility.yul\":7941:7942   */\n      0x00\n        /* \"#utility.yul\":7933:7939   */\n      dup3\n        /* \"#utility.yul\":7929:7943   */\n      add\n        /* \"#utility.yul\":7922:7980   */\n      mstore\n        /* \"#utility.yul\":8014:8023   */\n      0x66616c686f752100000000000000000000000000000000000000000000000000\n        /* \"#utility.yul\":8009:8011   */\n      0x20\n        /* \"#utility.yul\":8001:8007   */\n      dup3\n        /* \"#utility.yul\":7997:8012   */\n      add\n        /* \"#utility.yul\":7990:8024   */\n      mstore\n        /* \"#utility.yul\":7805:8031   */\n      pop\n      jump\t// out\n        /* \"#utility.yul\":8037:8403   */\n    tag_99:\n        /* \"#utility.yul\":8179:8182   */\n      0x00\n        /* \"#utility.yul\":8200:8267   */\n      tag_165\n        /* \"#utility.yul\":8264:8266   */\n      0x27\n        /* \"#utility.yul\":8259:8262   */\n      dup4\n        /* \"#utility.yul\":8200:8267   */\n      tag_85\n      jump\t// in\n    tag_165:\n        /* \"#utility.yul\":8193:8267   */\n      swap2\n      pop\n        /* \"#utility.yul\":8276:8369   */\n      tag_166\n        /* \"#utility.yul\":8365:8368   */\n      dup3\n        /* \"#utility.yul\":8276:8369   */\n      tag_98\n      jump\t// in\n    tag_166:\n        /* \"#utility.yul\":8394:8396   */\n      0x40\n        /* \"#utility.yul\":8389:8392   */\n      dup3\n        /* \"#utility.yul\":8385:8397   */\n      add\n        /* \"#utility.yul\":8378:8397   */\n      swap1\n      pop\n        /* \"#utility.yul\":8037:8403   */\n      swap2\n      swap1\n      pop\n      jump\t// out\n        /* \"#utility.yul\":8409:8828   */\n    tag_73:\n        /* \"#utility.yul\":8575:8579   */\n      0x00\n        /* \"#utility.yul\":8613:8615   */\n      0x20\n        /* \"#utility.yul\":8602:8611   */\n      dup3\n        /* \"#utility.yul\":8598:8616   */\n      add\n        /* \"#utility.yul\":8590:8616   */\n      swap1\n      pop\n        /* \"#utility.yul\":8662:8671   */\n      dup2\n        /* \"#utility.yul\":8656:8660   */\n      dup2\n        /* \"#utility.yul\":8652:8672   */\n      sub\n        /* \"#utility.yul\":8648:8649   */\n      0x00\n        /* \"#utility.yul\":8637:8646   */\n      dup4\n        /* \"#utility.yul\":8633:8650   */\n      add\n        /* \"#utility.yul\":8626:8673   */\n      mstore\n        /* \"#utility.yul\":8690:8821   */\n      tag_168\n        /* \"#utility.yul\":8816:8820   */\n      dup2\n        /* \"#utility.yul\":8690:8821   */\n      tag_99\n      jump\t// in\n    tag_168:\n        /* \"#utility.yul\":8682:8821   */\n      swap1\n      pop\n        /* \"#utility.yul\":8409:8828   */\n      swap2\n      swap1\n      pop\n      jump\t// out\n\n    auxdata: 0xa26469706673582212209394d256b37ee7c861576fca63f4933b79b6bf758e28f58122b8288882c3bb6e64736f6c634300081e0033\n}\n",
				"bytecode": {
					"linkReferences": {},
					"object": "608060405234801561000f575f5ffd5b50604051610d97380380610d9783398181016040528101906100319190610182565b5f73ffffffffffffffffffffffffffffffffffffffff168173ffffffffffffffffffffffffffffffffffffffff160361009f576040517f08c379a00000000000000000000000000000000000000000000000000000000081526004016100969061022d565b60405180910390fd5b805f5f6101000a81548173ffffffffffffffffffffffffffffffffffffffff021916908373ffffffffffffffffffffffffffffffffffffffff1602179055503360015f6101000a81548173ffffffffffffffffffffffffffffffffffffffff021916908373ffffffffffffffffffffffffffffffffffffffff1602179055505061024b565b5f5ffd5b5f73ffffffffffffffffffffffffffffffffffffffff82169050919050565b5f61015182610128565b9050919050565b61016181610147565b811461016b575f5ffd5b50565b5f8151905061017c81610158565b92915050565b5f6020828403121561019757610196610124565b5b5f6101a48482850161016e565b91505092915050565b5f82825260208201905092915050565b7f456e64657265636f20646f20436f667265206e616f20706f646520736572207a5f8201527f65726f0000000000000000000000000000000000000000000000000000000000602082015250565b5f6102176023836101ad565b9150610222826101bd565b604082019050919050565b5f6020820190508181035f8301526102448161020b565b9050919050565b610b3f806102585f395ff3fe60806040526004361061004d575f3560e01c80633d922f9014610058578063426ee8cf146100625780637371b0d61461008c5780638da5cb5b146100b4578063fd6b81da146100de57610054565b3661005457005b5f5ffd5b610060610108565b005b34801561006d575f5ffd5b506100766102a6565b604051610083919061070f565b60405180910390f35b348015610097575f5ffd5b506100b260048036038101906100ad9190610756565b6103d3565b005b3480156100bf575f5ffd5b506100c86106ae565b6040516100d591906107c0565b60405180910390f35b3480156100e9575f5ffd5b506100f26106d3565b6040516100ff91906107c0565b60405180910390f35b60015f9054906101000a900473ffffffffffffffffffffffffffffffffffffffff1673ffffffffffffffffffffffffffffffffffffffff163373ffffffffffffffffffffffffffffffffffffffff1614610197576040517f08c379a000000000000000000000000000000000000000000000000000000000815260040161018e90610859565b60405180910390fd5b5f34116101d9576040517f08c379a00000000000000000000000000000000000000000000000000000000081526004016101d0906108c1565b60405180910390fd5b5f5f9054906101000a900473ffffffffffffffffffffffffffffffffffffffff1673ffffffffffffffffffffffffffffffffffffffff16633d922f90346040518263ffffffff1660e01b81526004015f604051808303818588803b15801561023f575f5ffd5b505af1158015610251573d5f5f3e3d5ffd5b50505050503373ffffffffffffffffffffffffffffffffffffffff167fa88377ec48ddb8362c554cf1ff840dfad21fa997ea01f734207b8b6ef96ae2483460405161029c919061070f565b60405180910390a2565b5f60015f9054906101000a900473ffffffffffffffffffffffffffffffffffffffff1673ffffffffffffffffffffffffffffffffffffffff163373ffffffffffffffffffffffffffffffffffffffff1614610336576040517f08c379a000000000000000000000000000000000000000000000000000000000815260040161032d90610859565b60405180910390fd5b5f5f9054906101000a900473ffffffffffffffffffffffffffffffffffffffff1673ffffffffffffffffffffffffffffffffffffffff1663218895e3306040518263ffffffff1660e01b815260040161038f91906107c0565b602060405180830381865afa1580156103aa573d5f5f3e3d5ffd5b505050506040513d601f19601f820116820180604052508101906103ce91906108f3565b905090565b60015f9054906101000a900473ffffffffffffffffffffffffffffffffffffffff1673ffffffffffffffffffffffffffffffffffffffff163373ffffffffffffffffffffffffffffffffffffffff1614610462576040517f08c379a000000000000000000000000000000000000000000000000000000000815260040161045990610859565b60405180910390fd5b5f81116104a4576040517f08c379a000000000000000000000000000000000000000000000000000000000815260040161049b9061098e565b60405180910390fd5b5f5f5f9054906101000a900473ffffffffffffffffffffffffffffffffffffffff1690508073ffffffffffffffffffffffffffffffffffffffff16637371b0d6836040518263ffffffff1660e01b8152600401610501919061070f565b5f604051808303815f87803b158015610518575f5ffd5b505af115801561052a573d5f5f3e3d5ffd5b5050505081471015610571576040517f08c379a000000000000000000000000000000000000000000000000000000000815260040161056890610a1c565b60405180910390fd5b5f60015f9054906101000a900473ffffffffffffffffffffffffffffffffffffffff1673ffffffffffffffffffffffffffffffffffffffff16836040516105b790610a67565b5f6040518083038185875af1925050503d805f81146105f1576040519150601f19603f3d011682016040523d82523d5f602084013e6105f6565b606091505b505090508061063a576040517f08c379a000000000000000000000000000000000000000000000000000000000815260040161063190610aeb565b60405180910390fd5b60015f9054906101000a900473ffffffffffffffffffffffffffffffffffffffff1673ffffffffffffffffffffffffffffffffffffffff167fa523e521ea00545229e9e3f967a022ffb0be374bcd9009e2ad50432c5a5e5259846040516106a1919061070f565b60405180910390a2505050565b60015f9054906101000a900473ffffffffffffffffffffffffffffffffffffffff1681565b5f5f9054906101000a900473ffffffffffffffffffffffffffffffffffffffff1681565b5f819050919050565b610709816106f7565b82525050565b5f6020820190506107225f830184610700565b92915050565b5f5ffd5b610735816106f7565b811461073f575f5ffd5b50565b5f813590506107508161072c565b92915050565b5f6020828403121561076b5761076a610728565b5b5f61077884828501610742565b91505092915050565b5f73ffffffffffffffffffffffffffffffffffffffff82169050919050565b5f6107aa82610781565b9050919050565b6107ba816107a0565b82525050565b5f6020820190506107d35f8301846107b1565b92915050565b5f82825260208201905092915050565b7f4f6e6c79206f776e6572206f66207468697320636c69656e7420636f6e7472615f8201527f63742063616e2063616c6c20746869732066756e6374696f6e00000000000000602082015250565b5f6108436039836107d9565b915061084e826107e9565b604082019050919050565b5f6020820190508181035f83015261087081610837565b9050919050565b7f5072656369736120656e7669617220616c67756d2045746865720000000000005f82015250565b5f6108ab601a836107d9565b91506108b682610877565b602082019050919050565b5f6020820190508181035f8301526108d88161089f565b9050919050565b5f815190506108ed8161072c565b92915050565b5f6020828403121561090857610907610728565b5b5f610915848285016108df565b91505092915050565b7f56616c6f7220646f207361717565206465766520736572206d61696f722071755f8201527f65207a65726f0000000000000000000000000000000000000000000000000000602082015250565b5f6109786026836107d9565b91506109838261091e565b604082019050919050565b5f6020820190508181035f8301526109a58161096c565b9050919050565b7f436c69656e7465206e616f2074656d20457468657220737566696369656e74655f8201527f207061726120726570617373617220646f20436f667265000000000000000000602082015250565b5f610a066037836107d9565b9150610a11826109ac565b604082019050919050565b5f6020820190508181035f830152610a33816109fa565b9050919050565b5f81905092915050565b50565b5f610a525f83610a3a565b9150610a5d82610a44565b5f82019050919050565b5f610a7182610a47565b9150819050919050565b7f5265706173736520646f20436c69656e74652070617261206f206f776e6572205f8201527f66616c686f752100000000000000000000000000000000000000000000000000602082015250565b5f610ad56027836107d9565b9150610ae082610a7b565b604082019050919050565b5f6020820190508181035f830152610b0281610ac9565b905091905056fea26469706673582212209394d256b37ee7c861576fca63f4933b79b6bf758e28f58122b8288882c3bb6e64736f6c634300081e0033",
					"opcodes": "PUSH1 0x80 PUSH1 0x40 MSTORE CALLVALUE DUP1 ISZERO PUSH2 0xF JUMPI PUSH0 PUSH0 REVERT JUMPDEST POP PUSH1 0x40 MLOAD PUSH2 0xD97 CODESIZE SUB DUP1 PUSH2 0xD97 DUP4 CODECOPY DUP2 DUP2 ADD PUSH1 0x40 MSTORE DUP2 ADD SWAP1 PUSH2 0x31 SWAP2 SWAP1 PUSH2 0x182 JUMP JUMPDEST PUSH0 PUSH20 0xFFFFFFFFFFFFFFFFFFFFFFFFFFFFFFFFFFFFFFFF AND DUP2 PUSH20 0xFFFFFFFFFFFFFFFFFFFFFFFFFFFFFFFFFFFFFFFF AND SUB PUSH2 0x9F JUMPI PUSH1 0x40 MLOAD PUSH32 0x8C379A000000000000000000000000000000000000000000000000000000000 DUP2 MSTORE PUSH1 0x4 ADD PUSH2 0x96 SWAP1 PUSH2 0x22D JUMP JUMPDEST PUSH1 0x40 MLOAD DUP1 SWAP2 SUB SWAP1 REVERT JUMPDEST DUP1 PUSH0 PUSH0 PUSH2 0x100 EXP DUP2 SLOAD DUP2 PUSH20 0xFFFFFFFFFFFFFFFFFFFFFFFFFFFFFFFFFFFFFFFF MUL NOT AND SWAP1 DUP4 PUSH20 0xFFFFFFFFFFFFFFFFFFFFFFFFFFFFFFFFFFFFFFFF AND MUL OR SWAP1 SSTORE POP CALLER PUSH1 0x1 PUSH0 PUSH2 0x100 EXP DUP2 SLOAD DUP2 PUSH20 0xFFFFFFFFFFFFFFFFFFFFFFFFFFFFFFFFFFFFFFFF MUL NOT AND SWAP1 DUP4 PUSH20 0xFFFFFFFFFFFFFFFFFFFFFFFFFFFFFFFFFFFFFFFF AND MUL OR SWAP1 SSTORE POP POP PUSH2 0x24B JUMP JUMPDEST PUSH0 PUSH0 REVERT JUMPDEST PUSH0 PUSH20 0xFFFFFFFFFFFFFFFFFFFFFFFFFFFFFFFFFFFFFFFF DUP3 AND SWAP1 POP SWAP2 SWAP1 POP JUMP JUMPDEST PUSH0 PUSH2 0x151 DUP3 PUSH2 0x128 JUMP JUMPDEST SWAP1 POP SWAP2 SWAP1 POP JUMP JUMPDEST PUSH2 0x161 DUP2 PUSH2 0x147 JUMP JUMPDEST DUP2 EQ PUSH2 0x16B JUMPI PUSH0 PUSH0 REVERT JUMPDEST POP JUMP JUMPDEST PUSH0 DUP2 MLOAD SWAP1 POP PUSH2 0x17C DUP2 PUSH2 0x158 JUMP JUMPDEST SWAP3 SWAP2 POP POP JUMP JUMPDEST PUSH0 PUSH1 0x20 DUP3 DUP5 SUB SLT ISZERO PUSH2 0x197 JUMPI PUSH2 0x196 PUSH2 0x124 JUMP JUMPDEST JUMPDEST PUSH0 PUSH2 0x1A4 DUP5 DUP3 DUP6 ADD PUSH2 0x16E JUMP JUMPDEST SWAP2 POP POP SWAP3 SWAP2 POP POP JUMP JUMPDEST PUSH0 DUP3 DUP3 MSTORE PUSH1 0x20 DUP3 ADD SWAP1 POP SWAP3 SWAP2 POP POP JUMP JUMPDEST PUSH32 0x456E64657265636F20646F20436F667265206E616F20706F646520736572207A PUSH0 DUP3 ADD MSTORE PUSH32 0x65726F0000000000000000000000000000000000000000000000000000000000 PUSH1 0x20 DUP3 ADD MSTORE POP JUMP JUMPDEST PUSH0 PUSH2 0x217 PUSH1 0x23 DUP4 PUSH2 0x1AD JUMP JUMPDEST SWAP2 POP PUSH2 0x222 DUP3 PUSH2 0x1BD JUMP JUMPDEST PUSH1 0x40 DUP3 ADD SWAP1 POP SWAP2 SWAP1 POP JUMP JUMPDEST PUSH0 PUSH1 0x20 DUP3 ADD SWAP1 POP DUP2 DUP2 SUB PUSH0 DUP4 ADD MSTORE PUSH2 0x244 DUP2 PUSH2 0x20B JUMP JUMPDEST SWAP1 POP SWAP2 SWAP1 POP JUMP JUMPDEST PUSH2 0xB3F DUP1 PUSH2 0x258 PUSH0 CODECOPY PUSH0 RETURN INVALID PUSH1 0x80 PUSH1 0x40 MSTORE PUSH1 0x4 CALLDATASIZE LT PUSH2 0x4D JUMPI PUSH0 CALLDATALOAD PUSH1 0xE0 SHR DUP1 PUSH4 0x3D922F90 EQ PUSH2 0x58 JUMPI DUP1 PUSH4 0x426EE8CF EQ PUSH2 0x62 JUMPI DUP1 PUSH4 0x7371B0D6 EQ PUSH2 0x8C JUMPI DUP1 PUSH4 0x8DA5CB5B EQ PUSH2 0xB4 JUMPI DUP1 PUSH4 0xFD6B81DA EQ PUSH2 0xDE JUMPI PUSH2 0x54 JUMP JUMPDEST CALLDATASIZE PUSH2 0x54 JUMPI STOP JUMPDEST PUSH0 PUSH0 REVERT JUMPDEST PUSH2 0x60 PUSH2 0x108 JUMP JUMPDEST STOP JUMPDEST CALLVALUE DUP1 ISZERO PUSH2 0x6D JUMPI PUSH0 PUSH0 REVERT JUMPDEST POP PUSH2 0x76 PUSH2 0x2A6 JUMP JUMPDEST PUSH1 0x40 MLOAD PUSH2 0x83 SWAP2 SWAP1 PUSH2 0x70F JUMP JUMPDEST PUSH1 0x40 MLOAD DUP1 SWAP2 SUB SWAP1 RETURN JUMPDEST CALLVALUE DUP1 ISZERO PUSH2 0x97 JUMPI PUSH0 PUSH0 REVERT JUMPDEST POP PUSH2 0xB2 PUSH1 0x4 DUP1 CALLDATASIZE SUB DUP2 ADD SWAP1 PUSH2 0xAD SWAP2 SWAP1 PUSH2 0x756 JUMP JUMPDEST PUSH2 0x3D3 JUMP JUMPDEST STOP JUMPDEST CALLVALUE DUP1 ISZERO PUSH2 0xBF JUMPI PUSH0 PUSH0 REVERT JUMPDEST POP PUSH2 0xC8 PUSH2 0x6AE JUMP JUMPDEST PUSH1 0x40 MLOAD PUSH2 0xD5 SWAP2 SWAP1 PUSH2 0x7C0 JUMP JUMPDEST PUSH1 0x40 MLOAD DUP1 SWAP2 SUB SWAP1 RETURN JUMPDEST CALLVALUE DUP1 ISZERO PUSH2 0xE9 JUMPI PUSH0 PUSH0 REVERT JUMPDEST POP PUSH2 0xF2 PUSH2 0x6D3 JUMP JUMPDEST PUSH1 0x40 MLOAD PUSH2 0xFF SWAP2 SWAP1 PUSH2 0x7C0 JUMP JUMPDEST PUSH1 0x40 MLOAD DUP1 SWAP2 SUB SWAP1 RETURN JUMPDEST PUSH1 0x1 PUSH0 SWAP1 SLOAD SWAP1 PUSH2 0x100 EXP SWAP1 DIV PUSH20 0xFFFFFFFFFFFFFFFFFFFFFFFFFFFFFFFFFFFFFFFF AND PUSH20 0xFFFFFFFFFFFFFFFFFFFFFFFFFFFFFFFFFFFFFFFF AND CALLER PUSH20 0xFFFFFFFFFFFFFFFFFFFFFFFFFFFFFFFFFFFFFFFF AND EQ PUSH2 0x197 JUMPI PUSH1 0x40 MLOAD PUSH32 0x8C379A000000000000000000000000000000000000000000000000000000000 DUP2 MSTORE PUSH1 0x4 ADD PUSH2 0x18E SWAP1 PUSH2 0x859 JUMP JUMPDEST PUSH1 0x40 MLOAD DUP1 SWAP2 SUB SWAP1 REVERT JUMPDEST PUSH0 CALLVALUE GT PUSH2 0x1D9 JUMPI PUSH1 0x40 MLOAD PUSH32 0x8C379A000000000000000000000000000000000000000000000000000000000 DUP2 MSTORE PUSH1 0x4 ADD PUSH2 0x1D0 SWAP1 PUSH2 0x8C1 JUMP JUMPDEST PUSH1 0x40 MLOAD DUP1 SWAP2 SUB SWAP1 REVERT JUMPDEST PUSH0 PUSH0 SWAP1 SLOAD SWAP1 PUSH2 0x100 EXP SWAP1 DIV PUSH20 0xFFFFFFFFFFFFFFFFFFFFFFFFFFFFFFFFFFFFFFFF AND PUSH20 0xFFFFFFFFFFFFFFFFFFFFFFFFFFFFFFFFFFFFFFFF AND PUSH4 0x3D922F90 CALLVALUE PUSH1 0x40 MLOAD DUP3 PUSH4 0xFFFFFFFF AND PUSH1 0xE0 SHL DUP2 MSTORE PUSH1 0x4 ADD PUSH0 PUSH1 0x40 MLOAD DUP1 DUP4 SUB DUP2 DUP6 DUP9 DUP1 EXTCODESIZE ISZERO DUP1 ISZERO PUSH2 0x23F JUMPI PUSH0 PUSH0 REVERT JUMPDEST POP GAS CALL ISZERO DUP1 ISZERO PUSH2 0x251 JUMPI RETURNDATASIZE PUSH0 PUSH0 RETURNDATACOPY RETURNDATASIZE PUSH0 REVERT JUMPDEST POP POP POP POP POP CALLER PUSH20 0xFFFFFFFFFFFFFFFFFFFFFFFFFFFFFFFFFFFFFFFF AND PUSH32 0xA88377EC48DDB8362C554CF1FF840DFAD21FA997EA01F734207B8B6EF96AE248 CALLVALUE PUSH1 0x40 MLOAD PUSH2 0x29C SWAP2 SWAP1 PUSH2 0x70F JUMP JUMPDEST PUSH1 0x40 MLOAD DUP1 SWAP2 SUB SWAP1 LOG2 JUMP JUMPDEST PUSH0 PUSH1 0x1 PUSH0 SWAP1 SLOAD SWAP1 PUSH2 0x100 EXP SWAP1 DIV PUSH20 0xFFFFFFFFFFFFFFFFFFFFFFFFFFFFFFFFFFFFFFFF AND PUSH20 0xFFFFFFFFFFFFFFFFFFFFFFFFFFFFFFFFFFFFFFFF AND CALLER PUSH20 0xFFFFFFFFFFFFFFFFFFFFFFFFFFFFFFFFFFFFFFFF AND EQ PUSH2 0x336 JUMPI PUSH1 0x40 MLOAD PUSH32 0x8C379A000000000000000000000000000000000000000000000000000000000 DUP2 MSTORE PUSH1 0x4 ADD PUSH2 0x32D SWAP1 PUSH2 0x859 JUMP JUMPDEST PUSH1 0x40 MLOAD DUP1 SWAP2 SUB SWAP1 REVERT JUMPDEST PUSH0 PUSH0 SWAP1 SLOAD SWAP1 PUSH2 0x100 EXP SWAP1 DIV PUSH20 0xFFFFFFFFFFFFFFFFFFFFFFFFFFFFFFFFFFFFFFFF AND PUSH20 0xFFFFFFFFFFFFFFFFFFFFFFFFFFFFFFFFFFFFFFFF AND PUSH4 0x218895E3 ADDRESS PUSH1 0x40 MLOAD DUP3 PUSH4 0xFFFFFFFF AND PUSH1 0xE0 SHL DUP2 MSTORE PUSH1 0x4 ADD PUSH2 0x38F SWAP2 SWAP1 PUSH2 0x7C0 JUMP JUMPDEST PUSH1 0x20 PUSH1 0x40 MLOAD DUP1 DUP4 SUB DUP2 DUP7 GAS STATICCALL ISZERO DUP1 ISZERO PUSH2 0x3AA JUMPI RETURNDATASIZE PUSH0 PUSH0 RETURNDATACOPY RETURNDATASIZE PUSH0 REVERT JUMPDEST POP POP POP POP PUSH1 0x40 MLOAD RETURNDATASIZE PUSH1 0x1F NOT PUSH1 0x1F DUP3 ADD AND DUP3 ADD DUP1 PUSH1 0x40 MSTORE POP DUP2 ADD SWAP1 PUSH2 0x3CE SWAP2 SWAP1 PUSH2 0x8F3 JUMP JUMPDEST SWAP1 POP SWAP1 JUMP JUMPDEST PUSH1 0x1 PUSH0 SWAP1 SLOAD SWAP1 PUSH2 0x100 EXP SWAP1 DIV PUSH20 0xFFFFFFFFFFFFFFFFFFFFFFFFFFFFFFFFFFFFFFFF AND PUSH20 0xFFFFFFFFFFFFFFFFFFFFFFFFFFFFFFFFFFFFFFFF AND CALLER PUSH20 0xFFFFFFFFFFFFFFFFFFFFFFFFFFFFFFFFFFFFFFFF AND EQ PUSH2 0x462 JUMPI PUSH1 0x40 MLOAD PUSH32 0x8C379A000000000000000000000000000000000000000000000000000000000 DUP2 MSTORE PUSH1 0x4 ADD PUSH2 0x459 SWAP1 PUSH2 0x859 JUMP JUMPDEST PUSH1 0x40 MLOAD DUP1 SWAP2 SUB SWAP1 REVERT JUMPDEST PUSH0 DUP2 GT PUSH2 0x4A4 JUMPI PUSH1 0x40 MLOAD PUSH32 0x8C379A000000000000000000000000000000000000000000000000000000000 DUP2 MSTORE PUSH1 0x4 ADD PUSH2 0x49B SWAP1 PUSH2 0x98E JUMP JUMPDEST PUSH1 0x40 MLOAD DUP1 SWAP2 SUB SWAP1 REVERT JUMPDEST PUSH0 PUSH0 PUSH0 SWAP1 SLOAD SWAP1 PUSH2 0x100 EXP SWAP1 DIV PUSH20 0xFFFFFFFFFFFFFFFFFFFFFFFFFFFFFFFFFFFFFFFF AND SWAP1 POP DUP1 PUSH20 0xFFFFFFFFFFFFFFFFFFFFFFFFFFFFFFFFFFFFFFFF AND PUSH4 0x7371B0D6 DUP4 PUSH1 0x40 MLOAD DUP3 PUSH4 0xFFFFFFFF AND PUSH1 0xE0 SHL DUP2 MSTORE PUSH1 0x4 ADD PUSH2 0x501 SWAP2 SWAP1 PUSH2 0x70F JUMP JUMPDEST PUSH0 PUSH1 0x40 MLOAD DUP1 DUP4 SUB DUP2 PUSH0 DUP8 DUP1 EXTCODESIZE ISZERO DUP1 ISZERO PUSH2 0x518 JUMPI PUSH0 PUSH0 REVERT JUMPDEST POP GAS CALL ISZERO DUP1 ISZERO PUSH2 0x52A JUMPI RETURNDATASIZE PUSH0 PUSH0 RETURNDATACOPY RETURNDATASIZE PUSH0 REVERT JUMPDEST POP POP POP POP DUP2 SELFBALANCE LT ISZERO PUSH2 0x571 JUMPI PUSH1 0x40 MLOAD PUSH32 0x8C379A000000000000000000000000000000000000000000000000000000000 DUP2 MSTORE PUSH1 0x4 ADD PUSH2 0x568 SWAP1 PUSH2 0xA1C JUMP JUMPDEST PUSH1 0x40 MLOAD DUP1 SWAP2 SUB SWAP1 REVERT JUMPDEST PUSH0 PUSH1 0x1 PUSH0 SWAP1 SLOAD SWAP1 PUSH2 0x100 EXP SWAP1 DIV PUSH20 0xFFFFFFFFFFFFFFFFFFFFFFFFFFFFFFFFFFFFFFFF AND PUSH20 0xFFFFFFFFFFFFFFFFFFFFFFFFFFFFFFFFFFFFFFFF AND DUP4 PUSH1 0x40 MLOAD PUSH2 0x5B7 SWAP1 PUSH2 0xA67 JUMP JUMPDEST PUSH0 PUSH1 0x40 MLOAD DUP1 DUP4 SUB DUP2 DUP6 DUP8 GAS CALL SWAP3 POP POP POP RETURNDATASIZE DUP1 PUSH0 DUP2 EQ PUSH2 0x5F1 JUMPI PUSH1 0x40 MLOAD SWAP2 POP PUSH1 0x1F NOT PUSH1 0x3F RETURNDATASIZE ADD AND DUP3 ADD PUSH1 0x40 MSTORE RETURNDATASIZE DUP3 MSTORE RETURNDATASIZE PUSH0 PUSH1 0x20 DUP5 ADD RETURNDATACOPY PUSH2 0x5F6 JUMP JUMPDEST PUSH1 0x60 SWAP2 POP JUMPDEST POP POP SWAP1 POP DUP1 PUSH2 0x63A JUMPI PUSH1 0x40 MLOAD PUSH32 0x8C379A000000000000000000000000000000000000000000000000000000000 DUP2 MSTORE PUSH1 0x4 ADD PUSH2 0x631 SWAP1 PUSH2 0xAEB JUMP JUMPDEST PUSH1 0x40 MLOAD DUP1 SWAP2 SUB SWAP1 REVERT JUMPDEST PUSH1 0x1 PUSH0 SWAP1 SLOAD SWAP1 PUSH2 0x100 EXP SWAP1 DIV PUSH20 0xFFFFFFFFFFFFFFFFFFFFFFFFFFFFFFFFFFFFFFFF AND PUSH20 0xFFFFFFFFFFFFFFFFFFFFFFFFFFFFFFFFFFFFFFFF AND PUSH32 0xA523E521EA00545229E9E3F967A022FFB0BE374BCD9009E2AD50432C5A5E5259 DUP5 PUSH1 0x40 MLOAD PUSH2 0x6A1 SWAP2 SWAP1 PUSH2 0x70F JUMP JUMPDEST PUSH1 0x40 MLOAD DUP1 SWAP2 SUB SWAP1 LOG2 POP POP POP JUMP JUMPDEST PUSH1 0x1 PUSH0 SWAP1 SLOAD SWAP1 PUSH2 0x100 EXP SWAP1 DIV PUSH20 0xFFFFFFFFFFFFFFFFFFFFFFFFFFFFFFFFFFFFFFFF AND DUP2 JUMP JUMPDEST PUSH0 PUSH0 SWAP1 SLOAD SWAP1 PUSH2 0x100 EXP SWAP1 DIV PUSH20 0xFFFFFFFFFFFFFFFFFFFFFFFFFFFFFFFFFFFFFFFF AND DUP2 JUMP JUMPDEST PUSH0 DUP2 SWAP1 POP SWAP2 SWAP1 POP JUMP JUMPDEST PUSH2 0x709 DUP2 PUSH2 0x6F7 JUMP JUMPDEST DUP3 MSTORE POP POP JUMP JUMPDEST PUSH0 PUSH1 0x20 DUP3 ADD SWAP1 POP PUSH2 0x722 PUSH0 DUP4 ADD DUP5 PUSH2 0x700 JUMP JUMPDEST SWAP3 SWAP2 POP POP JUMP JUMPDEST PUSH0 PUSH0 REVERT JUMPDEST PUSH2 0x735 DUP2 PUSH2 0x6F7 JUMP JUMPDEST DUP2 EQ PUSH2 0x73F JUMPI PUSH0 PUSH0 REVERT JUMPDEST POP JUMP JUMPDEST PUSH0 DUP2 CALLDATALOAD SWAP1 POP PUSH2 0x750 DUP2 PUSH2 0x72C JUMP JUMPDEST SWAP3 SWAP2 POP POP JUMP JUMPDEST PUSH0 PUSH1 0x20 DUP3 DUP5 SUB SLT ISZERO PUSH2 0x76B JUMPI PUSH2 0x76A PUSH2 0x728 JUMP JUMPDEST JUMPDEST PUSH0 PUSH2 0x778 DUP5 DUP3 DUP6 ADD PUSH2 0x742 JUMP JUMPDEST SWAP2 POP POP SWAP3 SWAP2 POP POP JUMP JUMPDEST PUSH0 PUSH20 0xFFFFFFFFFFFFFFFFFFFFFFFFFFFFFFFFFFFFFFFF DUP3 AND SWAP1 POP SWAP2 SWAP1 POP JUMP JUMPDEST PUSH0 PUSH2 0x7AA DUP3 PUSH2 0x781 JUMP JUMPDEST SWAP1 POP SWAP2 SWAP1 POP JUMP JUMPDEST PUSH2 0x7BA DUP2 PUSH2 0x7A0 JUMP JUMPDEST DUP3 MSTORE POP POP JUMP JUMPDEST PUSH0 PUSH1 0x20 DUP3 ADD SWAP1 POP PUSH2 0x7D3 PUSH0 DUP4 ADD DUP5 PUSH2 0x7B1 JUMP JUMPDEST SWAP3 SWAP2 POP POP JUMP JUMPDEST PUSH0 DUP3 DUP3 MSTORE PUSH1 0x20 DUP3 ADD SWAP1 POP SWAP3 SWAP2 POP POP JUMP JUMPDEST PUSH32 0x4F6E6C79206F776E6572206F66207468697320636C69656E7420636F6E747261 PUSH0 DUP3 ADD MSTORE PUSH32 0x63742063616E2063616C6C20746869732066756E6374696F6E00000000000000 PUSH1 0x20 DUP3 ADD MSTORE POP JUMP JUMPDEST PUSH0 PUSH2 0x843 PUSH1 0x39 DUP4 PUSH2 0x7D9 JUMP JUMPDEST SWAP2 POP PUSH2 0x84E DUP3 PUSH2 0x7E9 JUMP JUMPDEST PUSH1 0x40 DUP3 ADD SWAP1 POP SWAP2 SWAP1 POP JUMP JUMPDEST PUSH0 PUSH1 0x20 DUP3 ADD SWAP1 POP DUP2 DUP2 SUB PUSH0 DUP4 ADD MSTORE PUSH2 0x870 DUP2 PUSH2 0x837 JUMP JUMPDEST SWAP1 POP SWAP2 SWAP1 POP JUMP JUMPDEST PUSH32 0x5072656369736120656E7669617220616C67756D204574686572000000000000 PUSH0 DUP3 ADD MSTORE POP JUMP JUMPDEST PUSH0 PUSH2 0x8AB PUSH1 0x1A DUP4 PUSH2 0x7D9 JUMP JUMPDEST SWAP2 POP PUSH2 0x8B6 DUP3 PUSH2 0x877 JUMP JUMPDEST PUSH1 0x20 DUP3 ADD SWAP1 POP SWAP2 SWAP1 POP JUMP JUMPDEST PUSH0 PUSH1 0x20 DUP3 ADD SWAP1 POP DUP2 DUP2 SUB PUSH0 DUP4 ADD MSTORE PUSH2 0x8D8 DUP2 PUSH2 0x89F JUMP JUMPDEST SWAP1 POP SWAP2 SWAP1 POP JUMP JUMPDEST PUSH0 DUP2 MLOAD SWAP1 POP PUSH2 0x8ED DUP2 PUSH2 0x72C JUMP JUMPDEST SWAP3 SWAP2 POP POP JUMP JUMPDEST PUSH0 PUSH1 0x20 DUP3 DUP5 SUB SLT ISZERO PUSH2 0x908 JUMPI PUSH2 0x907 PUSH2 0x728 JUMP JUMPDEST JUMPDEST PUSH0 PUSH2 0x915 DUP5 DUP3 DUP6 ADD PUSH2 0x8DF JUMP JUMPDEST SWAP2 POP POP SWAP3 SWAP2 POP POP JUMP JUMPDEST PUSH32 0x56616C6F7220646F207361717565206465766520736572206D61696F72207175 PUSH0 DUP3 ADD MSTORE PUSH32 0x65207A65726F0000000000000000000000000000000000000000000000000000 PUSH1 0x20 DUP3 ADD MSTORE POP JUMP JUMPDEST PUSH0 PUSH2 0x978 PUSH1 0x26 DUP4 PUSH2 0x7D9 JUMP JUMPDEST SWAP2 POP PUSH2 0x983 DUP3 PUSH2 0x91E JUMP JUMPDEST PUSH1 0x40 DUP3 ADD SWAP1 POP SWAP2 SWAP1 POP JUMP JUMPDEST PUSH0 PUSH1 0x20 DUP3 ADD SWAP1 POP DUP2 DUP2 SUB PUSH0 DUP4 ADD MSTORE PUSH2 0x9A5 DUP2 PUSH2 0x96C JUMP JUMPDEST SWAP1 POP SWAP2 SWAP1 POP JUMP JUMPDEST PUSH32 0x436C69656E7465206E616F2074656D20457468657220737566696369656E7465 PUSH0 DUP3 ADD MSTORE PUSH32 0x207061726120726570617373617220646F20436F667265000000000000000000 PUSH1 0x20 DUP3 ADD MSTORE POP JUMP JUMPDEST PUSH0 PUSH2 0xA06 PUSH1 0x37 DUP4 PUSH2 0x7D9 JUMP JUMPDEST SWAP2 POP PUSH2 0xA11 DUP3 PUSH2 0x9AC JUMP JUMPDEST PUSH1 0x40 DUP3 ADD SWAP1 POP SWAP2 SWAP1 POP JUMP JUMPDEST PUSH0 PUSH1 0x20 DUP3 ADD SWAP1 POP DUP2 DUP2 SUB PUSH0 DUP4 ADD MSTORE PUSH2 0xA33 DUP2 PUSH2 0x9FA JUMP JUMPDEST SWAP1 POP SWAP2 SWAP1 POP JUMP JUMPDEST PUSH0 DUP2 SWAP1 POP SWAP3 SWAP2 POP POP JUMP JUMPDEST POP JUMP JUMPDEST PUSH0 PUSH2 0xA52 PUSH0 DUP4 PUSH2 0xA3A JUMP JUMPDEST SWAP2 POP PUSH2 0xA5D DUP3 PUSH2 0xA44 JUMP JUMPDEST PUSH0 DUP3 ADD SWAP1 POP SWAP2 SWAP1 POP JUMP JUMPDEST PUSH0 PUSH2 0xA71 DUP3 PUSH2 0xA47 JUMP JUMPDEST SWAP2 POP DUP2 SWAP1 POP SWAP2 SWAP1 POP JUMP JUMPDEST PUSH32 0x5265706173736520646F20436C69656E74652070617261206F206F776E657220 PUSH0 DUP3 ADD MSTORE PUSH32 0x66616C686F752100000000000000000000000000000000000000000000000000 PUSH1 0x20 DUP3 ADD MSTORE POP JUMP JUMPDEST PUSH0 PUSH2 0xAD5 PUSH1 0x27 DUP4 PUSH2 0x7D9 JUMP JUMPDEST SWAP2 POP PUSH2 0xAE0 DUP3 PUSH2 0xA7B JUMP JUMPDEST PUSH1 0x40 DUP3 ADD SWAP1 POP SWAP2 SWAP1 POP JUMP JUMPDEST PUSH0 PUSH1 0x20 DUP3 ADD SWAP1 POP DUP2 DUP2 SUB PUSH0 DUP4 ADD MSTORE PUSH2 0xB02 DUP2 PUSH2 0xAC9 JUMP JUMPDEST SWAP1 POP SWAP2 SWAP1 POP JUMP INVALID LOG2 PUSH5 0x6970667358 0x22 SLT KECCAK256 SWAP4 SWAP5 0xD2 JUMP 0xB3 PUSH31 0xE7C861576FCA63F4933B79B6BF758E28F58122B8288882C3BB6E64736F6C63 NUMBER STOP ADDMOD 0x1E STOP CALLER "
				},
				"gasEstimates": {
					"creation": {
						"codeDepositCost": "575800",
						"executionCost": "infinite",
						"totalCost": "infinite"
					},
					"external": {
						"cofreEndereco()": "2573",
						"consultarMeuSaldoNoCofre()": "infinite",
						"depositar()": "infinite",
						"owner()": "2552",
						"sacar(uint256)": "infinite"
					}
				},
				"methodIdentifiers": {
					"cofreEndereco()": "fd6b81da",
					"consultarMeuSaldoNoCofre()": "426ee8cf",
					"depositar()": "3d922f90",
					"owner()": "8da5cb5b",
					"sacar(uint256)": "7371b0d6"
				}
			},
			"storageLayout": {
				"storage": [
					{
						"astId": 4,
						"contract": "AulaRecife/3modulo/Desafio/Cliente.sol:Cliente",
						"label": "cofreEndereco",
						"offset": 0,
						"slot": "0",
						"type": "t_address"
					},
					{
						"astId": 6,
						"contract": "AulaRecife/3modulo/Desafio/Cliente.sol:Cliente",
						"label": "owner",
						"offset": 0,
						"slot": "1",
						"type": "t_address"
					}
				],
				"types": {
					"t_address": {
						"encoding": "inplace",
						"label": "address",
						"numberOfBytes": "20"
					}
				}
			},
			"userdoc": {
				"kind": "user",
				"methods": {},
				"version": 1
			}
		}
	}
}