{
	"AulaRecife/SeedGuard.sol": {
		"SeedGuard": {
			"abi": [
				{
					"inputs": [],
					"stateMutability": "nonpayable",
					"type": "constructor"
				},
				{
					"inputs": [
						{
							"internalType": "string",
							"name": "mens",
							"type": "string"
						}
					],
					"name": "guardarMensagem",
					"outputs": [
						{
							"internalType": "bool",
							"name": "sucesso",
							"type": "bool"
						}
					],
					"stateMutability": "nonpayable",
					"type": "function"
				},
				{
					"inputs": [],
					"name": "lerMensagem",
					"outputs": [
						{
							"internalType": "string",
							"name": "",
							"type": "string"
						}
					],
					"stateMutability": "view",
					"type": "function"
				}
			],
			"devdoc": {
				"kind": "dev",
				"methods": {},
				"version": 1
			},
			"evm": {
				"assembly": "    /* \"AulaRecife/SeedGuard.sol\":59:563  contract SeedGuard {... */\n  mstore(0x40, 0x80)\n    /* \"AulaRecife/SeedGuard.sol\":218:234  constructor() {} */\n  callvalue\n  dup1\n  iszero\n  tag_1\n  jumpi\n  revert(0x00, 0x00)\ntag_1:\n  pop\n    /* \"AulaRecife/SeedGuard.sol\":59:563  contract SeedGuard {... */\n  dataSize(sub_0)\n  dup1\n  dataOffset(sub_0)\n  0x00\n  codecopy\n  0x00\n  return\nstop\n\nsub_0: assembly {\n        /* \"AulaRecife/SeedGuard.sol\":59:563  contract SeedGuard {... */\n      mstore(0x40, 0x80)\n      callvalue\n      dup1\n      iszero\n      tag_1\n      jumpi\n      revert(0x00, 0x00)\n    tag_1:\n      pop\n      jumpi(tag_2, lt(calldatasize, 0x04))\n      shr(0xe0, calldataload(0x00))\n      dup1\n      0x232ac7fa\n      eq\n      tag_3\n      jumpi\n      dup1\n      0xdd43e60b\n      eq\n      tag_4\n      jumpi\n    tag_2:\n      revert(0x00, 0x00)\n        /* \"AulaRecife/SeedGuard.sol\":240:440  function guardarMensagem(string memory mens) public returns (bool sucesso)... */\n    tag_3:\n      tag_5\n      0x04\n      dup1\n      calldatasize\n      sub\n      dup2\n      add\n      swap1\n      tag_6\n      swap2\n      swap1\n      tag_7\n      jump\t// in\n    tag_6:\n      tag_8\n      jump\t// in\n    tag_5:\n      mload(0x40)\n      tag_9\n      swap2\n      swap1\n      tag_10\n      jump\t// in\n    tag_9:\n      mload(0x40)\n      dup1\n      swap2\n      sub\n      swap1\n      return\n        /* \"AulaRecife/SeedGuard.sol\":446:560  function lerMensagem() public view returns (string memory) {... */\n    tag_4:\n      tag_11\n      tag_12\n      jump\t// in\n    tag_11:\n      mload(0x40)\n      tag_13\n      swap2\n      swap1\n      tag_14\n      jump\t// in\n    tag_13:\n      mload(0x40)\n      dup1\n      swap2\n      sub\n      swap1\n      return\n        /* \"AulaRecife/SeedGuard.sol\":240:440  function guardarMensagem(string memory mens) public returns (bool sucesso)... */\n    tag_8:\n        /* \"AulaRecife/SeedGuard.sol\":301:313  bool sucesso */\n      0x00\n        /* \"AulaRecife/SeedGuard.sol\":331:347  Usuario memory u */\n      0x00\n        /* \"AulaRecife/SeedGuard.sol\":350:375  Usuario(msg.sender, mens) */\n      mload(0x40)\n      dup1\n      0x40\n      add\n      0x40\n      mstore\n      dup1\n        /* \"AulaRecife/SeedGuard.sol\":358:368  msg.sender */\n      caller\n        /* \"AulaRecife/SeedGuard.sol\":350:375  Usuario(msg.sender, mens) */\n      0xffffffffffffffffffffffffffffffffffffffff\n      and\n      dup2\n      mstore\n      0x20\n      add\n        /* \"AulaRecife/SeedGuard.sol\":370:374  mens */\n      dup5\n        /* \"AulaRecife/SeedGuard.sol\":350:375  Usuario(msg.sender, mens) */\n      dup2\n      mstore\n      pop\n        /* \"AulaRecife/SeedGuard.sol\":331:375  Usuario memory u = Usuario(msg.sender, mens) */\n      swap1\n      pop\n        /* \"AulaRecife/SeedGuard.sol\":409:410  u */\n      dup1\n        /* \"AulaRecife/SeedGuard.sol\":386:394  usuarios */\n      0x00\n        /* \"AulaRecife/SeedGuard.sol\":386:406  usuarios[msg.sender] */\n      0x00\n        /* \"AulaRecife/SeedGuard.sol\":395:405  msg.sender */\n      caller\n        /* \"AulaRecife/SeedGuard.sol\":386:406  usuarios[msg.sender] */\n      0xffffffffffffffffffffffffffffffffffffffff\n      and\n      0xffffffffffffffffffffffffffffffffffffffff\n      and\n      dup2\n      mstore\n      0x20\n      add\n      swap1\n      dup2\n      mstore\n      0x20\n      add\n      0x00\n      keccak256\n        /* \"AulaRecife/SeedGuard.sol\":386:410  usuarios[msg.sender] = u */\n      0x00\n      dup3\n      add\n      mload\n      dup2\n      0x00\n      add\n      exp(0x0100, 0x00)\n      dup2\n      sload\n      dup2\n      0xffffffffffffffffffffffffffffffffffffffff\n      mul\n      not\n      and\n      swap1\n      dup4\n      0xffffffffffffffffffffffffffffffffffffffff\n      and\n      mul\n      or\n      swap1\n      sstore\n      pop\n      0x20\n      dup3\n      add\n      mload\n      dup2\n      0x01\n      add\n      swap1\n      dup2\n      tag_16\n      swap2\n      swap1\n      tag_17\n      jump\t// in\n    tag_16:\n      pop\n      swap1\n      pop\n      pop\n        /* \"AulaRecife/SeedGuard.sol\":428:432  true */\n      0x01\n        /* \"AulaRecife/SeedGuard.sol\":421:432  return true */\n      swap2\n      pop\n      pop\n        /* \"AulaRecife/SeedGuard.sol\":240:440  function guardarMensagem(string memory mens) public returns (bool sucesso)... */\n      swap2\n      swap1\n      pop\n      jump\t// out\n        /* \"AulaRecife/SeedGuard.sol\":446:560  function lerMensagem() public view returns (string memory) {... */\n    tag_12:\n        /* \"AulaRecife/SeedGuard.sol\":490:503  string memory */\n      0x60\n        /* \"AulaRecife/SeedGuard.sol\":523:531  usuarios */\n      0x00\n        /* \"AulaRecife/SeedGuard.sol\":523:543  usuarios[msg.sender] */\n      0x00\n        /* \"AulaRecife/SeedGuard.sol\":532:542  msg.sender */\n      caller\n        /* \"AulaRecife/SeedGuard.sol\":523:543  usuarios[msg.sender] */\n      0xffffffffffffffffffffffffffffffffffffffff\n      and\n      0xffffffffffffffffffffffffffffffffffffffff\n      and\n      dup2\n      mstore\n      0x20\n      add\n      swap1\n      dup2\n      mstore\n      0x20\n      add\n      0x00\n      keccak256\n        /* \"AulaRecife/SeedGuard.sol\":523:552  usuarios[msg.sender].mensagem */\n      0x01\n      add\n        /* \"AulaRecife/SeedGuard.sol\":516:552  return usuarios[msg.sender].mensagem */\n      dup1\n      sload\n      tag_19\n      swap1\n      tag_20\n      jump\t// in\n    tag_19:\n      dup1\n      0x1f\n      add\n      0x20\n      dup1\n      swap2\n      div\n      mul\n      0x20\n      add\n      mload(0x40)\n      swap1\n      dup2\n      add\n      0x40\n      mstore\n      dup1\n      swap3\n      swap2\n      swap1\n      dup2\n      dup2\n      mstore\n      0x20\n      add\n      dup3\n      dup1\n      sload\n      tag_21\n      swap1\n      tag_20\n      jump\t// in\n    tag_21:\n      dup1\n      iszero\n      tag_22\n      jumpi\n      dup1\n      0x1f\n      lt\n      tag_23\n      jumpi\n      0x0100\n      dup1\n      dup4\n      sload\n      div\n      mul\n      dup4\n      mstore\n      swap2\n      0x20\n      add\n      swap2\n      jump(tag_22)\n    tag_23:\n      dup3\n      add\n      swap2\n      swap1\n      0x00\n      mstore\n      keccak256(0x00, 0x20)\n      swap1\n    tag_24:\n      dup2\n      sload\n      dup2\n      mstore\n      swap1\n      0x01\n      add\n      swap1\n      0x20\n      add\n      dup1\n      dup4\n      gt\n      tag_24\n      jumpi\n      dup3\n      swap1\n      sub\n      0x1f\n      and\n      dup3\n      add\n      swap2\n    tag_22:\n      pop\n      pop\n      pop\n      pop\n      pop\n      swap1\n      pop\n        /* \"AulaRecife/SeedGuard.sol\":446:560  function lerMensagem() public view returns (string memory) {... */\n      swap1\n      jump\t// out\n        /* \"#utility.yul\":7:82   */\n    tag_25:\n        /* \"#utility.yul\":40:46   */\n      0x00\n        /* \"#utility.yul\":73:75   */\n      0x40\n        /* \"#utility.yul\":67:76   */\n      mload\n        /* \"#utility.yul\":57:76   */\n      swap1\n      pop\n        /* \"#utility.yul\":7:82   */\n      swap1\n      jump\t// out\n        /* \"#utility.yul\":88:205   */\n    tag_26:\n        /* \"#utility.yul\":197:198   */\n      0x00\n        /* \"#utility.yul\":194:195   */\n      0x00\n        /* \"#utility.yul\":187:199   */\n      revert\n        /* \"#utility.yul\":211:328   */\n    tag_27:\n        /* \"#utility.yul\":320:321   */\n      0x00\n        /* \"#utility.yul\":317:318   */\n      0x00\n        /* \"#utility.yul\":310:322   */\n      revert\n        /* \"#utility.yul\":334:451   */\n    tag_28:\n        /* \"#utility.yul\":443:444   */\n      0x00\n        /* \"#utility.yul\":440:441   */\n      0x00\n        /* \"#utility.yul\":433:445   */\n      revert\n        /* \"#utility.yul\":457:574   */\n    tag_29:\n        /* \"#utility.yul\":566:567   */\n      0x00\n        /* \"#utility.yul\":563:564   */\n      0x00\n        /* \"#utility.yul\":556:568   */\n      revert\n        /* \"#utility.yul\":580:682   */\n    tag_30:\n        /* \"#utility.yul\":621:627   */\n      0x00\n        /* \"#utility.yul\":672:674   */\n      0x1f\n        /* \"#utility.yul\":668:675   */\n      not\n        /* \"#utility.yul\":663:665   */\n      0x1f\n        /* \"#utility.yul\":656:661   */\n      dup4\n        /* \"#utility.yul\":652:666   */\n      add\n        /* \"#utility.yul\":648:676   */\n      and\n        /* \"#utility.yul\":638:676   */\n      swap1\n      pop\n        /* \"#utility.yul\":580:682   */\n      swap2\n      swap1\n      pop\n      jump\t// out\n        /* \"#utility.yul\":688:868   */\n    tag_31:\n        /* \"#utility.yul\":736:813   */\n      0x4e487b7100000000000000000000000000000000000000000000000000000000\n        /* \"#utility.yul\":733:734   */\n      0x00\n        /* \"#utility.yul\":726:814   */\n      mstore\n        /* \"#utility.yul\":833:837   */\n      0x41\n        /* \"#utility.yul\":830:831   */\n      0x04\n        /* \"#utility.yul\":823:838   */\n      mstore\n        /* \"#utility.yul\":857:861   */\n      0x24\n        /* \"#utility.yul\":854:855   */\n      0x00\n        /* \"#utility.yul\":847:862   */\n      revert\n        /* \"#utility.yul\":874:1155   */\n    tag_32:\n        /* \"#utility.yul\":957:984   */\n      tag_70\n        /* \"#utility.yul\":979:983   */\n      dup3\n        /* \"#utility.yul\":957:984   */\n      tag_30\n      jump\t// in\n    tag_70:\n        /* \"#utility.yul\":949:955   */\n      dup2\n        /* \"#utility.yul\":945:985   */\n      add\n        /* \"#utility.yul\":1087:1093   */\n      dup2\n        /* \"#utility.yul\":1075:1085   */\n      dup2\n        /* \"#utility.yul\":1072:1094   */\n      lt\n        /* \"#utility.yul\":1051:1069   */\n      0xffffffffffffffff\n        /* \"#utility.yul\":1039:1049   */\n      dup3\n        /* \"#utility.yul\":1036:1070   */\n      gt\n        /* \"#utility.yul\":1033:1095   */\n      or\n        /* \"#utility.yul\":1030:1118   */\n      iszero\n      tag_71\n      jumpi\n        /* \"#utility.yul\":1098:1116   */\n      tag_72\n      tag_31\n      jump\t// in\n    tag_72:\n        /* \"#utility.yul\":1030:1118   */\n    tag_71:\n        /* \"#utility.yul\":1138:1148   */\n      dup1\n        /* \"#utility.yul\":1134:1136   */\n      0x40\n        /* \"#utility.yul\":1127:1149   */\n      mstore\n        /* \"#utility.yul\":917:1155   */\n      pop\n        /* \"#utility.yul\":874:1155   */\n      pop\n      pop\n      jump\t// out\n        /* \"#utility.yul\":1161:1290   */\n    tag_33:\n        /* \"#utility.yul\":1195:1201   */\n      0x00\n        /* \"#utility.yul\":1222:1242   */\n      tag_74\n      tag_25\n      jump\t// in\n    tag_74:\n        /* \"#utility.yul\":1212:1242   */\n      swap1\n      pop\n        /* \"#utility.yul\":1251:1284   */\n      tag_75\n        /* \"#utility.yul\":1279:1283   */\n      dup3\n        /* \"#utility.yul\":1271:1277   */\n      dup3\n        /* \"#utility.yul\":1251:1284   */\n      tag_32\n      jump\t// in\n    tag_75:\n        /* \"#utility.yul\":1161:1290   */\n      swap2\n      swap1\n      pop\n      jump\t// out\n        /* \"#utility.yul\":1296:1604   */\n    tag_34:\n        /* \"#utility.yul\":1358:1362   */\n      0x00\n        /* \"#utility.yul\":1448:1466   */\n      0xffffffffffffffff\n        /* \"#utility.yul\":1440:1446   */\n      dup3\n        /* \"#utility.yul\":1437:1467   */\n      gt\n        /* \"#utility.yul\":1434:1490   */\n      iszero\n      tag_77\n      jumpi\n        /* \"#utility.yul\":1470:1488   */\n      tag_78\n      tag_31\n      jump\t// in\n    tag_78:\n        /* \"#utility.yul\":1434:1490   */\n    tag_77:\n        /* \"#utility.yul\":1508:1537   */\n      tag_79\n        /* \"#utility.yul\":1530:1536   */\n      dup3\n        /* \"#utility.yul\":1508:1537   */\n      tag_30\n      jump\t// in\n    tag_79:\n        /* \"#utility.yul\":1500:1537   */\n      swap1\n      pop\n        /* \"#utility.yul\":1592:1596   */\n      0x20\n        /* \"#utility.yul\":1586:1590   */\n      dup2\n        /* \"#utility.yul\":1582:1597   */\n      add\n        /* \"#utility.yul\":1574:1597   */\n      swap1\n      pop\n        /* \"#utility.yul\":1296:1604   */\n      swap2\n      swap1\n      pop\n      jump\t// out\n        /* \"#utility.yul\":1610:1758   */\n    tag_35:\n        /* \"#utility.yul\":1708:1714   */\n      dup3\n        /* \"#utility.yul\":1703:1706   */\n      dup2\n        /* \"#utility.yul\":1698:1701   */\n      dup4\n        /* \"#utility.yul\":1685:1715   */\n      calldatacopy\n        /* \"#utility.yul\":1749:1750   */\n      0x00\n        /* \"#utility.yul\":1740:1746   */\n      dup4\n        /* \"#utility.yul\":1735:1738   */\n      dup4\n        /* \"#utility.yul\":1731:1747   */\n      add\n        /* \"#utility.yul\":1724:1751   */\n      mstore\n        /* \"#utility.yul\":1610:1758   */\n      pop\n      pop\n      pop\n      jump\t// out\n        /* \"#utility.yul\":1764:2189   */\n    tag_36:\n        /* \"#utility.yul\":1842:1847   */\n      0x00\n        /* \"#utility.yul\":1867:1933   */\n      tag_82\n        /* \"#utility.yul\":1883:1932   */\n      tag_83\n        /* \"#utility.yul\":1925:1931   */\n      dup5\n        /* \"#utility.yul\":1883:1932   */\n      tag_34\n      jump\t// in\n    tag_83:\n        /* \"#utility.yul\":1867:1933   */\n      tag_33\n      jump\t// in\n    tag_82:\n        /* \"#utility.yul\":1858:1933   */\n      swap1\n      pop\n        /* \"#utility.yul\":1956:1962   */\n      dup3\n        /* \"#utility.yul\":1949:1954   */\n      dup2\n        /* \"#utility.yul\":1942:1963   */\n      mstore\n        /* \"#utility.yul\":1994:1998   */\n      0x20\n        /* \"#utility.yul\":1987:1992   */\n      dup2\n        /* \"#utility.yul\":1983:1999   */\n      add\n        /* \"#utility.yul\":2032:2035   */\n      dup5\n        /* \"#utility.yul\":2023:2029   */\n      dup5\n        /* \"#utility.yul\":2018:2021   */\n      dup5\n        /* \"#utility.yul\":2014:2030   */\n      add\n        /* \"#utility.yul\":2011:2036   */\n      gt\n        /* \"#utility.yul\":2008:2120   */\n      iszero\n      tag_84\n      jumpi\n        /* \"#utility.yul\":2039:2118   */\n      tag_85\n      tag_29\n      jump\t// in\n    tag_85:\n        /* \"#utility.yul\":2008:2120   */\n    tag_84:\n        /* \"#utility.yul\":2129:2183   */\n      tag_86\n        /* \"#utility.yul\":2176:2182   */\n      dup5\n        /* \"#utility.yul\":2171:2174   */\n      dup3\n        /* \"#utility.yul\":2166:2169   */\n      dup6\n        /* \"#utility.yul\":2129:2183   */\n      tag_35\n      jump\t// in\n    tag_86:\n        /* \"#utility.yul\":1848:2189   */\n      pop\n        /* \"#utility.yul\":1764:2189   */\n      swap4\n      swap3\n      pop\n      pop\n      pop\n      jump\t// out\n        /* \"#utility.yul\":2209:2549   */\n    tag_37:\n        /* \"#utility.yul\":2265:2270   */\n      0x00\n        /* \"#utility.yul\":2314:2317   */\n      dup3\n        /* \"#utility.yul\":2307:2311   */\n      0x1f\n        /* \"#utility.yul\":2299:2305   */\n      dup4\n        /* \"#utility.yul\":2295:2312   */\n      add\n        /* \"#utility.yul\":2291:2318   */\n      slt\n        /* \"#utility.yul\":2281:2403   */\n      tag_88\n      jumpi\n        /* \"#utility.yul\":2322:2401   */\n      tag_89\n      tag_28\n      jump\t// in\n    tag_89:\n        /* \"#utility.yul\":2281:2403   */\n    tag_88:\n        /* \"#utility.yul\":2439:2445   */\n      dup2\n        /* \"#utility.yul\":2426:2446   */\n      calldataload\n        /* \"#utility.yul\":2464:2543   */\n      tag_90\n        /* \"#utility.yul\":2539:2542   */\n      dup5\n        /* \"#utility.yul\":2531:2537   */\n      dup3\n        /* \"#utility.yul\":2524:2528   */\n      0x20\n        /* \"#utility.yul\":2516:2522   */\n      dup7\n        /* \"#utility.yul\":2512:2529   */\n      add\n        /* \"#utility.yul\":2464:2543   */\n      tag_36\n      jump\t// in\n    tag_90:\n        /* \"#utility.yul\":2455:2543   */\n      swap2\n      pop\n        /* \"#utility.yul\":2271:2549   */\n      pop\n        /* \"#utility.yul\":2209:2549   */\n      swap3\n      swap2\n      pop\n      pop\n      jump\t// out\n        /* \"#utility.yul\":2555:3064   */\n    tag_7:\n        /* \"#utility.yul\":2624:2630   */\n      0x00\n        /* \"#utility.yul\":2673:2675   */\n      0x20\n        /* \"#utility.yul\":2661:2670   */\n      dup3\n        /* \"#utility.yul\":2652:2659   */\n      dup5\n        /* \"#utility.yul\":2648:2671   */\n      sub\n        /* \"#utility.yul\":2644:2676   */\n      slt\n        /* \"#utility.yul\":2641:2760   */\n      iszero\n      tag_92\n      jumpi\n        /* \"#utility.yul\":2679:2758   */\n      tag_93\n      tag_26\n      jump\t// in\n    tag_93:\n        /* \"#utility.yul\":2641:2760   */\n    tag_92:\n        /* \"#utility.yul\":2827:2828   */\n      0x00\n        /* \"#utility.yul\":2816:2825   */\n      dup3\n        /* \"#utility.yul\":2812:2829   */\n      add\n        /* \"#utility.yul\":2799:2830   */\n      calldataload\n        /* \"#utility.yul\":2857:2875   */\n      0xffffffffffffffff\n        /* \"#utility.yul\":2849:2855   */\n      dup2\n        /* \"#utility.yul\":2846:2876   */\n      gt\n        /* \"#utility.yul\":2843:2960   */\n      iszero\n      tag_94\n      jumpi\n        /* \"#utility.yul\":2879:2958   */\n      tag_95\n      tag_27\n      jump\t// in\n    tag_95:\n        /* \"#utility.yul\":2843:2960   */\n    tag_94:\n        /* \"#utility.yul\":2984:3047   */\n      tag_96\n        /* \"#utility.yul\":3039:3046   */\n      dup5\n        /* \"#utility.yul\":3030:3036   */\n      dup3\n        /* \"#utility.yul\":3019:3028   */\n      dup6\n        /* \"#utility.yul\":3015:3037   */\n      add\n        /* \"#utility.yul\":2984:3047   */\n      tag_37\n      jump\t// in\n    tag_96:\n        /* \"#utility.yul\":2974:3047   */\n      swap2\n      pop\n        /* \"#utility.yul\":2770:3057   */\n      pop\n        /* \"#utility.yul\":2555:3064   */\n      swap3\n      swap2\n      pop\n      pop\n      jump\t// out\n        /* \"#utility.yul\":3070:3160   */\n    tag_38:\n        /* \"#utility.yul\":3104:3111   */\n      0x00\n        /* \"#utility.yul\":3147:3152   */\n      dup2\n        /* \"#utility.yul\":3140:3153   */\n      iszero\n        /* \"#utility.yul\":3133:3154   */\n      iszero\n        /* \"#utility.yul\":3122:3154   */\n      swap1\n      pop\n        /* \"#utility.yul\":3070:3160   */\n      swap2\n      swap1\n      pop\n      jump\t// out\n        /* \"#utility.yul\":3166:3275   */\n    tag_39:\n        /* \"#utility.yul\":3247:3268   */\n      tag_99\n        /* \"#utility.yul\":3262:3267   */\n      dup2\n        /* \"#utility.yul\":3247:3268   */\n      tag_38\n      jump\t// in\n    tag_99:\n        /* \"#utility.yul\":3242:3245   */\n      dup3\n        /* \"#utility.yul\":3235:3269   */\n      mstore\n        /* \"#utility.yul\":3166:3275   */\n      pop\n      pop\n      jump\t// out\n        /* \"#utility.yul\":3281:3491   */\n    tag_10:\n        /* \"#utility.yul\":3368:3372   */\n      0x00\n        /* \"#utility.yul\":3406:3408   */\n      0x20\n        /* \"#utility.yul\":3395:3404   */\n      dup3\n        /* \"#utility.yul\":3391:3409   */\n      add\n        /* \"#utility.yul\":3383:3409   */\n      swap1\n      pop\n        /* \"#utility.yul\":3419:3484   */\n      tag_101\n        /* \"#utility.yul\":3481:3482   */\n      0x00\n        /* \"#utility.yul\":3470:3479   */\n      dup4\n        /* \"#utility.yul\":3466:3483   */\n      add\n        /* \"#utility.yul\":3457:3463   */\n      dup5\n        /* \"#utility.yul\":3419:3484   */\n      tag_39\n      jump\t// in\n    tag_101:\n        /* \"#utility.yul\":3281:3491   */\n      swap3\n      swap2\n      pop\n      pop\n      jump\t// out\n        /* \"#utility.yul\":3497:3596   */\n    tag_40:\n        /* \"#utility.yul\":3549:3555   */\n      0x00\n        /* \"#utility.yul\":3583:3588   */\n      dup2\n        /* \"#utility.yul\":3577:3589   */\n      mload\n        /* \"#utility.yul\":3567:3589   */\n      swap1\n      pop\n        /* \"#utility.yul\":3497:3596   */\n      swap2\n      swap1\n      pop\n      jump\t// out\n        /* \"#utility.yul\":3602:3771   */\n    tag_41:\n        /* \"#utility.yul\":3686:3697   */\n      0x00\n        /* \"#utility.yul\":3720:3726   */\n      dup3\n        /* \"#utility.yul\":3715:3718   */\n      dup3\n        /* \"#utility.yul\":3708:3727   */\n      mstore\n        /* \"#utility.yul\":3760:3764   */\n      0x20\n        /* \"#utility.yul\":3755:3758   */\n      dup3\n        /* \"#utility.yul\":3751:3765   */\n      add\n        /* \"#utility.yul\":3736:3765   */\n      swap1\n      pop\n        /* \"#utility.yul\":3602:3771   */\n      swap3\n      swap2\n      pop\n      pop\n      jump\t// out\n        /* \"#utility.yul\":3777:3916   */\n    tag_42:\n        /* \"#utility.yul\":3866:3872   */\n      dup3\n        /* \"#utility.yul\":3861:3864   */\n      dup2\n        /* \"#utility.yul\":3856:3859   */\n      dup4\n        /* \"#utility.yul\":3850:3873   */\n      mcopy\n        /* \"#utility.yul\":3907:3908   */\n      0x00\n        /* \"#utility.yul\":3898:3904   */\n      dup4\n        /* \"#utility.yul\":3893:3896   */\n      dup4\n        /* \"#utility.yul\":3889:3905   */\n      add\n        /* \"#utility.yul\":3882:3909   */\n      mstore\n        /* \"#utility.yul\":3777:3916   */\n      pop\n      pop\n      pop\n      jump\t// out\n        /* \"#utility.yul\":3922:4299   */\n    tag_43:\n        /* \"#utility.yul\":4010:4013   */\n      0x00\n        /* \"#utility.yul\":4038:4077   */\n      tag_106\n        /* \"#utility.yul\":4071:4076   */\n      dup3\n        /* \"#utility.yul\":4038:4077   */\n      tag_40\n      jump\t// in\n    tag_106:\n        /* \"#utility.yul\":4093:4164   */\n      tag_107\n        /* \"#utility.yul\":4157:4163   */\n      dup2\n        /* \"#utility.yul\":4152:4155   */\n      dup6\n        /* \"#utility.yul\":4093:4164   */\n      tag_41\n      jump\t// in\n    tag_107:\n        /* \"#utility.yul\":4086:4164   */\n      swap4\n      pop\n        /* \"#utility.yul\":4173:4238   */\n      tag_108\n        /* \"#utility.yul\":4231:4237   */\n      dup2\n        /* \"#utility.yul\":4226:4229   */\n      dup6\n        /* \"#utility.yul\":4219:4223   */\n      0x20\n        /* \"#utility.yul\":4212:4217   */\n      dup7\n        /* \"#utility.yul\":4208:4224   */\n      add\n        /* \"#utility.yul\":4173:4238   */\n      tag_42\n      jump\t// in\n    tag_108:\n        /* \"#utility.yul\":4263:4292   */\n      tag_109\n        /* \"#utility.yul\":4285:4291   */\n      dup2\n        /* \"#utility.yul\":4263:4292   */\n      tag_30\n      jump\t// in\n    tag_109:\n        /* \"#utility.yul\":4258:4261   */\n      dup5\n        /* \"#utility.yul\":4254:4293   */\n      add\n        /* \"#utility.yul\":4247:4293   */\n      swap2\n      pop\n        /* \"#utility.yul\":4014:4299   */\n      pop\n        /* \"#utility.yul\":3922:4299   */\n      swap3\n      swap2\n      pop\n      pop\n      jump\t// out\n        /* \"#utility.yul\":4305:4618   */\n    tag_14:\n        /* \"#utility.yul\":4418:4422   */\n      0x00\n        /* \"#utility.yul\":4456:4458   */\n      0x20\n        /* \"#utility.yul\":4445:4454   */\n      dup3\n        /* \"#utility.yul\":4441:4459   */\n      add\n        /* \"#utility.yul\":4433:4459   */\n      swap1\n      pop\n        /* \"#utility.yul\":4505:4514   */\n      dup2\n        /* \"#utility.yul\":4499:4503   */\n      dup2\n        /* \"#utility.yul\":4495:4515   */\n      sub\n        /* \"#utility.yul\":4491:4492   */\n      0x00\n        /* \"#utility.yul\":4480:4489   */\n      dup4\n        /* \"#utility.yul\":4476:4493   */\n      add\n        /* \"#utility.yul\":4469:4516   */\n      mstore\n        /* \"#utility.yul\":4533:4611   */\n      tag_111\n        /* \"#utility.yul\":4606:4610   */\n      dup2\n        /* \"#utility.yul\":4597:4603   */\n      dup5\n        /* \"#utility.yul\":4533:4611   */\n      tag_43\n      jump\t// in\n    tag_111:\n        /* \"#utility.yul\":4525:4611   */\n      swap1\n      pop\n        /* \"#utility.yul\":4305:4618   */\n      swap3\n      swap2\n      pop\n      pop\n      jump\t// out\n        /* \"#utility.yul\":4624:4804   */\n    tag_44:\n        /* \"#utility.yul\":4672:4749   */\n      0x4e487b7100000000000000000000000000000000000000000000000000000000\n        /* \"#utility.yul\":4669:4670   */\n      0x00\n        /* \"#utility.yul\":4662:4750   */\n      mstore\n        /* \"#utility.yul\":4769:4773   */\n      0x22\n        /* \"#utility.yul\":4766:4767   */\n      0x04\n        /* \"#utility.yul\":4759:4774   */\n      mstore\n        /* \"#utility.yul\":4793:4797   */\n      0x24\n        /* \"#utility.yul\":4790:4791   */\n      0x00\n        /* \"#utility.yul\":4783:4798   */\n      revert\n        /* \"#utility.yul\":4810:5130   */\n    tag_20:\n        /* \"#utility.yul\":4854:4860   */\n      0x00\n        /* \"#utility.yul\":4891:4892   */\n      0x02\n        /* \"#utility.yul\":4885:4889   */\n      dup3\n        /* \"#utility.yul\":4881:4893   */\n      div\n        /* \"#utility.yul\":4871:4893   */\n      swap1\n      pop\n        /* \"#utility.yul\":4938:4939   */\n      0x01\n        /* \"#utility.yul\":4932:4936   */\n      dup3\n        /* \"#utility.yul\":4928:4940   */\n      and\n        /* \"#utility.yul\":4959:4977   */\n      dup1\n        /* \"#utility.yul\":4949:5030   */\n      tag_114\n      jumpi\n        /* \"#utility.yul\":5015:5019   */\n      0x7f\n        /* \"#utility.yul\":5007:5013   */\n      dup3\n        /* \"#utility.yul\":5003:5020   */\n      and\n        /* \"#utility.yul\":4993:5020   */\n      swap2\n      pop\n        /* \"#utility.yul\":4949:5030   */\n    tag_114:\n        /* \"#utility.yul\":5077:5079   */\n      0x20\n        /* \"#utility.yul\":5069:5075   */\n      dup3\n        /* \"#utility.yul\":5066:5080   */\n      lt\n        /* \"#utility.yul\":5046:5064   */\n      dup2\n        /* \"#utility.yul\":5043:5081   */\n      sub\n        /* \"#utility.yul\":5040:5124   */\n      tag_115\n      jumpi\n        /* \"#utility.yul\":5096:5114   */\n      tag_116\n      tag_44\n      jump\t// in\n    tag_116:\n        /* \"#utility.yul\":5040:5124   */\n    tag_115:\n        /* \"#utility.yul\":4861:5130   */\n      pop\n        /* \"#utility.yul\":4810:5130   */\n      swap2\n      swap1\n      pop\n      jump\t// out\n        /* \"#utility.yul\":5136:5277   */\n    tag_45:\n        /* \"#utility.yul\":5185:5189   */\n      0x00\n        /* \"#utility.yul\":5208:5211   */\n      dup2\n        /* \"#utility.yul\":5200:5211   */\n      swap1\n      pop\n        /* \"#utility.yul\":5231:5234   */\n      dup2\n        /* \"#utility.yul\":5228:5229   */\n      0x00\n        /* \"#utility.yul\":5221:5235   */\n      mstore\n        /* \"#utility.yul\":5265:5269   */\n      0x20\n        /* \"#utility.yul\":5262:5263   */\n      0x00\n        /* \"#utility.yul\":5252:5270   */\n      keccak256\n        /* \"#utility.yul\":5244:5270   */\n      swap1\n      pop\n        /* \"#utility.yul\":5136:5277   */\n      swap2\n      swap1\n      pop\n      jump\t// out\n        /* \"#utility.yul\":5283:5376   */\n    tag_46:\n        /* \"#utility.yul\":5320:5326   */\n      0x00\n        /* \"#utility.yul\":5367:5369   */\n      0x20\n        /* \"#utility.yul\":5362:5364   */\n      0x1f\n        /* \"#utility.yul\":5355:5360   */\n      dup4\n        /* \"#utility.yul\":5351:5365   */\n      add\n        /* \"#utility.yul\":5347:5370   */\n      div\n        /* \"#utility.yul\":5337:5370   */\n      swap1\n      pop\n        /* \"#utility.yul\":5283:5376   */\n      swap2\n      swap1\n      pop\n      jump\t// out\n        /* \"#utility.yul\":5382:5489   */\n    tag_47:\n        /* \"#utility.yul\":5426:5434   */\n      0x00\n        /* \"#utility.yul\":5476:5481   */\n      dup3\n        /* \"#utility.yul\":5470:5474   */\n      dup3\n        /* \"#utility.yul\":5466:5482   */\n      shl\n        /* \"#utility.yul\":5445:5482   */\n      swap1\n      pop\n        /* \"#utility.yul\":5382:5489   */\n      swap3\n      swap2\n      pop\n      pop\n      jump\t// out\n        /* \"#utility.yul\":5495:5888   */\n    tag_48:\n        /* \"#utility.yul\":5564:5570   */\n      0x00\n        /* \"#utility.yul\":5614:5615   */\n      0x08\n        /* \"#utility.yul\":5602:5612   */\n      dup4\n        /* \"#utility.yul\":5598:5616   */\n      mul\n        /* \"#utility.yul\":5637:5734   */\n      tag_121\n        /* \"#utility.yul\":5667:5733   */\n      0xffffffffffffffffffffffffffffffffffffffffffffffffffffffffffffffff\n        /* \"#utility.yul\":5656:5665   */\n      dup3\n        /* \"#utility.yul\":5637:5734   */\n      tag_47\n      jump\t// in\n    tag_121:\n        /* \"#utility.yul\":5755:5794   */\n      tag_122\n        /* \"#utility.yul\":5785:5793   */\n      dup7\n        /* \"#utility.yul\":5774:5783   */\n      dup4\n        /* \"#utility.yul\":5755:5794   */\n      tag_47\n      jump\t// in\n    tag_122:\n        /* \"#utility.yul\":5743:5794   */\n      swap6\n      pop\n        /* \"#utility.yul\":5827:5831   */\n      dup1\n        /* \"#utility.yul\":5823:5832   */\n      not\n        /* \"#utility.yul\":5816:5821   */\n      dup5\n        /* \"#utility.yul\":5812:5833   */\n      and\n        /* \"#utility.yul\":5803:5833   */\n      swap4\n      pop\n        /* \"#utility.yul\":5876:5880   */\n      dup1\n        /* \"#utility.yul\":5866:5874   */\n      dup7\n        /* \"#utility.yul\":5862:5881   */\n      and\n        /* \"#utility.yul\":5855:5860   */\n      dup5\n        /* \"#utility.yul\":5852:5882   */\n      or\n        /* \"#utility.yul\":5842:5882   */\n      swap3\n      pop\n        /* \"#utility.yul\":5571:5888   */\n      pop\n      pop\n        /* \"#utility.yul\":5495:5888   */\n      swap4\n      swap3\n      pop\n      pop\n      pop\n      jump\t// out\n        /* \"#utility.yul\":5894:5971   */\n    tag_49:\n        /* \"#utility.yul\":5931:5938   */\n      0x00\n        /* \"#utility.yul\":5960:5965   */\n      dup2\n        /* \"#utility.yul\":5949:5965   */\n      swap1\n      pop\n        /* \"#utility.yul\":5894:5971   */\n      swap2\n      swap1\n      pop\n      jump\t// out\n        /* \"#utility.yul\":5977:6037   */\n    tag_50:\n        /* \"#utility.yul\":6005:6008   */\n      0x00\n        /* \"#utility.yul\":6026:6031   */\n      dup2\n        /* \"#utility.yul\":6019:6031   */\n      swap1\n      pop\n        /* \"#utility.yul\":5977:6037   */\n      swap2\n      swap1\n      pop\n      jump\t// out\n        /* \"#utility.yul\":6043:6185   */\n    tag_51:\n        /* \"#utility.yul\":6093:6102   */\n      0x00\n        /* \"#utility.yul\":6126:6179   */\n      tag_126\n        /* \"#utility.yul\":6144:6178   */\n      tag_127\n        /* \"#utility.yul\":6153:6177   */\n      tag_128\n        /* \"#utility.yul\":6171:6176   */\n      dup5\n        /* \"#utility.yul\":6153:6177   */\n      tag_49\n      jump\t// in\n    tag_128:\n        /* \"#utility.yul\":6144:6178   */\n      tag_50\n      jump\t// in\n    tag_127:\n        /* \"#utility.yul\":6126:6179   */\n      tag_49\n      jump\t// in\n    tag_126:\n        /* \"#utility.yul\":6113:6179   */\n      swap1\n      pop\n        /* \"#utility.yul\":6043:6185   */\n      swap2\n      swap1\n      pop\n      jump\t// out\n        /* \"#utility.yul\":6191:6266   */\n    tag_52:\n        /* \"#utility.yul\":6234:6237   */\n      0x00\n        /* \"#utility.yul\":6255:6260   */\n      dup2\n        /* \"#utility.yul\":6248:6260   */\n      swap1\n      pop\n        /* \"#utility.yul\":6191:6266   */\n      swap2\n      swap1\n      pop\n      jump\t// out\n        /* \"#utility.yul\":6272:6541   */\n    tag_53:\n        /* \"#utility.yul\":6382:6421   */\n      tag_131\n        /* \"#utility.yul\":6413:6420   */\n      dup4\n        /* \"#utility.yul\":6382:6421   */\n      tag_51\n      jump\t// in\n    tag_131:\n        /* \"#utility.yul\":6443:6534   */\n      tag_132\n        /* \"#utility.yul\":6492:6533   */\n      tag_133\n        /* \"#utility.yul\":6516:6532   */\n      dup3\n        /* \"#utility.yul\":6492:6533   */\n      tag_52\n      jump\t// in\n    tag_133:\n        /* \"#utility.yul\":6484:6490   */\n      dup5\n        /* \"#utility.yul\":6477:6481   */\n      dup5\n        /* \"#utility.yul\":6471:6482   */\n      sload\n        /* \"#utility.yul\":6443:6534   */\n      tag_48\n      jump\t// in\n    tag_132:\n        /* \"#utility.yul\":6437:6441   */\n      dup3\n        /* \"#utility.yul\":6430:6535   */\n      sstore\n        /* \"#utility.yul\":6348:6541   */\n      pop\n        /* \"#utility.yul\":6272:6541   */\n      pop\n      pop\n      pop\n      jump\t// out\n        /* \"#utility.yul\":6547:6620   */\n    tag_54:\n        /* \"#utility.yul\":6592:6595   */\n      0x00\n        /* \"#utility.yul\":6613:6614   */\n      0x00\n        /* \"#utility.yul\":6606:6614   */\n      swap1\n      pop\n        /* \"#utility.yul\":6547:6620   */\n      swap1\n      jump\t// out\n        /* \"#utility.yul\":6626:6815   */\n    tag_55:\n        /* \"#utility.yul\":6703:6735   */\n      tag_136\n      tag_54\n      jump\t// in\n    tag_136:\n        /* \"#utility.yul\":6744:6809   */\n      tag_137\n        /* \"#utility.yul\":6802:6808   */\n      dup2\n        /* \"#utility.yul\":6794:6800   */\n      dup5\n        /* \"#utility.yul\":6788:6792   */\n      dup5\n        /* \"#utility.yul\":6744:6809   */\n      tag_53\n      jump\t// in\n    tag_137:\n        /* \"#utility.yul\":6679:6815   */\n      pop\n        /* \"#utility.yul\":6626:6815   */\n      pop\n      pop\n      jump\t// out\n        /* \"#utility.yul\":6821:7007   */\n    tag_56:\n        /* \"#utility.yul\":6881:7001   */\n    tag_139:\n        /* \"#utility.yul\":6898:6901   */\n      dup2\n        /* \"#utility.yul\":6891:6896   */\n      dup2\n        /* \"#utility.yul\":6888:6902   */\n      lt\n        /* \"#utility.yul\":6881:7001   */\n      iszero\n      tag_141\n      jumpi\n        /* \"#utility.yul\":6952:6991   */\n      tag_142\n        /* \"#utility.yul\":6989:6990   */\n      0x00\n        /* \"#utility.yul\":6982:6987   */\n      dup3\n        /* \"#utility.yul\":6952:6991   */\n      tag_55\n      jump\t// in\n    tag_142:\n        /* \"#utility.yul\":6925:6926   */\n      0x01\n        /* \"#utility.yul\":6918:6923   */\n      dup2\n        /* \"#utility.yul\":6914:6927   */\n      add\n        /* \"#utility.yul\":6905:6927   */\n      swap1\n      pop\n        /* \"#utility.yul\":6881:7001   */\n      jump(tag_139)\n    tag_141:\n        /* \"#utility.yul\":6821:7007   */\n      pop\n      pop\n      jump\t// out\n        /* \"#utility.yul\":7013:7556   */\n    tag_57:\n        /* \"#utility.yul\":7114:7116   */\n      0x1f\n        /* \"#utility.yul\":7109:7112   */\n      dup3\n        /* \"#utility.yul\":7106:7117   */\n      gt\n        /* \"#utility.yul\":7103:7549   */\n      iszero\n      tag_144\n      jumpi\n        /* \"#utility.yul\":7148:7186   */\n      tag_145\n        /* \"#utility.yul\":7180:7185   */\n      dup2\n        /* \"#utility.yul\":7148:7186   */\n      tag_45\n      jump\t// in\n    tag_145:\n        /* \"#utility.yul\":7232:7261   */\n      tag_146\n        /* \"#utility.yul\":7250:7260   */\n      dup5\n        /* \"#utility.yul\":7232:7261   */\n      tag_46\n      jump\t// in\n    tag_146:\n        /* \"#utility.yul\":7222:7230   */\n      dup2\n        /* \"#utility.yul\":7218:7262   */\n      add\n        /* \"#utility.yul\":7415:7417   */\n      0x20\n        /* \"#utility.yul\":7403:7413   */\n      dup6\n        /* \"#utility.yul\":7400:7418   */\n      lt\n        /* \"#utility.yul\":7397:7446   */\n      iszero\n      tag_147\n      jumpi\n        /* \"#utility.yul\":7436:7444   */\n      dup2\n        /* \"#utility.yul\":7421:7444   */\n      swap1\n      pop\n        /* \"#utility.yul\":7397:7446   */\n    tag_147:\n        /* \"#utility.yul\":7459:7539   */\n      tag_148\n        /* \"#utility.yul\":7515:7537   */\n      tag_149\n        /* \"#utility.yul\":7533:7536   */\n      dup6\n        /* \"#utility.yul\":7515:7537   */\n      tag_46\n      jump\t// in\n    tag_149:\n        /* \"#utility.yul\":7505:7513   */\n      dup4\n        /* \"#utility.yul\":7501:7538   */\n      add\n        /* \"#utility.yul\":7488:7499   */\n      dup3\n        /* \"#utility.yul\":7459:7539   */\n      tag_56\n      jump\t// in\n    tag_148:\n        /* \"#utility.yul\":7118:7549   */\n      pop\n      pop\n        /* \"#utility.yul\":7103:7549   */\n    tag_144:\n        /* \"#utility.yul\":7013:7556   */\n      pop\n      pop\n      pop\n      jump\t// out\n        /* \"#utility.yul\":7562:7679   */\n    tag_58:\n        /* \"#utility.yul\":7616:7624   */\n      0x00\n        /* \"#utility.yul\":7666:7671   */\n      dup3\n        /* \"#utility.yul\":7660:7664   */\n      dup3\n        /* \"#utility.yul\":7656:7672   */\n      shr\n        /* \"#utility.yul\":7635:7672   */\n      swap1\n      pop\n        /* \"#utility.yul\":7562:7679   */\n      swap3\n      swap2\n      pop\n      pop\n      jump\t// out\n        /* \"#utility.yul\":7685:7854   */\n    tag_59:\n        /* \"#utility.yul\":7729:7735   */\n      0x00\n        /* \"#utility.yul\":7762:7813   */\n      tag_152\n        /* \"#utility.yul\":7810:7811   */\n      0x00\n        /* \"#utility.yul\":7806:7812   */\n      not\n        /* \"#utility.yul\":7798:7803   */\n      dup5\n        /* \"#utility.yul\":7795:7796   */\n      0x08\n        /* \"#utility.yul\":7791:7804   */\n      mul\n        /* \"#utility.yul\":7762:7813   */\n      tag_58\n      jump\t// in\n    tag_152:\n        /* \"#utility.yul\":7758:7814   */\n      not\n        /* \"#utility.yul\":7843:7847   */\n      dup1\n        /* \"#utility.yul\":7837:7841   */\n      dup4\n        /* \"#utility.yul\":7833:7848   */\n      and\n        /* \"#utility.yul\":7823:7848   */\n      swap2\n      pop\n        /* \"#utility.yul\":7736:7854   */\n      pop\n        /* \"#utility.yul\":7685:7854   */\n      swap3\n      swap2\n      pop\n      pop\n      jump\t// out\n        /* \"#utility.yul\":7859:8154   */\n    tag_60:\n        /* \"#utility.yul\":7935:7939   */\n      0x00\n        /* \"#utility.yul\":8081:8110   */\n      tag_154\n        /* \"#utility.yul\":8106:8109   */\n      dup4\n        /* \"#utility.yul\":8100:8104   */\n      dup4\n        /* \"#utility.yul\":8081:8110   */\n      tag_59\n      jump\t// in\n    tag_154:\n        /* \"#utility.yul\":8073:8110   */\n      swap2\n      pop\n        /* \"#utility.yul\":8143:8146   */\n      dup3\n        /* \"#utility.yul\":8140:8141   */\n      0x02\n        /* \"#utility.yul\":8136:8147   */\n      mul\n        /* \"#utility.yul\":8130:8134   */\n      dup3\n        /* \"#utility.yul\":8127:8148   */\n      or\n        /* \"#utility.yul\":8119:8148   */\n      swap1\n      pop\n        /* \"#utility.yul\":7859:8154   */\n      swap3\n      swap2\n      pop\n      pop\n      jump\t// out\n        /* \"#utility.yul\":8159:9554   */\n    tag_17:\n        /* \"#utility.yul\":8276:8313   */\n      tag_156\n        /* \"#utility.yul\":8309:8312   */\n      dup3\n        /* \"#utility.yul\":8276:8313   */\n      tag_40\n      jump\t// in\n    tag_156:\n        /* \"#utility.yul\":8378:8396   */\n      0xffffffffffffffff\n        /* \"#utility.yul\":8370:8376   */\n      dup2\n        /* \"#utility.yul\":8367:8397   */\n      gt\n        /* \"#utility.yul\":8364:8420   */\n      iszero\n      tag_157\n      jumpi\n        /* \"#utility.yul\":8400:8418   */\n      tag_158\n      tag_31\n      jump\t// in\n    tag_158:\n        /* \"#utility.yul\":8364:8420   */\n    tag_157:\n        /* \"#utility.yul\":8444:8482   */\n      tag_159\n        /* \"#utility.yul\":8476:8480   */\n      dup3\n        /* \"#utility.yul\":8470:8481   */\n      sload\n        /* \"#utility.yul\":8444:8482   */\n      tag_20\n      jump\t// in\n    tag_159:\n        /* \"#utility.yul\":8529:8596   */\n      tag_160\n        /* \"#utility.yul\":8589:8595   */\n      dup3\n        /* \"#utility.yul\":8581:8587   */\n      dup3\n        /* \"#utility.yul\":8575:8579   */\n      dup6\n        /* \"#utility.yul\":8529:8596   */\n      tag_57\n      jump\t// in\n    tag_160:\n        /* \"#utility.yul\":8623:8624   */\n      0x00\n        /* \"#utility.yul\":8647:8651   */\n      0x20\n        /* \"#utility.yul\":8634:8651   */\n      swap1\n      pop\n        /* \"#utility.yul\":8679:8681   */\n      0x1f\n        /* \"#utility.yul\":8671:8677   */\n      dup4\n        /* \"#utility.yul\":8668:8682   */\n      gt\n        /* \"#utility.yul\":8696:8697   */\n      0x01\n        /* \"#utility.yul\":8691:9309   */\n      dup2\n      eq\n      tag_162\n      jumpi\n        /* \"#utility.yul\":9353:9354   */\n      0x00\n        /* \"#utility.yul\":9370:9376   */\n      dup5\n        /* \"#utility.yul\":9367:9444   */\n      iszero\n      tag_163\n      jumpi\n        /* \"#utility.yul\":9419:9428   */\n      dup3\n        /* \"#utility.yul\":9414:9417   */\n      dup8\n        /* \"#utility.yul\":9410:9429   */\n      add\n        /* \"#utility.yul\":9404:9430   */\n      mload\n        /* \"#utility.yul\":9395:9430   */\n      swap1\n      pop\n        /* \"#utility.yul\":9367:9444   */\n    tag_163:\n        /* \"#utility.yul\":9470:9537   */\n      tag_164\n        /* \"#utility.yul\":9530:9536   */\n      dup6\n        /* \"#utility.yul\":9523:9528   */\n      dup3\n        /* \"#utility.yul\":9470:9537   */\n      tag_60\n      jump\t// in\n    tag_164:\n        /* \"#utility.yul\":9464:9468   */\n      dup7\n        /* \"#utility.yul\":9457:9538   */\n      sstore\n        /* \"#utility.yul\":9326:9548   */\n      pop\n        /* \"#utility.yul\":8661:9548   */\n      jump(tag_161)\n        /* \"#utility.yul\":8691:9309   */\n    tag_162:\n        /* \"#utility.yul\":8743:8747   */\n      0x1f\n        /* \"#utility.yul\":8739:8748   */\n      not\n        /* \"#utility.yul\":8731:8737   */\n      dup5\n        /* \"#utility.yul\":8727:8749   */\n      and\n        /* \"#utility.yul\":8777:8814   */\n      tag_165\n        /* \"#utility.yul\":8809:8813   */\n      dup7\n        /* \"#utility.yul\":8777:8814   */\n      tag_45\n      jump\t// in\n    tag_165:\n        /* \"#utility.yul\":8836:8837   */\n      0x00\n        /* \"#utility.yul\":8850:9058   */\n    tag_166:\n        /* \"#utility.yul\":8864:8871   */\n      dup3\n        /* \"#utility.yul\":8861:8862   */\n      dup2\n        /* \"#utility.yul\":8858:8872   */\n      lt\n        /* \"#utility.yul\":8850:9058   */\n      iszero\n      tag_168\n      jumpi\n        /* \"#utility.yul\":8943:8952   */\n      dup5\n        /* \"#utility.yul\":8938:8941   */\n      dup10\n        /* \"#utility.yul\":8934:8953   */\n      add\n        /* \"#utility.yul\":8928:8954   */\n      mload\n        /* \"#utility.yul\":8920:8926   */\n      dup3\n        /* \"#utility.yul\":8913:8955   */\n      sstore\n        /* \"#utility.yul\":8994:8995   */\n      0x01\n        /* \"#utility.yul\":8986:8992   */\n      dup3\n        /* \"#utility.yul\":8982:8996   */\n      add\n        /* \"#utility.yul\":8972:8996   */\n      swap2\n      pop\n        /* \"#utility.yul\":9041:9043   */\n      0x20\n        /* \"#utility.yul\":9030:9039   */\n      dup6\n        /* \"#utility.yul\":9026:9044   */\n      add\n        /* \"#utility.yul\":9013:9044   */\n      swap5\n      pop\n        /* \"#utility.yul\":8887:8891   */\n      0x20\n        /* \"#utility.yul\":8884:8885   */\n      dup2\n        /* \"#utility.yul\":8880:8892   */\n      add\n        /* \"#utility.yul\":8875:8892   */\n      swap1\n      pop\n        /* \"#utility.yul\":8850:9058   */\n      jump(tag_166)\n    tag_168:\n        /* \"#utility.yul\":9086:9092   */\n      dup7\n        /* \"#utility.yul\":9077:9084   */\n      dup4\n        /* \"#utility.yul\":9074:9093   */\n      lt\n        /* \"#utility.yul\":9071:9250   */\n      iszero\n      tag_169\n      jumpi\n        /* \"#utility.yul\":9144:9153   */\n      dup5\n        /* \"#utility.yul\":9139:9142   */\n      dup10\n        /* \"#utility.yul\":9135:9154   */\n      add\n        /* \"#utility.yul\":9129:9155   */\n      mload\n        /* \"#utility.yul\":9187:9235   */\n      tag_170\n        /* \"#utility.yul\":9229:9233   */\n      0x1f\n        /* \"#utility.yul\":9221:9227   */\n      dup10\n        /* \"#utility.yul\":9217:9234   */\n      and\n        /* \"#utility.yul\":9206:9215   */\n      dup3\n        /* \"#utility.yul\":9187:9235   */\n      tag_59\n      jump\t// in\n    tag_170:\n        /* \"#utility.yul\":9179:9185   */\n      dup4\n        /* \"#utility.yul\":9172:9236   */\n      sstore\n        /* \"#utility.yul\":9094:9250   */\n      pop\n        /* \"#utility.yul\":9071:9250   */\n    tag_169:\n        /* \"#utility.yul\":9296:9297   */\n      0x01\n        /* \"#utility.yul\":9292:9293   */\n      0x02\n        /* \"#utility.yul\":9284:9290   */\n      dup9\n        /* \"#utility.yul\":9280:9294   */\n      mul\n        /* \"#utility.yul\":9276:9298   */\n      add\n        /* \"#utility.yul\":9270:9274   */\n      dup9\n        /* \"#utility.yul\":9263:9299   */\n      sstore\n        /* \"#utility.yul\":8698:9309   */\n      pop\n      pop\n      pop\n        /* \"#utility.yul\":8661:9548   */\n    tag_161:\n      pop\n        /* \"#utility.yul\":8251:9554   */\n      pop\n      pop\n      pop\n        /* \"#utility.yul\":8159:9554   */\n      pop\n      pop\n      jump\t// out\n\n    auxdata: 0xa2646970667358221220572f8feb3a03783c86371d0bddd7bfbc705ce63303df9b5c1dcd864e4f611b0864736f6c634300081e0033\n}\n",
				"bytecode": {
					"linkReferences": {},
					"object": "6080604052348015600e575f5ffd5b506107788061001c5f395ff3fe608060405234801561000f575f5ffd5b5060043610610034575f3560e01c8063232ac7fa14610038578063dd43e60b14610068575b5f5ffd5b610052600480360381019061004d9190610373565b610086565b60405161005f91906103d4565b60405180910390f35b610070610159565b60405161007d919061044d565b60405180910390f35b5f5f60405180604001604052803373ffffffffffffffffffffffffffffffffffffffff168152602001848152509050805f5f3373ffffffffffffffffffffffffffffffffffffffff1673ffffffffffffffffffffffffffffffffffffffff1681526020019081526020015f205f820151815f015f6101000a81548173ffffffffffffffffffffffffffffffffffffffff021916908373ffffffffffffffffffffffffffffffffffffffff160217905550602082015181600101908161014b9190610673565b509050506001915050919050565b60605f5f3373ffffffffffffffffffffffffffffffffffffffff1673ffffffffffffffffffffffffffffffffffffffff1681526020019081526020015f2060010180546101a59061049a565b80601f01602080910402602001604051908101604052809291908181526020018280546101d19061049a565b801561021c5780601f106101f35761010080835404028352916020019161021c565b820191905f5260205f20905b8154815290600101906020018083116101ff57829003601f168201915b5050505050905090565b5f604051905090565b5f5ffd5b5f5ffd5b5f5ffd5b5f5ffd5b5f601f19601f8301169050919050565b7f4e487b71000000000000000000000000000000000000000000000000000000005f52604160045260245ffd5b6102858261023f565b810181811067ffffffffffffffff821117156102a4576102a361024f565b5b80604052505050565b5f6102b6610226565b90506102c2828261027c565b919050565b5f67ffffffffffffffff8211156102e1576102e061024f565b5b6102ea8261023f565b9050602081019050919050565b828183375f83830152505050565b5f610317610312846102c7565b6102ad565b9050828152602081018484840111156103335761033261023b565b5b61033e8482856102f7565b509392505050565b5f82601f83011261035a57610359610237565b5b813561036a848260208601610305565b91505092915050565b5f602082840312156103885761038761022f565b5b5f82013567ffffffffffffffff8111156103a5576103a4610233565b5b6103b184828501610346565b91505092915050565b5f8115159050919050565b6103ce816103ba565b82525050565b5f6020820190506103e75f8301846103c5565b92915050565b5f81519050919050565b5f82825260208201905092915050565b8281835e5f83830152505050565b5f61041f826103ed565b61042981856103f7565b9350610439818560208601610407565b6104428161023f565b840191505092915050565b5f6020820190508181035f8301526104658184610415565b905092915050565b7f4e487b71000000000000000000000000000000000000000000000000000000005f52602260045260245ffd5b5f60028204905060018216806104b157607f821691505b6020821081036104c4576104c361046d565b5b50919050565b5f819050815f5260205f209050919050565b5f6020601f8301049050919050565b5f82821b905092915050565b5f600883026105267fffffffffffffffffffffffffffffffffffffffffffffffffffffffffffffffff826104eb565b61053086836104eb565b95508019841693508086168417925050509392505050565b5f819050919050565b5f819050919050565b5f61057461056f61056a84610548565b610551565b610548565b9050919050565b5f819050919050565b61058d8361055a565b6105a16105998261057b565b8484546104f7565b825550505050565b5f5f905090565b6105b86105a9565b6105c3818484610584565b505050565b5b818110156105e6576105db5f826105b0565b6001810190506105c9565b5050565b601f82111561062b576105fc816104ca565b610605846104dc565b81016020851015610614578190505b610628610620856104dc565b8301826105c8565b50505b505050565b5f82821c905092915050565b5f61064b5f1984600802610630565b1980831691505092915050565b5f610663838361063c565b9150826002028217905092915050565b61067c826103ed565b67ffffffffffffffff8111156106955761069461024f565b5b61069f825461049a565b6106aa8282856105ea565b5f60209050601f8311600181146106db575f84156106c9578287015190505b6106d38582610658565b86555061073a565b601f1984166106e9866104ca565b5f5b82811015610710578489015182556001820191506020850194506020810190506106eb565b8683101561072d5784890151610729601f89168261063c565b8355505b6001600288020188555050505b50505050505056fea2646970667358221220572f8feb3a03783c86371d0bddd7bfbc705ce63303df9b5c1dcd864e4f611b0864736f6c634300081e0033",
					"opcodes": "PUSH1 0x80 PUSH1 0x40 MSTORE CALLVALUE DUP1 ISZERO PUSH1 0xE JUMPI PUSH0 PUSH0 REVERT JUMPDEST POP PUSH2 0x778 DUP1 PUSH2 0x1C PUSH0 CODECOPY PUSH0 RETURN INVALID PUSH1 0x80 PUSH1 0x40 MSTORE CALLVALUE DUP1 ISZERO PUSH2 0xF JUMPI PUSH0 PUSH0 REVERT JUMPDEST POP PUSH1 0x4 CALLDATASIZE LT PUSH2 0x34 JUMPI PUSH0 CALLDATALOAD PUSH1 0xE0 SHR DUP1 PUSH4 0x232AC7FA EQ PUSH2 0x38 JUMPI DUP1 PUSH4 0xDD43E60B EQ PUSH2 0x68 JUMPI JUMPDEST PUSH0 PUSH0 REVERT JUMPDEST PUSH2 0x52 PUSH1 0x4 DUP1 CALLDATASIZE SUB DUP2 ADD SWAP1 PUSH2 0x4D SWAP2 SWAP1 PUSH2 0x373 JUMP JUMPDEST PUSH2 0x86 JUMP JUMPDEST PUSH1 0x40 MLOAD PUSH2 0x5F SWAP2 SWAP1 PUSH2 0x3D4 JUMP JUMPDEST PUSH1 0x40 MLOAD DUP1 SWAP2 SUB SWAP1 RETURN JUMPDEST PUSH2 0x70 PUSH2 0x159 JUMP JUMPDEST PUSH1 0x40 MLOAD PUSH2 0x7D SWAP2 SWAP1 PUSH2 0x44D JUMP JUMPDEST PUSH1 0x40 MLOAD DUP1 SWAP2 SUB SWAP1 RETURN JUMPDEST PUSH0 PUSH0 PUSH1 0x40 MLOAD DUP1 PUSH1 0x40 ADD PUSH1 0x40 MSTORE DUP1 CALLER PUSH20 0xFFFFFFFFFFFFFFFFFFFFFFFFFFFFFFFFFFFFFFFF AND DUP2 MSTORE PUSH1 0x20 ADD DUP5 DUP2 MSTORE POP SWAP1 POP DUP1 PUSH0 PUSH0 CALLER PUSH20 0xFFFFFFFFFFFFFFFFFFFFFFFFFFFFFFFFFFFFFFFF AND PUSH20 0xFFFFFFFFFFFFFFFFFFFFFFFFFFFFFFFFFFFFFFFF AND DUP2 MSTORE PUSH1 0x20 ADD SWAP1 DUP2 MSTORE PUSH1 0x20 ADD PUSH0 KECCAK256 PUSH0 DUP3 ADD MLOAD DUP2 PUSH0 ADD PUSH0 PUSH2 0x100 EXP DUP2 SLOAD DUP2 PUSH20 0xFFFFFFFFFFFFFFFFFFFFFFFFFFFFFFFFFFFFFFFF MUL NOT AND SWAP1 DUP4 PUSH20 0xFFFFFFFFFFFFFFFFFFFFFFFFFFFFFFFFFFFFFFFF AND MUL OR SWAP1 SSTORE POP PUSH1 0x20 DUP3 ADD MLOAD DUP2 PUSH1 0x1 ADD SWAP1 DUP2 PUSH2 0x14B SWAP2 SWAP1 PUSH2 0x673 JUMP JUMPDEST POP SWAP1 POP POP PUSH1 0x1 SWAP2 POP POP SWAP2 SWAP1 POP JUMP JUMPDEST PUSH1 0x60 PUSH0 PUSH0 CALLER PUSH20 0xFFFFFFFFFFFFFFFFFFFFFFFFFFFFFFFFFFFFFFFF AND PUSH20 0xFFFFFFFFFFFFFFFFFFFFFFFFFFFFFFFFFFFFFFFF AND DUP2 MSTORE PUSH1 0x20 ADD SWAP1 DUP2 MSTORE PUSH1 0x20 ADD PUSH0 KECCAK256 PUSH1 0x1 ADD DUP1 SLOAD PUSH2 0x1A5 SWAP1 PUSH2 0x49A JUMP JUMPDEST DUP1 PUSH1 0x1F ADD PUSH1 0x20 DUP1 SWAP2 DIV MUL PUSH1 0x20 ADD PUSH1 0x40 MLOAD SWAP1 DUP2 ADD PUSH1 0x40 MSTORE DUP1 SWAP3 SWAP2 SWAP1 DUP2 DUP2 MSTORE PUSH1 0x20 ADD DUP3 DUP1 SLOAD PUSH2 0x1D1 SWAP1 PUSH2 0x49A JUMP JUMPDEST DUP1 ISZERO PUSH2 0x21C JUMPI DUP1 PUSH1 0x1F LT PUSH2 0x1F3 JUMPI PUSH2 0x100 DUP1 DUP4 SLOAD DIV MUL DUP4 MSTORE SWAP2 PUSH1 0x20 ADD SWAP2 PUSH2 0x21C JUMP JUMPDEST DUP3 ADD SWAP2 SWAP1 PUSH0 MSTORE PUSH1 0x20 PUSH0 KECCAK256 SWAP1 JUMPDEST DUP2 SLOAD DUP2 MSTORE SWAP1 PUSH1 0x1 ADD SWAP1 PUSH1 0x20 ADD DUP1 DUP4 GT PUSH2 0x1FF JUMPI DUP3 SWAP1 SUB PUSH1 0x1F AND DUP3 ADD SWAP2 JUMPDEST POP POP POP POP POP SWAP1 POP SWAP1 JUMP JUMPDEST PUSH0 PUSH1 0x40 MLOAD SWAP1 POP SWAP1 JUMP JUMPDEST PUSH0 PUSH0 REVERT JUMPDEST PUSH0 PUSH0 REVERT JUMPDEST PUSH0 PUSH0 REVERT JUMPDEST PUSH0 PUSH0 REVERT JUMPDEST PUSH0 PUSH1 0x1F NOT PUSH1 0x1F DUP4 ADD AND SWAP1 POP SWAP2 SWAP1 POP JUMP JUMPDEST PUSH32 0x4E487B7100000000000000000000000000000000000000000000000000000000 PUSH0 MSTORE PUSH1 0x41 PUSH1 0x4 MSTORE PUSH1 0x24 PUSH0 REVERT JUMPDEST PUSH2 0x285 DUP3 PUSH2 0x23F JUMP JUMPDEST DUP2 ADD DUP2 DUP2 LT PUSH8 0xFFFFFFFFFFFFFFFF DUP3 GT OR ISZERO PUSH2 0x2A4 JUMPI PUSH2 0x2A3 PUSH2 0x24F JUMP JUMPDEST JUMPDEST DUP1 PUSH1 0x40 MSTORE POP POP POP JUMP JUMPDEST PUSH0 PUSH2 0x2B6 PUSH2 0x226 JUMP JUMPDEST SWAP1 POP PUSH2 0x2C2 DUP3 DUP3 PUSH2 0x27C JUMP JUMPDEST SWAP2 SWAP1 POP JUMP JUMPDEST PUSH0 PUSH8 0xFFFFFFFFFFFFFFFF DUP3 GT ISZERO PUSH2 0x2E1 JUMPI PUSH2 0x2E0 PUSH2 0x24F JUMP JUMPDEST JUMPDEST PUSH2 0x2EA DUP3 PUSH2 0x23F JUMP JUMPDEST SWAP1 POP PUSH1 0x20 DUP2 ADD SWAP1 POP SWAP2 SWAP1 POP JUMP JUMPDEST DUP3 DUP2 DUP4 CALLDATACOPY PUSH0 DUP4 DUP4 ADD MSTORE POP POP POP JUMP JUMPDEST PUSH0 PUSH2 0x317 PUSH2 0x312 DUP5 PUSH2 0x2C7 JUMP JUMPDEST PUSH2 0x2AD JUMP JUMPDEST SWAP1 POP DUP3 DUP2 MSTORE PUSH1 0x20 DUP2 ADD DUP5 DUP5 DUP5 ADD GT ISZERO PUSH2 0x333 JUMPI PUSH2 0x332 PUSH2 0x23B JUMP JUMPDEST JUMPDEST PUSH2 0x33E DUP5 DUP3 DUP6 PUSH2 0x2F7 JUMP JUMPDEST POP SWAP4 SWAP3 POP POP POP JUMP JUMPDEST PUSH0 DUP3 PUSH1 0x1F DUP4 ADD SLT PUSH2 0x35A JUMPI PUSH2 0x359 PUSH2 0x237 JUMP JUMPDEST JUMPDEST DUP2 CALLDATALOAD PUSH2 0x36A DUP5 DUP3 PUSH1 0x20 DUP7 ADD PUSH2 0x305 JUMP JUMPDEST SWAP2 POP POP SWAP3 SWAP2 POP POP JUMP JUMPDEST PUSH0 PUSH1 0x20 DUP3 DUP5 SUB SLT ISZERO PUSH2 0x388 JUMPI PUSH2 0x387 PUSH2 0x22F JUMP JUMPDEST JUMPDEST PUSH0 DUP3 ADD CALLDATALOAD PUSH8 0xFFFFFFFFFFFFFFFF DUP2 GT ISZERO PUSH2 0x3A5 JUMPI PUSH2 0x3A4 PUSH2 0x233 JUMP JUMPDEST JUMPDEST PUSH2 0x3B1 DUP5 DUP3 DUP6 ADD PUSH2 0x346 JUMP JUMPDEST SWAP2 POP POP SWAP3 SWAP2 POP POP JUMP JUMPDEST PUSH0 DUP2 ISZERO ISZERO SWAP1 POP SWAP2 SWAP1 POP JUMP JUMPDEST PUSH2 0x3CE DUP2 PUSH2 0x3BA JUMP JUMPDEST DUP3 MSTORE POP POP JUMP JUMPDEST PUSH0 PUSH1 0x20 DUP3 ADD SWAP1 POP PUSH2 0x3E7 PUSH0 DUP4 ADD DUP5 PUSH2 0x3C5 JUMP JUMPDEST SWAP3 SWAP2 POP POP JUMP JUMPDEST PUSH0 DUP2 MLOAD SWAP1 POP SWAP2 SWAP1 POP JUMP JUMPDEST PUSH0 DUP3 DUP3 MSTORE PUSH1 0x20 DUP3 ADD SWAP1 POP SWAP3 SWAP2 POP POP JUMP JUMPDEST DUP3 DUP2 DUP4 MCOPY PUSH0 DUP4 DUP4 ADD MSTORE POP POP POP JUMP JUMPDEST PUSH0 PUSH2 0x41F DUP3 PUSH2 0x3ED JUMP JUMPDEST PUSH2 0x429 DUP2 DUP6 PUSH2 0x3F7 JUMP JUMPDEST SWAP4 POP PUSH2 0x439 DUP2 DUP6 PUSH1 0x20 DUP7 ADD PUSH2 0x407 JUMP JUMPDEST PUSH2 0x442 DUP2 PUSH2 0x23F JUMP JUMPDEST DUP5 ADD SWAP2 POP POP SWAP3 SWAP2 POP POP JUMP JUMPDEST PUSH0 PUSH1 0x20 DUP3 ADD SWAP1 POP DUP2 DUP2 SUB PUSH0 DUP4 ADD MSTORE PUSH2 0x465 DUP2 DUP5 PUSH2 0x415 JUMP JUMPDEST SWAP1 POP SWAP3 SWAP2 POP POP JUMP JUMPDEST PUSH32 0x4E487B7100000000000000000000000000000000000000000000000000000000 PUSH0 MSTORE PUSH1 0x22 PUSH1 0x4 MSTORE PUSH1 0x24 PUSH0 REVERT JUMPDEST PUSH0 PUSH1 0x2 DUP3 DIV SWAP1 POP PUSH1 0x1 DUP3 AND DUP1 PUSH2 0x4B1 JUMPI PUSH1 0x7F DUP3 AND SWAP2 POP JUMPDEST PUSH1 0x20 DUP3 LT DUP2 SUB PUSH2 0x4C4 JUMPI PUSH2 0x4C3 PUSH2 0x46D JUMP JUMPDEST JUMPDEST POP SWAP2 SWAP1 POP JUMP JUMPDEST PUSH0 DUP2 SWAP1 POP DUP2 PUSH0 MSTORE PUSH1 0x20 PUSH0 KECCAK256 SWAP1 POP SWAP2 SWAP1 POP JUMP JUMPDEST PUSH0 PUSH1 0x20 PUSH1 0x1F DUP4 ADD DIV SWAP1 POP SWAP2 SWAP1 POP JUMP JUMPDEST PUSH0 DUP3 DUP3 SHL SWAP1 POP SWAP3 SWAP2 POP POP JUMP JUMPDEST PUSH0 PUSH1 0x8 DUP4 MUL PUSH2 0x526 PUSH32 0xFFFFFFFFFFFFFFFFFFFFFFFFFFFFFFFFFFFFFFFFFFFFFFFFFFFFFFFFFFFFFFFF DUP3 PUSH2 0x4EB JUMP JUMPDEST PUSH2 0x530 DUP7 DUP4 PUSH2 0x4EB JUMP JUMPDEST SWAP6 POP DUP1 NOT DUP5 AND SWAP4 POP DUP1 DUP7 AND DUP5 OR SWAP3 POP POP POP SWAP4 SWAP3 POP POP POP JUMP JUMPDEST PUSH0 DUP2 SWAP1 POP SWAP2 SWAP1 POP JUMP JUMPDEST PUSH0 DUP2 SWAP1 POP SWAP2 SWAP1 POP JUMP JUMPDEST PUSH0 PUSH2 0x574 PUSH2 0x56F PUSH2 0x56A DUP5 PUSH2 0x548 JUMP JUMPDEST PUSH2 0x551 JUMP JUMPDEST PUSH2 0x548 JUMP JUMPDEST SWAP1 POP SWAP2 SWAP1 POP JUMP JUMPDEST PUSH0 DUP2 SWAP1 POP SWAP2 SWAP1 POP JUMP JUMPDEST PUSH2 0x58D DUP4 PUSH2 0x55A JUMP JUMPDEST PUSH2 0x5A1 PUSH2 0x599 DUP3 PUSH2 0x57B JUMP JUMPDEST DUP5 DUP5 SLOAD PUSH2 0x4F7 JUMP JUMPDEST DUP3 SSTORE POP POP POP POP JUMP JUMPDEST PUSH0 PUSH0 SWAP1 POP SWAP1 JUMP JUMPDEST PUSH2 0x5B8 PUSH2 0x5A9 JUMP JUMPDEST PUSH2 0x5C3 DUP2 DUP5 DUP5 PUSH2 0x584 JUMP JUMPDEST POP POP POP JUMP JUMPDEST JUMPDEST DUP2 DUP2 LT ISZERO PUSH2 0x5E6 JUMPI PUSH2 0x5DB PUSH0 DUP3 PUSH2 0x5B0 JUMP JUMPDEST PUSH1 0x1 DUP2 ADD SWAP1 POP PUSH2 0x5C9 JUMP JUMPDEST POP POP JUMP JUMPDEST PUSH1 0x1F DUP3 GT ISZERO PUSH2 0x62B JUMPI PUSH2 0x5FC DUP2 PUSH2 0x4CA JUMP JUMPDEST PUSH2 0x605 DUP5 PUSH2 0x4DC JUMP JUMPDEST DUP2 ADD PUSH1 0x20 DUP6 LT ISZERO PUSH2 0x614 JUMPI DUP2 SWAP1 POP JUMPDEST PUSH2 0x628 PUSH2 0x620 DUP6 PUSH2 0x4DC JUMP JUMPDEST DUP4 ADD DUP3 PUSH2 0x5C8 JUMP JUMPDEST POP POP JUMPDEST POP POP POP JUMP JUMPDEST PUSH0 DUP3 DUP3 SHR SWAP1 POP SWAP3 SWAP2 POP POP JUMP JUMPDEST PUSH0 PUSH2 0x64B PUSH0 NOT DUP5 PUSH1 0x8 MUL PUSH2 0x630 JUMP JUMPDEST NOT DUP1 DUP4 AND SWAP2 POP POP SWAP3 SWAP2 POP POP JUMP JUMPDEST PUSH0 PUSH2 0x663 DUP4 DUP4 PUSH2 0x63C JUMP JUMPDEST SWAP2 POP DUP3 PUSH1 0x2 MUL DUP3 OR SWAP1 POP SWAP3 SWAP2 POP POP JUMP JUMPDEST PUSH2 0x67C DUP3 PUSH2 0x3ED JUMP JUMPDEST PUSH8 0xFFFFFFFFFFFFFFFF DUP2 GT ISZERO PUSH2 0x695 JUMPI PUSH2 0x694 PUSH2 0x24F JUMP JUMPDEST JUMPDEST PUSH2 0x69F DUP3 SLOAD PUSH2 0x49A JUMP JUMPDEST PUSH2 0x6AA DUP3 DUP3 DUP6 PUSH2 0x5EA JUMP JUMPDEST PUSH0 PUSH1 0x20 SWAP1 POP PUSH1 0x1F DUP4 GT PUSH1 0x1 DUP2 EQ PUSH2 0x6DB JUMPI PUSH0 DUP5 ISZERO PUSH2 0x6C9 JUMPI DUP3 DUP8 ADD MLOAD SWAP1 POP JUMPDEST PUSH2 0x6D3 DUP6 DUP3 PUSH2 0x658 JUMP JUMPDEST DUP7 SSTORE POP PUSH2 0x73A JUMP JUMPDEST PUSH1 0x1F NOT DUP5 AND PUSH2 0x6E9 DUP7 PUSH2 0x4CA JUMP JUMPDEST PUSH0 JUMPDEST DUP3 DUP2 LT ISZERO PUSH2 0x710 JUMPI DUP5 DUP10 ADD MLOAD DUP3 SSTORE PUSH1 0x1 DUP3 ADD SWAP2 POP PUSH1 0x20 DUP6 ADD SWAP5 POP PUSH1 0x20 DUP2 ADD SWAP1 POP PUSH2 0x6EB JUMP JUMPDEST DUP7 DUP4 LT ISZERO PUSH2 0x72D JUMPI DUP5 DUP10 ADD MLOAD PUSH2 0x729 PUSH1 0x1F DUP10 AND DUP3 PUSH2 0x63C JUMP JUMPDEST DUP4 SSTORE POP JUMPDEST PUSH1 0x1 PUSH1 0x2 DUP9 MUL ADD DUP9 SSTORE POP POP POP JUMPDEST POP POP POP POP POP POP JUMP INVALID LOG2 PUSH5 0x6970667358 0x22 SLT KECCAK256 JUMPI 0x2F DUP16 0xEB GASPRICE SUB PUSH25 0x3C86371D0BDDD7BFBC705CE63303DF9B5C1DCD864E4F611B08 PUSH5 0x736F6C6343 STOP ADDMOD 0x1E STOP CALLER "
				},
				"gasEstimates": {
					"creation": {
						"codeDepositCost": "382400",
						"executionCost": "416",
						"totalCost": "382816"
					},
					"external": {
						"guardarMensagem(string)": "infinite",
						"lerMensagem()": "infinite"
					}
				},
				"methodIdentifiers": {
					"guardarMensagem(string)": "232ac7fa",
					"lerMensagem()": "dd43e60b"
				}
			},
			"storageLayout": {
				"storage": [
					{
						"astId": 11,
						"contract": "AulaRecife/SeedGuard.sol:SeedGuard",
						"label": "usuarios",
						"offset": 0,
						"slot": "0",
						"type": "t_mapping(t_address,t_struct(Usuario)6_storage)"
					}
				],
				"types": {
					"t_address": {
						"encoding": "inplace",
						"label": "address",
						"numberOfBytes": "20"
					},
					"t_mapping(t_address,t_struct(Usuario)6_storage)": {
						"encoding": "mapping",
						"key": "t_address",
						"label": "mapping(address => struct SeedGuard.Usuario)",
						"numberOfBytes": "32",
						"value": "t_struct(Usuario)6_storage"
					},
					"t_string_storage": {
						"encoding": "bytes",
						"label": "string",
						"numberOfBytes": "32"
					},
					"t_struct(Usuario)6_storage": {
						"encoding": "inplace",
						"label": "struct SeedGuard.Usuario",
						"members": [
							{
								"astId": 3,
								"contract": "AulaRecife/SeedGuard.sol:SeedGuard",
								"label": "endereco",
								"offset": 0,
								"slot": "0",
								"type": "t_address"
							},
							{
								"astId": 5,
								"contract": "AulaRecife/SeedGuard.sol:SeedGuard",
								"label": "mensagem",
								"offset": 0,
								"slot": "1",
								"type": "t_string_storage"
							}
						],
						"numberOfBytes": "64"
					}
				}
			},
			"userdoc": {
				"kind": "user",
				"methods": {},
				"version": 1
			}
		}
	}
}