{
	"AulaRecife/Cofre.sol": {
		"Cofre": {
			"abi": [
				{
					"inputs": [],
					"stateMutability": "nonpayable",
					"type": "constructor"
				},
				{
					"inputs": [],
					"name": "depositar",
					"outputs": [],
					"stateMutability": "payable",
					"type": "function"
				},
				{
					"inputs": [],
					"name": "dono",
					"outputs": [
						{
							"internalType": "address",
							"name": "",
							"type": "address"
						}
					],
					"stateMutability": "view",
					"type": "function"
				},
				{
					"inputs": [],
					"name": "saldoDoContrato",
					"outputs": [
						{
							"internalType": "uint256",
							"name": "",
							"type": "uint256"
						}
					],
					"stateMutability": "view",
					"type": "function"
				},
				{
					"inputs": [
						{
							"internalType": "address payable",
							"name": "destinatario",
							"type": "address"
						},
						{
							"internalType": "uint256",
							"name": "valor",
							"type": "uint256"
						}
					],
					"name": "transferirPara",
					"outputs": [],
					"stateMutability": "nonpayable",
					"type": "function"
				},
				{
					"stateMutability": "payable",
					"type": "receive"
				}
			],
			"devdoc": {
				"kind": "dev",
				"methods": {},
				"version": 1
			},
			"evm": {
				"assembly": "    /* \"AulaRecife/Cofre.sol\":60:1194  contract Cofre {... */\n  mstore(0x40, 0x80)\n    /* \"AulaRecife/Cofre.sol\":108:158  constructor() {... */\n  callvalue\n  dup1\n  iszero\n  tag_1\n  jumpi\n  revert(0x00, 0x00)\ntag_1:\n  pop\n    /* \"AulaRecife/Cofre.sol\":140:150  msg.sender */\n  caller\n    /* \"AulaRecife/Cofre.sol\":133:137  dono */\n  0x00\n  0x00\n    /* \"AulaRecife/Cofre.sol\":133:150  dono = msg.sender */\n  0x0100\n  exp\n  dup2\n  sload\n  dup2\n  0xffffffffffffffffffffffffffffffffffffffff\n  mul\n  not\n  and\n  swap1\n  dup4\n  0xffffffffffffffffffffffffffffffffffffffff\n  and\n  mul\n  or\n  swap1\n  sstore\n  pop\n    /* \"AulaRecife/Cofre.sol\":60:1194  contract Cofre {... */\n  dataSize(sub_0)\n  dup1\n  dataOffset(sub_0)\n  0x00\n  codecopy\n  0x00\n  return\nstop\n\nsub_0: assembly {\n        /* \"AulaRecife/Cofre.sol\":60:1194  contract Cofre {... */\n      mstore(0x40, 0x80)\n      jumpi(tag_1, lt(calldatasize, 0x04))\n      shr(0xe0, calldataload(0x00))\n      dup1\n      0x3d922f90\n      eq\n      tag_3\n      jumpi\n      dup1\n      0x40a8b75a\n      eq\n      tag_4\n      jumpi\n      dup1\n      0x70514bea\n      eq\n      tag_5\n      jumpi\n      dup1\n      0xbcb753fe\n      eq\n      tag_6\n      jumpi\n      jump(tag_2)\n    tag_1:\n      jumpi(tag_2, calldatasize)\n      stop\n    tag_2:\n      revert(0x00, 0x00)\n        /* \"AulaRecife/Cofre.sol\":234:350  function depositar() public payable {... */\n    tag_3:\n      tag_9\n      tag_10\n      jump\t// in\n    tag_9:\n      stop\n        /* \"AulaRecife/Cofre.sol\":893:1007  function saldoDoContrato() public apenasDono view returns (uint256){... */\n    tag_4:\n      callvalue\n      dup1\n      iszero\n      tag_11\n      jumpi\n      revert(0x00, 0x00)\n    tag_11:\n      pop\n      tag_12\n      tag_13\n      jump\t// in\n    tag_12:\n      mload(0x40)\n      tag_14\n      swap2\n      swap1\n      tag_15\n      jump\t// in\n    tag_14:\n      mload(0x40)\n      dup1\n      swap2\n      sub\n      swap1\n      return\n        /* \"AulaRecife/Cofre.sol\":82:101  address public dono */\n    tag_5:\n      callvalue\n      dup1\n      iszero\n      tag_16\n      jumpi\n      revert(0x00, 0x00)\n    tag_16:\n      pop\n      tag_17\n      tag_18\n      jump\t// in\n    tag_17:\n      mload(0x40)\n      tag_19\n      swap2\n      swap1\n      tag_20\n      jump\t// in\n    tag_19:\n      mload(0x40)\n      dup1\n      swap2\n      sub\n      swap1\n      return\n        /* \"AulaRecife/Cofre.sol\":1015:1191  function transferirPara(address payable destinatario, uint256 valor) public apenasDono temSaldo(valor) {... */\n    tag_6:\n      callvalue\n      dup1\n      iszero\n      tag_21\n      jumpi\n      revert(0x00, 0x00)\n    tag_21:\n      pop\n      tag_22\n      0x04\n      dup1\n      calldatasize\n      sub\n      dup2\n      add\n      swap1\n      tag_23\n      swap2\n      swap1\n      tag_24\n      jump\t// in\n    tag_23:\n      tag_25\n      jump\t// in\n    tag_22:\n      stop\n        /* \"AulaRecife/Cofre.sol\":234:350  function depositar() public payable {... */\n    tag_10:\n      jump\t// out\n        /* \"AulaRecife/Cofre.sol\":893:1007  function saldoDoContrato() public apenasDono view returns (uint256){... */\n    tag_13:\n        /* \"AulaRecife/Cofre.sol\":952:959  uint256 */\n      0x00\n        /* \"AulaRecife/Cofre.sol\":600:604  dono */\n      0x00\n      0x00\n      swap1\n      sload\n      swap1\n      0x0100\n      exp\n      swap1\n      div\n      0xffffffffffffffffffffffffffffffffffffffff\n      and\n        /* \"AulaRecife/Cofre.sol\":586:604  msg.sender == dono */\n      0xffffffffffffffffffffffffffffffffffffffff\n      and\n        /* \"AulaRecife/Cofre.sol\":586:596  msg.sender */\n      caller\n        /* \"AulaRecife/Cofre.sol\":586:604  msg.sender == dono */\n      0xffffffffffffffffffffffffffffffffffffffff\n      and\n      eq\n        /* \"AulaRecife/Cofre.sol\":578:638  require(msg.sender == dono, \"Apenas o dono pode transferir\") */\n      tag_28\n      jumpi\n      mload(0x40)\n      0x08c379a000000000000000000000000000000000000000000000000000000000\n      dup2\n      mstore\n      0x04\n      add\n      tag_29\n      swap1\n      tag_30\n      jump\t// in\n    tag_29:\n      mload(0x40)\n      dup1\n      swap2\n      sub\n      swap1\n      revert\n    tag_28:\n        /* \"AulaRecife/Cofre.sol\":978:999  address(this).balance */\n      selfbalance\n        /* \"AulaRecife/Cofre.sol\":971:999  return address(this).balance */\n      swap1\n      pop\n        /* \"AulaRecife/Cofre.sol\":893:1007  function saldoDoContrato() public apenasDono view returns (uint256){... */\n      swap1\n      jump\t// out\n        /* \"AulaRecife/Cofre.sol\":82:101  address public dono */\n    tag_18:\n      0x00\n      0x00\n      swap1\n      sload\n      swap1\n      0x0100\n      exp\n      swap1\n      div\n      0xffffffffffffffffffffffffffffffffffffffff\n      and\n      dup2\n      jump\t// out\n        /* \"AulaRecife/Cofre.sol\":1015:1191  function transferirPara(address payable destinatario, uint256 valor) public apenasDono temSaldo(valor) {... */\n    tag_25:\n        /* \"AulaRecife/Cofre.sol\":600:604  dono */\n      0x00\n      0x00\n      swap1\n      sload\n      swap1\n      0x0100\n      exp\n      swap1\n      div\n      0xffffffffffffffffffffffffffffffffffffffff\n      and\n        /* \"AulaRecife/Cofre.sol\":586:604  msg.sender == dono */\n      0xffffffffffffffffffffffffffffffffffffffff\n      and\n        /* \"AulaRecife/Cofre.sol\":586:596  msg.sender */\n      caller\n        /* \"AulaRecife/Cofre.sol\":586:604  msg.sender == dono */\n      0xffffffffffffffffffffffffffffffffffffffff\n      and\n      eq\n        /* \"AulaRecife/Cofre.sol\":578:638  require(msg.sender == dono, \"Apenas o dono pode transferir\") */\n      tag_33\n      jumpi\n      mload(0x40)\n      0x08c379a000000000000000000000000000000000000000000000000000000000\n      dup2\n      mstore\n      0x04\n      add\n      tag_34\n      swap1\n      tag_30\n      jump\t// in\n    tag_34:\n      mload(0x40)\n      dup1\n      swap2\n      sub\n      swap1\n      revert\n    tag_33:\n        /* \"AulaRecife/Cofre.sol\":1111:1116  valor */\n      dup1\n        /* \"AulaRecife/Cofre.sol\":811:829  valorTransferencia */\n      dup1\n        /* \"AulaRecife/Cofre.sol\":786:807  address(this).balance */\n      selfbalance\n        /* \"AulaRecife/Cofre.sol\":786:829  address(this).balance >= valorTransferencia */\n      lt\n      iszero\n        /* \"AulaRecife/Cofre.sol\":778:865  require(address(this).balance >= valorTransferencia, \"Saldo insuficiente no contrato.\") */\n      tag_36\n      jumpi\n      mload(0x40)\n      0x08c379a000000000000000000000000000000000000000000000000000000000\n      dup2\n      mstore\n      0x04\n      add\n      tag_37\n      swap1\n      tag_38\n      jump\t// in\n    tag_37:\n      mload(0x40)\n      dup1\n      swap2\n      sub\n      swap1\n      revert\n    tag_36:\n        /* \"AulaRecife/Cofre.sol\":1130:1142  bool success */\n      0x00\n        /* \"AulaRecife/Cofre.sol\":1148:1160  destinatario */\n      dup4\n        /* \"AulaRecife/Cofre.sol\":1148:1165  destinatario.call */\n      0xffffffffffffffffffffffffffffffffffffffff\n      and\n        /* \"AulaRecife/Cofre.sol\":1173:1178  valor */\n      dup4\n        /* \"AulaRecife/Cofre.sol\":1148:1183  destinatario.call{value: valor}(\"\") */\n      mload(0x40)\n      tag_40\n      swap1\n      tag_41\n      jump\t// in\n    tag_40:\n      0x00\n      mload(0x40)\n      dup1\n      dup4\n      sub\n      dup2\n      dup6\n      dup8\n      gas\n      call\n      swap3\n      pop\n      pop\n      pop\n      returndatasize\n      dup1\n      0x00\n      dup2\n      eq\n      tag_44\n      jumpi\n      mload(0x40)\n      swap2\n      pop\n      and(add(returndatasize, 0x3f), not(0x1f))\n      dup3\n      add\n      0x40\n      mstore\n      returndatasize\n      dup3\n      mstore\n      returndatasize\n      0x00\n      0x20\n      dup5\n      add\n      returndatacopy\n      jump(tag_43)\n    tag_44:\n      0x60\n      swap2\n      pop\n    tag_43:\n      pop\n        /* \"AulaRecife/Cofre.sol\":1129:1183  (bool success, ) = destinatario.call{value: valor}(\"\") */\n      pop\n      swap1\n      pop\n        /* \"AulaRecife/Cofre.sol\":1118:1191  {... */\n      pop\n        /* \"AulaRecife/Cofre.sol\":651:652  _ */\n      pop\n        /* \"AulaRecife/Cofre.sol\":1015:1191  function transferirPara(address payable destinatario, uint256 valor) public apenasDono temSaldo(valor) {... */\n      pop\n      pop\n      jump\t// out\n        /* \"#utility.yul\":7:84   */\n    tag_45:\n        /* \"#utility.yul\":44:51   */\n      0x00\n        /* \"#utility.yul\":73:78   */\n      dup2\n        /* \"#utility.yul\":62:78   */\n      swap1\n      pop\n        /* \"#utility.yul\":7:84   */\n      swap2\n      swap1\n      pop\n      jump\t// out\n        /* \"#utility.yul\":90:208   */\n    tag_46:\n        /* \"#utility.yul\":177:201   */\n      tag_69\n        /* \"#utility.yul\":195:200   */\n      dup2\n        /* \"#utility.yul\":177:201   */\n      tag_45\n      jump\t// in\n    tag_69:\n        /* \"#utility.yul\":172:175   */\n      dup3\n        /* \"#utility.yul\":165:202   */\n      mstore\n        /* \"#utility.yul\":90:208   */\n      pop\n      pop\n      jump\t// out\n        /* \"#utility.yul\":214:436   */\n    tag_15:\n        /* \"#utility.yul\":307:311   */\n      0x00\n        /* \"#utility.yul\":345:347   */\n      0x20\n        /* \"#utility.yul\":334:343   */\n      dup3\n        /* \"#utility.yul\":330:348   */\n      add\n        /* \"#utility.yul\":322:348   */\n      swap1\n      pop\n        /* \"#utility.yul\":358:429   */\n      tag_71\n        /* \"#utility.yul\":426:427   */\n      0x00\n        /* \"#utility.yul\":415:424   */\n      dup4\n        /* \"#utility.yul\":411:428   */\n      add\n        /* \"#utility.yul\":402:408   */\n      dup5\n        /* \"#utility.yul\":358:429   */\n      tag_46\n      jump\t// in\n    tag_71:\n        /* \"#utility.yul\":214:436   */\n      swap3\n      swap2\n      pop\n      pop\n      jump\t// out\n        /* \"#utility.yul\":442:568   */\n    tag_47:\n        /* \"#utility.yul\":479:486   */\n      0x00\n        /* \"#utility.yul\":519:561   */\n      0xffffffffffffffffffffffffffffffffffffffff\n        /* \"#utility.yul\":512:517   */\n      dup3\n        /* \"#utility.yul\":508:562   */\n      and\n        /* \"#utility.yul\":497:562   */\n      swap1\n      pop\n        /* \"#utility.yul\":442:568   */\n      swap2\n      swap1\n      pop\n      jump\t// out\n        /* \"#utility.yul\":574:670   */\n    tag_48:\n        /* \"#utility.yul\":611:618   */\n      0x00\n        /* \"#utility.yul\":640:664   */\n      tag_74\n        /* \"#utility.yul\":658:663   */\n      dup3\n        /* \"#utility.yul\":640:664   */\n      tag_47\n      jump\t// in\n    tag_74:\n        /* \"#utility.yul\":629:664   */\n      swap1\n      pop\n        /* \"#utility.yul\":574:670   */\n      swap2\n      swap1\n      pop\n      jump\t// out\n        /* \"#utility.yul\":676:794   */\n    tag_49:\n        /* \"#utility.yul\":763:787   */\n      tag_76\n        /* \"#utility.yul\":781:786   */\n      dup2\n        /* \"#utility.yul\":763:787   */\n      tag_48\n      jump\t// in\n    tag_76:\n        /* \"#utility.yul\":758:761   */\n      dup3\n        /* \"#utility.yul\":751:788   */\n      mstore\n        /* \"#utility.yul\":676:794   */\n      pop\n      pop\n      jump\t// out\n        /* \"#utility.yul\":800:1022   */\n    tag_20:\n        /* \"#utility.yul\":893:897   */\n      0x00\n        /* \"#utility.yul\":931:933   */\n      0x20\n        /* \"#utility.yul\":920:929   */\n      dup3\n        /* \"#utility.yul\":916:934   */\n      add\n        /* \"#utility.yul\":908:934   */\n      swap1\n      pop\n        /* \"#utility.yul\":944:1015   */\n      tag_78\n        /* \"#utility.yul\":1012:1013   */\n      0x00\n        /* \"#utility.yul\":1001:1010   */\n      dup4\n        /* \"#utility.yul\":997:1014   */\n      add\n        /* \"#utility.yul\":988:994   */\n      dup5\n        /* \"#utility.yul\":944:1015   */\n      tag_49\n      jump\t// in\n    tag_78:\n        /* \"#utility.yul\":800:1022   */\n      swap3\n      swap2\n      pop\n      pop\n      jump\t// out\n        /* \"#utility.yul\":1109:1226   */\n    tag_51:\n        /* \"#utility.yul\":1218:1219   */\n      0x00\n        /* \"#utility.yul\":1215:1216   */\n      0x00\n        /* \"#utility.yul\":1208:1220   */\n      revert\n        /* \"#utility.yul\":1355:1459   */\n    tag_53:\n        /* \"#utility.yul\":1400:1407   */\n      0x00\n        /* \"#utility.yul\":1429:1453   */\n      tag_83\n        /* \"#utility.yul\":1447:1452   */\n      dup3\n        /* \"#utility.yul\":1429:1453   */\n      tag_47\n      jump\t// in\n    tag_83:\n        /* \"#utility.yul\":1418:1453   */\n      swap1\n      pop\n        /* \"#utility.yul\":1355:1459   */\n      swap2\n      swap1\n      pop\n      jump\t// out\n        /* \"#utility.yul\":1465:1603   */\n    tag_54:\n        /* \"#utility.yul\":1546:1578   */\n      tag_85\n        /* \"#utility.yul\":1572:1577   */\n      dup2\n        /* \"#utility.yul\":1546:1578   */\n      tag_53\n      jump\t// in\n    tag_85:\n        /* \"#utility.yul\":1539:1544   */\n      dup2\n        /* \"#utility.yul\":1536:1579   */\n      eq\n        /* \"#utility.yul\":1526:1597   */\n      tag_86\n      jumpi\n        /* \"#utility.yul\":1593:1594   */\n      0x00\n        /* \"#utility.yul\":1590:1591   */\n      0x00\n        /* \"#utility.yul\":1583:1595   */\n      revert\n        /* \"#utility.yul\":1526:1597   */\n    tag_86:\n        /* \"#utility.yul\":1465:1603   */\n      pop\n      jump\t// out\n        /* \"#utility.yul\":1609:1764   */\n    tag_55:\n        /* \"#utility.yul\":1663:1668   */\n      0x00\n        /* \"#utility.yul\":1701:1707   */\n      dup2\n        /* \"#utility.yul\":1688:1708   */\n      calldataload\n        /* \"#utility.yul\":1679:1708   */\n      swap1\n      pop\n        /* \"#utility.yul\":1717:1758   */\n      tag_88\n        /* \"#utility.yul\":1752:1757   */\n      dup2\n        /* \"#utility.yul\":1717:1758   */\n      tag_54\n      jump\t// in\n    tag_88:\n        /* \"#utility.yul\":1609:1764   */\n      swap3\n      swap2\n      pop\n      pop\n      jump\t// out\n        /* \"#utility.yul\":1770:1892   */\n    tag_56:\n        /* \"#utility.yul\":1843:1867   */\n      tag_90\n        /* \"#utility.yul\":1861:1866   */\n      dup2\n        /* \"#utility.yul\":1843:1867   */\n      tag_45\n      jump\t// in\n    tag_90:\n        /* \"#utility.yul\":1836:1841   */\n      dup2\n        /* \"#utility.yul\":1833:1868   */\n      eq\n        /* \"#utility.yul\":1823:1886   */\n      tag_91\n      jumpi\n        /* \"#utility.yul\":1882:1883   */\n      0x00\n        /* \"#utility.yul\":1879:1880   */\n      0x00\n        /* \"#utility.yul\":1872:1884   */\n      revert\n        /* \"#utility.yul\":1823:1886   */\n    tag_91:\n        /* \"#utility.yul\":1770:1892   */\n      pop\n      jump\t// out\n        /* \"#utility.yul\":1898:2037   */\n    tag_57:\n        /* \"#utility.yul\":1944:1949   */\n      0x00\n        /* \"#utility.yul\":1982:1988   */\n      dup2\n        /* \"#utility.yul\":1969:1989   */\n      calldataload\n        /* \"#utility.yul\":1960:1989   */\n      swap1\n      pop\n        /* \"#utility.yul\":1998:2031   */\n      tag_93\n        /* \"#utility.yul\":2025:2030   */\n      dup2\n        /* \"#utility.yul\":1998:2031   */\n      tag_56\n      jump\t// in\n    tag_93:\n        /* \"#utility.yul\":1898:2037   */\n      swap3\n      swap2\n      pop\n      pop\n      jump\t// out\n        /* \"#utility.yul\":2043:2533   */\n    tag_24:\n        /* \"#utility.yul\":2119:2125   */\n      0x00\n        /* \"#utility.yul\":2127:2133   */\n      0x00\n        /* \"#utility.yul\":2176:2178   */\n      0x40\n        /* \"#utility.yul\":2164:2173   */\n      dup4\n        /* \"#utility.yul\":2155:2162   */\n      dup6\n        /* \"#utility.yul\":2151:2174   */\n      sub\n        /* \"#utility.yul\":2147:2179   */\n      slt\n        /* \"#utility.yul\":2144:2263   */\n      iszero\n      tag_95\n      jumpi\n        /* \"#utility.yul\":2182:2261   */\n      tag_96\n      tag_51\n      jump\t// in\n    tag_96:\n        /* \"#utility.yul\":2144:2263   */\n    tag_95:\n        /* \"#utility.yul\":2302:2303   */\n      0x00\n        /* \"#utility.yul\":2327:2388   */\n      tag_97\n        /* \"#utility.yul\":2380:2387   */\n      dup6\n        /* \"#utility.yul\":2371:2377   */\n      dup3\n        /* \"#utility.yul\":2360:2369   */\n      dup7\n        /* \"#utility.yul\":2356:2378   */\n      add\n        /* \"#utility.yul\":2327:2388   */\n      tag_55\n      jump\t// in\n    tag_97:\n        /* \"#utility.yul\":2317:2388   */\n      swap3\n      pop\n        /* \"#utility.yul\":2273:2398   */\n      pop\n        /* \"#utility.yul\":2437:2439   */\n      0x20\n        /* \"#utility.yul\":2463:2516   */\n      tag_98\n        /* \"#utility.yul\":2508:2515   */\n      dup6\n        /* \"#utility.yul\":2499:2505   */\n      dup3\n        /* \"#utility.yul\":2488:2497   */\n      dup7\n        /* \"#utility.yul\":2484:2506   */\n      add\n        /* \"#utility.yul\":2463:2516   */\n      tag_57\n      jump\t// in\n    tag_98:\n        /* \"#utility.yul\":2453:2516   */\n      swap2\n      pop\n        /* \"#utility.yul\":2408:2526   */\n      pop\n        /* \"#utility.yul\":2043:2533   */\n      swap3\n      pop\n      swap3\n      swap1\n      pop\n      jump\t// out\n        /* \"#utility.yul\":2539:2708   */\n    tag_58:\n        /* \"#utility.yul\":2623:2634   */\n      0x00\n        /* \"#utility.yul\":2657:2663   */\n      dup3\n        /* \"#utility.yul\":2652:2655   */\n      dup3\n        /* \"#utility.yul\":2645:2664   */\n      mstore\n        /* \"#utility.yul\":2697:2701   */\n      0x20\n        /* \"#utility.yul\":2692:2695   */\n      dup3\n        /* \"#utility.yul\":2688:2702   */\n      add\n        /* \"#utility.yul\":2673:2702   */\n      swap1\n      pop\n        /* \"#utility.yul\":2539:2708   */\n      swap3\n      swap2\n      pop\n      pop\n      jump\t// out\n        /* \"#utility.yul\":2714:2893   */\n    tag_59:\n        /* \"#utility.yul\":2854:2885   */\n      0x4170656e6173206f20646f6e6f20706f6465207472616e736665726972000000\n        /* \"#utility.yul\":2850:2851   */\n      0x00\n        /* \"#utility.yul\":2842:2848   */\n      dup3\n        /* \"#utility.yul\":2838:2852   */\n      add\n        /* \"#utility.yul\":2831:2886   */\n      mstore\n        /* \"#utility.yul\":2714:2893   */\n      pop\n      jump\t// out\n        /* \"#utility.yul\":2899:3265   */\n    tag_60:\n        /* \"#utility.yul\":3041:3044   */\n      0x00\n        /* \"#utility.yul\":3062:3129   */\n      tag_102\n        /* \"#utility.yul\":3126:3128   */\n      0x1d\n        /* \"#utility.yul\":3121:3124   */\n      dup4\n        /* \"#utility.yul\":3062:3129   */\n      tag_58\n      jump\t// in\n    tag_102:\n        /* \"#utility.yul\":3055:3129   */\n      swap2\n      pop\n        /* \"#utility.yul\":3138:3231   */\n      tag_103\n        /* \"#utility.yul\":3227:3230   */\n      dup3\n        /* \"#utility.yul\":3138:3231   */\n      tag_59\n      jump\t// in\n    tag_103:\n        /* \"#utility.yul\":3256:3258   */\n      0x20\n        /* \"#utility.yul\":3251:3254   */\n      dup3\n        /* \"#utility.yul\":3247:3259   */\n      add\n        /* \"#utility.yul\":3240:3259   */\n      swap1\n      pop\n        /* \"#utility.yul\":2899:3265   */\n      swap2\n      swap1\n      pop\n      jump\t// out\n        /* \"#utility.yul\":3271:3690   */\n    tag_30:\n        /* \"#utility.yul\":3437:3441   */\n      0x00\n        /* \"#utility.yul\":3475:3477   */\n      0x20\n        /* \"#utility.yul\":3464:3473   */\n      dup3\n        /* \"#utility.yul\":3460:3478   */\n      add\n        /* \"#utility.yul\":3452:3478   */\n      swap1\n      pop\n        /* \"#utility.yul\":3524:3533   */\n      dup2\n        /* \"#utility.yul\":3518:3522   */\n      dup2\n        /* \"#utility.yul\":3514:3534   */\n      sub\n        /* \"#utility.yul\":3510:3511   */\n      0x00\n        /* \"#utility.yul\":3499:3508   */\n      dup4\n        /* \"#utility.yul\":3495:3512   */\n      add\n        /* \"#utility.yul\":3488:3535   */\n      mstore\n        /* \"#utility.yul\":3552:3683   */\n      tag_105\n        /* \"#utility.yul\":3678:3682   */\n      dup2\n        /* \"#utility.yul\":3552:3683   */\n      tag_60\n      jump\t// in\n    tag_105:\n        /* \"#utility.yul\":3544:3683   */\n      swap1\n      pop\n        /* \"#utility.yul\":3271:3690   */\n      swap2\n      swap1\n      pop\n      jump\t// out\n        /* \"#utility.yul\":3696:3877   */\n    tag_61:\n        /* \"#utility.yul\":3836:3869   */\n      0x53616c646f20696e737566696369656e7465206e6f20636f6e747261746f2e00\n        /* \"#utility.yul\":3832:3833   */\n      0x00\n        /* \"#utility.yul\":3824:3830   */\n      dup3\n        /* \"#utility.yul\":3820:3834   */\n      add\n        /* \"#utility.yul\":3813:3870   */\n      mstore\n        /* \"#utility.yul\":3696:3877   */\n      pop\n      jump\t// out\n        /* \"#utility.yul\":3883:4249   */\n    tag_62:\n        /* \"#utility.yul\":4025:4028   */\n      0x00\n        /* \"#utility.yul\":4046:4113   */\n      tag_108\n        /* \"#utility.yul\":4110:4112   */\n      0x1f\n        /* \"#utility.yul\":4105:4108   */\n      dup4\n        /* \"#utility.yul\":4046:4113   */\n      tag_58\n      jump\t// in\n    tag_108:\n        /* \"#utility.yul\":4039:4113   */\n      swap2\n      pop\n        /* \"#utility.yul\":4122:4215   */\n      tag_109\n        /* \"#utility.yul\":4211:4214   */\n      dup3\n        /* \"#utility.yul\":4122:4215   */\n      tag_61\n      jump\t// in\n    tag_109:\n        /* \"#utility.yul\":4240:4242   */\n      0x20\n        /* \"#utility.yul\":4235:4238   */\n      dup3\n        /* \"#utility.yul\":4231:4243   */\n      add\n        /* \"#utility.yul\":4224:4243   */\n      swap1\n      pop\n        /* \"#utility.yul\":3883:4249   */\n      swap2\n      swap1\n      pop\n      jump\t// out\n        /* \"#utility.yul\":4255:4674   */\n    tag_38:\n        /* \"#utility.yul\":4421:4425   */\n      0x00\n        /* \"#utility.yul\":4459:4461   */\n      0x20\n        /* \"#utility.yul\":4448:4457   */\n      dup3\n        /* \"#utility.yul\":4444:4462   */\n      add\n        /* \"#utility.yul\":4436:4462   */\n      swap1\n      pop\n        /* \"#utility.yul\":4508:4517   */\n      dup2\n        /* \"#utility.yul\":4502:4506   */\n      dup2\n        /* \"#utility.yul\":4498:4518   */\n      sub\n        /* \"#utility.yul\":4494:4495   */\n      0x00\n        /* \"#utility.yul\":4483:4492   */\n      dup4\n        /* \"#utility.yul\":4479:4496   */\n      add\n        /* \"#utility.yul\":4472:4519   */\n      mstore\n        /* \"#utility.yul\":4536:4667   */\n      tag_111\n        /* \"#utility.yul\":4662:4666   */\n      dup2\n        /* \"#utility.yul\":4536:4667   */\n      tag_62\n      jump\t// in\n    tag_111:\n        /* \"#utility.yul\":4528:4667   */\n      swap1\n      pop\n        /* \"#utility.yul\":4255:4674   */\n      swap2\n      swap1\n      pop\n      jump\t// out\n        /* \"#utility.yul\":4680:4827   */\n    tag_63:\n        /* \"#utility.yul\":4781:4792   */\n      0x00\n        /* \"#utility.yul\":4818:4821   */\n      dup2\n        /* \"#utility.yul\":4803:4821   */\n      swap1\n      pop\n        /* \"#utility.yul\":4680:4827   */\n      swap3\n      swap2\n      pop\n      pop\n      jump\t// out\n        /* \"#utility.yul\":4833:4947   */\n    tag_64:\n      pop\n      jump\t// out\n        /* \"#utility.yul\":4953:5351   */\n    tag_65:\n        /* \"#utility.yul\":5112:5115   */\n      0x00\n        /* \"#utility.yul\":5133:5216   */\n      tag_115\n        /* \"#utility.yul\":5214:5215   */\n      0x00\n        /* \"#utility.yul\":5209:5212   */\n      dup4\n        /* \"#utility.yul\":5133:5216   */\n      tag_63\n      jump\t// in\n    tag_115:\n        /* \"#utility.yul\":5126:5216   */\n      swap2\n      pop\n        /* \"#utility.yul\":5225:5318   */\n      tag_116\n        /* \"#utility.yul\":5314:5317   */\n      dup3\n        /* \"#utility.yul\":5225:5318   */\n      tag_64\n      jump\t// in\n    tag_116:\n        /* \"#utility.yul\":5343:5344   */\n      0x00\n        /* \"#utility.yul\":5338:5341   */\n      dup3\n        /* \"#utility.yul\":5334:5345   */\n      add\n        /* \"#utility.yul\":5327:5345   */\n      swap1\n      pop\n        /* \"#utility.yul\":4953:5351   */\n      swap2\n      swap1\n      pop\n      jump\t// out\n        /* \"#utility.yul\":5357:5736   */\n    tag_41:\n        /* \"#utility.yul\":5541:5544   */\n      0x00\n        /* \"#utility.yul\":5563:5710   */\n      tag_118\n        /* \"#utility.yul\":5706:5709   */\n      dup3\n        /* \"#utility.yul\":5563:5710   */\n      tag_65\n      jump\t// in\n    tag_118:\n        /* \"#utility.yul\":5556:5710   */\n      swap2\n      pop\n        /* \"#utility.yul\":5727:5730   */\n      dup2\n        /* \"#utility.yul\":5720:5730   */\n      swap1\n      pop\n        /* \"#utility.yul\":5357:5736   */\n      swap2\n      swap1\n      pop\n      jump\t// out\n\n    auxdata: 0xa26469706673582212206578ca88ea0517bbb8148179a260b346c08209ca4402f4d6f7fc445653c299af64736f6c634300081e0033\n}\n",
				"bytecode": {
					"linkReferences": {},
					"object": "6080604052348015600e575f5ffd5b50335f5f6101000a81548173ffffffffffffffffffffffffffffffffffffffff021916908373ffffffffffffffffffffffffffffffffffffffff1602179055506105558061005b5f395ff3fe608060405260043610610042575f3560e01c80633d922f901461004d57806340a8b75a1461005757806370514bea14610081578063bcb753fe146100ab57610049565b3661004957005b5f5ffd5b6100556100d3565b005b348015610062575f5ffd5b5061006b6100d5565b60405161007891906102e6565b60405180910390f35b34801561008c575f5ffd5b5061009561016a565b6040516100a2919061033e565b60405180910390f35b3480156100b6575f5ffd5b506100d160048036038101906100cc91906103c0565b61018e565b005b565b5f5f5f9054906101000a900473ffffffffffffffffffffffffffffffffffffffff1673ffffffffffffffffffffffffffffffffffffffff163373ffffffffffffffffffffffffffffffffffffffff1614610164576040517f08c379a000000000000000000000000000000000000000000000000000000000815260040161015b90610458565b60405180910390fd5b47905090565b5f5f9054906101000a900473ffffffffffffffffffffffffffffffffffffffff1681565b5f5f9054906101000a900473ffffffffffffffffffffffffffffffffffffffff1673ffffffffffffffffffffffffffffffffffffffff163373ffffffffffffffffffffffffffffffffffffffff161461021c576040517f08c379a000000000000000000000000000000000000000000000000000000000815260040161021390610458565b60405180910390fd5b8080471015610260576040517f08c379a0000000000000000000000000000000000000000000000000000000008152600401610257906104c0565b60405180910390fd5b5f8373ffffffffffffffffffffffffffffffffffffffff16836040516102859061050b565b5f6040518083038185875af1925050503d805f81146102bf576040519150601f19603f3d011682016040523d82523d5f602084013e6102c4565b606091505b5050905050505050565b5f819050919050565b6102e0816102ce565b82525050565b5f6020820190506102f95f8301846102d7565b92915050565b5f73ffffffffffffffffffffffffffffffffffffffff82169050919050565b5f610328826102ff565b9050919050565b6103388161031e565b82525050565b5f6020820190506103515f83018461032f565b92915050565b5f5ffd5b5f610365826102ff565b9050919050565b6103758161035b565b811461037f575f5ffd5b50565b5f813590506103908161036c565b92915050565b61039f816102ce565b81146103a9575f5ffd5b50565b5f813590506103ba81610396565b92915050565b5f5f604083850312156103d6576103d5610357565b5b5f6103e385828601610382565b92505060206103f4858286016103ac565b9150509250929050565b5f82825260208201905092915050565b7f4170656e6173206f20646f6e6f20706f6465207472616e7366657269720000005f82015250565b5f610442601d836103fe565b915061044d8261040e565b602082019050919050565b5f6020820190508181035f83015261046f81610436565b9050919050565b7f53616c646f20696e737566696369656e7465206e6f20636f6e747261746f2e005f82015250565b5f6104aa601f836103fe565b91506104b582610476565b602082019050919050565b5f6020820190508181035f8301526104d78161049e565b9050919050565b5f81905092915050565b50565b5f6104f65f836104de565b9150610501826104e8565b5f82019050919050565b5f610515826104eb565b915081905091905056fea26469706673582212206578ca88ea0517bbb8148179a260b346c08209ca4402f4d6f7fc445653c299af64736f6c634300081e0033",
					"opcodes": "PUSH1 0x80 PUSH1 0x40 MSTORE CALLVALUE DUP1 ISZERO PUSH1 0xE JUMPI PUSH0 PUSH0 REVERT JUMPDEST POP CALLER PUSH0 PUSH0 PUSH2 0x100 EXP DUP2 SLOAD DUP2 PUSH20 0xFFFFFFFFFFFFFFFFFFFFFFFFFFFFFFFFFFFFFFFF MUL NOT AND SWAP1 DUP4 PUSH20 0xFFFFFFFFFFFFFFFFFFFFFFFFFFFFFFFFFFFFFFFF AND MUL OR SWAP1 SSTORE POP PUSH2 0x555 DUP1 PUSH2 0x5B PUSH0 CODECOPY PUSH0 RETURN INVALID PUSH1 0x80 PUSH1 0x40 MSTORE PUSH1 0x4 CALLDATASIZE LT PUSH2 0x42 JUMPI PUSH0 CALLDATALOAD PUSH1 0xE0 SHR DUP1 PUSH4 0x3D922F90 EQ PUSH2 0x4D JUMPI DUP1 PUSH4 0x40A8B75A EQ PUSH2 0x57 JUMPI DUP1 PUSH4 0x70514BEA EQ PUSH2 0x81 JUMPI DUP1 PUSH4 0xBCB753FE EQ PUSH2 0xAB JUMPI PUSH2 0x49 JUMP JUMPDEST CALLDATASIZE PUSH2 0x49 JUMPI STOP JUMPDEST PUSH0 PUSH0 REVERT JUMPDEST PUSH2 0x55 PUSH2 0xD3 JUMP JUMPDEST STOP JUMPDEST CALLVALUE DUP1 ISZERO PUSH2 0x62 JUMPI PUSH0 PUSH0 REVERT JUMPDEST POP PUSH2 0x6B PUSH2 0xD5 JUMP JUMPDEST PUSH1 0x40 MLOAD PUSH2 0x78 SWAP2 SWAP1 PUSH2 0x2E6 JUMP JUMPDEST PUSH1 0x40 MLOAD DUP1 SWAP2 SUB SWAP1 RETURN JUMPDEST CALLVALUE DUP1 ISZERO PUSH2 0x8C JUMPI PUSH0 PUSH0 REVERT JUMPDEST POP PUSH2 0x95 PUSH2 0x16A JUMP JUMPDEST PUSH1 0x40 MLOAD PUSH2 0xA2 SWAP2 SWAP1 PUSH2 0x33E JUMP JUMPDEST PUSH1 0x40 MLOAD DUP1 SWAP2 SUB SWAP1 RETURN JUMPDEST CALLVALUE DUP1 ISZERO PUSH2 0xB6 JUMPI PUSH0 PUSH0 REVERT JUMPDEST POP PUSH2 0xD1 PUSH1 0x4 DUP1 CALLDATASIZE SUB DUP2 ADD SWAP1 PUSH2 0xCC SWAP2 SWAP1 PUSH2 0x3C0 JUMP JUMPDEST PUSH2 0x18E JUMP JUMPDEST STOP JUMPDEST JUMP JUMPDEST PUSH0 PUSH0 PUSH0 SWAP1 SLOAD SWAP1 PUSH2 0x100 EXP SWAP1 DIV PUSH20 0xFFFFFFFFFFFFFFFFFFFFFFFFFFFFFFFFFFFFFFFF AND PUSH20 0xFFFFFFFFFFFFFFFFFFFFFFFFFFFFFFFFFFFFFFFF AND CALLER PUSH20 0xFFFFFFFFFFFFFFFFFFFFFFFFFFFFFFFFFFFFFFFF AND EQ PUSH2 0x164 JUMPI PUSH1 0x40 MLOAD PUSH32 0x8C379A000000000000000000000000000000000000000000000000000000000 DUP2 MSTORE PUSH1 0x4 ADD PUSH2 0x15B SWAP1 PUSH2 0x458 JUMP JUMPDEST PUSH1 0x40 MLOAD DUP1 SWAP2 SUB SWAP1 REVERT JUMPDEST SELFBALANCE SWAP1 POP SWAP1 JUMP JUMPDEST PUSH0 PUSH0 SWAP1 SLOAD SWAP1 PUSH2 0x100 EXP SWAP1 DIV PUSH20 0xFFFFFFFFFFFFFFFFFFFFFFFFFFFFFFFFFFFFFFFF AND DUP2 JUMP JUMPDEST PUSH0 PUSH0 SWAP1 SLOAD SWAP1 PUSH2 0x100 EXP SWAP1 DIV PUSH20 0xFFFFFFFFFFFFFFFFFFFFFFFFFFFFFFFFFFFFFFFF AND PUSH20 0xFFFFFFFFFFFFFFFFFFFFFFFFFFFFFFFFFFFFFFFF AND CALLER PUSH20 0xFFFFFFFFFFFFFFFFFFFFFFFFFFFFFFFFFFFFFFFF AND EQ PUSH2 0x21C JUMPI PUSH1 0x40 MLOAD PUSH32 0x8C379A000000000000000000000000000000000000000000000000000000000 DUP2 MSTORE PUSH1 0x4 ADD PUSH2 0x213 SWAP1 PUSH2 0x458 JUMP JUMPDEST PUSH1 0x40 MLOAD DUP1 SWAP2 SUB SWAP1 REVERT JUMPDEST DUP1 DUP1 SELFBALANCE LT ISZERO PUSH2 0x260 JUMPI PUSH1 0x40 MLOAD PUSH32 0x8C379A000000000000000000000000000000000000000000000000000000000 DUP2 MSTORE PUSH1 0x4 ADD PUSH2 0x257 SWAP1 PUSH2 0x4C0 JUMP JUMPDEST PUSH1 0x40 MLOAD DUP1 SWAP2 SUB SWAP1 REVERT JUMPDEST PUSH0 DUP4 PUSH20 0xFFFFFFFFFFFFFFFFFFFFFFFFFFFFFFFFFFFFFFFF AND DUP4 PUSH1 0x40 MLOAD PUSH2 0x285 SWAP1 PUSH2 0x50B JUMP JUMPDEST PUSH0 PUSH1 0x40 MLOAD DUP1 DUP4 SUB DUP2 DUP6 DUP8 GAS CALL SWAP3 POP POP POP RETURNDATASIZE DUP1 PUSH0 DUP2 EQ PUSH2 0x2BF JUMPI PUSH1 0x40 MLOAD SWAP2 POP PUSH1 0x1F NOT PUSH1 0x3F RETURNDATASIZE ADD AND DUP3 ADD PUSH1 0x40 MSTORE RETURNDATASIZE DUP3 MSTORE RETURNDATASIZE PUSH0 PUSH1 0x20 DUP5 ADD RETURNDATACOPY PUSH2 0x2C4 JUMP JUMPDEST PUSH1 0x60 SWAP2 POP JUMPDEST POP POP SWAP1 POP POP POP POP POP JUMP JUMPDEST PUSH0 DUP2 SWAP1 POP SWAP2 SWAP1 POP JUMP JUMPDEST PUSH2 0x2E0 DUP2 PUSH2 0x2CE JUMP JUMPDEST DUP3 MSTORE POP POP JUMP JUMPDEST PUSH0 PUSH1 0x20 DUP3 ADD SWAP1 POP PUSH2 0x2F9 PUSH0 DUP4 ADD DUP5 PUSH2 0x2D7 JUMP JUMPDEST SWAP3 SWAP2 POP POP JUMP JUMPDEST PUSH0 PUSH20 0xFFFFFFFFFFFFFFFFFFFFFFFFFFFFFFFFFFFFFFFF DUP3 AND SWAP1 POP SWAP2 SWAP1 POP JUMP JUMPDEST PUSH0 PUSH2 0x328 DUP3 PUSH2 0x2FF JUMP JUMPDEST SWAP1 POP SWAP2 SWAP1 POP JUMP JUMPDEST PUSH2 0x338 DUP2 PUSH2 0x31E JUMP JUMPDEST DUP3 MSTORE POP POP JUMP JUMPDEST PUSH0 PUSH1 0x20 DUP3 ADD SWAP1 POP PUSH2 0x351 PUSH0 DUP4 ADD DUP5 PUSH2 0x32F JUMP JUMPDEST SWAP3 SWAP2 POP POP JUMP JUMPDEST PUSH0 PUSH0 REVERT JUMPDEST PUSH0 PUSH2 0x365 DUP3 PUSH2 0x2FF JUMP JUMPDEST SWAP1 POP SWAP2 SWAP1 POP JUMP JUMPDEST PUSH2 0x375 DUP2 PUSH2 0x35B JUMP JUMPDEST DUP2 EQ PUSH2 0x37F JUMPI PUSH0 PUSH0 REVERT JUMPDEST POP JUMP JUMPDEST PUSH0 DUP2 CALLDATALOAD SWAP1 POP PUSH2 0x390 DUP2 PUSH2 0x36C JUMP JUMPDEST SWAP3 SWAP2 POP POP JUMP JUMPDEST PUSH2 0x39F DUP2 PUSH2 0x2CE JUMP JUMPDEST DUP2 EQ PUSH2 0x3A9 JUMPI PUSH0 PUSH0 REVERT JUMPDEST POP JUMP JUMPDEST PUSH0 DUP2 CALLDATALOAD SWAP1 POP PUSH2 0x3BA DUP2 PUSH2 0x396 JUMP JUMPDEST SWAP3 SWAP2 POP POP JUMP JUMPDEST PUSH0 PUSH0 PUSH1 0x40 DUP4 DUP6 SUB SLT ISZERO PUSH2 0x3D6 JUMPI PUSH2 0x3D5 PUSH2 0x357 JUMP JUMPDEST JUMPDEST PUSH0 PUSH2 0x3E3 DUP6 DUP3 DUP7 ADD PUSH2 0x382 JUMP JUMPDEST SWAP3 POP POP PUSH1 0x20 PUSH2 0x3F4 DUP6 DUP3 DUP7 ADD PUSH2 0x3AC JUMP JUMPDEST SWAP2 POP POP SWAP3 POP SWAP3 SWAP1 POP JUMP JUMPDEST PUSH0 DUP3 DUP3 MSTORE PUSH1 0x20 DUP3 ADD SWAP1 POP SWAP3 SWAP2 POP POP JUMP JUMPDEST PUSH32 0x4170656E6173206F20646F6E6F20706F6465207472616E736665726972000000 PUSH0 DUP3 ADD MSTORE POP JUMP JUMPDEST PUSH0 PUSH2 0x442 PUSH1 0x1D DUP4 PUSH2 0x3FE JUMP JUMPDEST SWAP2 POP PUSH2 0x44D DUP3 PUSH2 0x40E JUMP JUMPDEST PUSH1 0x20 DUP3 ADD SWAP1 POP SWAP2 SWAP1 POP JUMP JUMPDEST PUSH0 PUSH1 0x20 DUP3 ADD SWAP1 POP DUP2 DUP2 SUB PUSH0 DUP4 ADD MSTORE PUSH2 0x46F DUP2 PUSH2 0x436 JUMP JUMPDEST SWAP1 POP SWAP2 SWAP1 POP JUMP JUMPDEST PUSH32 0x53616C646F20696E737566696369656E7465206E6F20636F6E747261746F2E00 PUSH0 DUP3 ADD MSTORE POP JUMP JUMPDEST PUSH0 PUSH2 0x4AA PUSH1 0x1F DUP4 PUSH2 0x3FE JUMP JUMPDEST SWAP2 POP PUSH2 0x4B5 DUP3 PUSH2 0x476 JUMP JUMPDEST PUSH1 0x20 DUP3 ADD SWAP1 POP SWAP2 SWAP1 POP JUMP JUMPDEST PUSH0 PUSH1 0x20 DUP3 ADD SWAP1 POP DUP2 DUP2 SUB PUSH0 DUP4 ADD MSTORE PUSH2 0x4D7 DUP2 PUSH2 0x49E JUMP JUMPDEST SWAP1 POP SWAP2 SWAP1 POP JUMP JUMPDEST PUSH0 DUP2 SWAP1 POP SWAP3 SWAP2 POP POP JUMP JUMPDEST POP JUMP JUMPDEST PUSH0 PUSH2 0x4F6 PUSH0 DUP4 PUSH2 0x4DE JUMP JUMPDEST SWAP2 POP PUSH2 0x501 DUP3 PUSH2 0x4E8 JUMP JUMPDEST PUSH0 DUP3 ADD SWAP1 POP SWAP2 SWAP1 POP JUMP JUMPDEST PUSH0 PUSH2 0x515 DUP3 PUSH2 0x4EB JUMP JUMPDEST SWAP2 POP DUP2 SWAP1 POP SWAP2 SWAP1 POP JUMP INVALID LOG2 PUSH5 0x6970667358 0x22 SLT KECCAK256 PUSH6 0x78CA88EA0517 0xBB 0xB8 EQ DUP2 PUSH26 0xA260B346C08209CA4402F4D6F7FC445653C299AF64736F6C6343 STOP ADDMOD 0x1E STOP CALLER "
				},
				"gasEstimates": {
					"creation": {
						"codeDepositCost": "273000",
						"executionCost": "24574",
						"totalCost": "297574"
					},
					"external": {
						"depositar()": "97",
						"dono()": "2529",
						"saldoDoContrato()": "2597",
						"transferirPara(address,uint256)": "infinite"
					}
				},
				"methodIdentifiers": {
					"depositar()": "3d922f90",
					"dono()": "70514bea",
					"saldoDoContrato()": "40a8b75a",
					"transferirPara(address,uint256)": "bcb753fe"
				}
			},
			"storageLayout": {
				"storage": [
					{
						"astId": 3,
						"contract": "AulaRecife/Cofre.sol:Cofre",
						"label": "dono",
						"offset": 0,
						"slot": "0",
						"type": "t_address"
					}
				],
				"types": {
					"t_address": {
						"encoding": "inplace",
						"label": "address",
						"numberOfBytes": "20"
					}
				}
			},
			"userdoc": {
				"kind": "user",
				"methods": {},
				"version": 1
			}
		}
	}
}