{
	"AulaRecife/AcessoRestrito.sol": {
		"AcessoRestrito": {
			"abi": [
				{
					"inputs": [],
					"stateMutability": "nonpayable",
					"type": "constructor"
				},
				{
					"inputs": [],
					"name": "dono",
					"outputs": [
						{
							"internalType": "address",
							"name": "",
							"type": "address"
						}
					],
					"stateMutability": "view",
					"type": "function"
				},
				{
					"inputs": [],
					"name": "encerrarContrato",
					"outputs": [],
					"stateMutability": "nonpayable",
					"type": "function"
				},
				{
					"inputs": [],
					"name": "sayHello",
					"outputs": [
						{
							"internalType": "string",
							"name": "v",
							"type": "string"
						}
					],
					"stateMutability": "view",
					"type": "function"
				}
			],
			"devdoc": {
				"kind": "dev",
				"methods": {},
				"version": 1
			},
			"evm": {
				"assembly": "    /* \"AulaRecife/AcessoRestrito.sol\":60:590  contract AcessoRestrito {  ... */\n  mstore(0x40, 0x80)\n    /* \"AulaRecife/AcessoRestrito.sol\":127:190  constructor() {       ... */\n  callvalue\n  dup1\n  iszero\n  tag_1\n  jumpi\n  revert(0x00, 0x00)\ntag_1:\n  pop\n    /* \"AulaRecife/AcessoRestrito.sol\":166:176  msg.sender */\n  caller\n    /* \"AulaRecife/AcessoRestrito.sol\":159:163  dono */\n  0x00\n  0x00\n    /* \"AulaRecife/AcessoRestrito.sol\":159:176  dono = msg.sender */\n  0x0100\n  exp\n  dup2\n  sload\n  dup2\n  0xffffffffffffffffffffffffffffffffffffffff\n  mul\n  not\n  and\n  swap1\n  dup4\n  0xffffffffffffffffffffffffffffffffffffffff\n  and\n  mul\n  or\n  swap1\n  sstore\n  pop\n    /* \"AulaRecife/AcessoRestrito.sol\":60:590  contract AcessoRestrito {  ... */\n  dataSize(sub_0)\n  dup1\n  dataOffset(sub_0)\n  0x00\n  codecopy\n  0x00\n  return\nstop\n\nsub_0: assembly {\n        /* \"AulaRecife/AcessoRestrito.sol\":60:590  contract AcessoRestrito {  ... */\n      mstore(0x40, 0x80)\n      callvalue\n      dup1\n      iszero\n      tag_1\n      jumpi\n      revert(0x00, 0x00)\n    tag_1:\n      pop\n      jumpi(tag_2, lt(calldatasize, 0x04))\n      shr(0xe0, calldataload(0x00))\n      dup1\n      0x70514bea\n      eq\n      tag_3\n      jumpi\n      dup1\n      0xd18dc7a8\n      eq\n      tag_4\n      jumpi\n      dup1\n      0xef5fb05b\n      eq\n      tag_5\n      jumpi\n    tag_2:\n      revert(0x00, 0x00)\n        /* \"AulaRecife/AcessoRestrito.sol\":93:112  address public dono */\n    tag_3:\n      tag_6\n      tag_7\n      jump\t// in\n    tag_6:\n      mload(0x40)\n      tag_8\n      swap2\n      swap1\n      tag_9\n      jump\t// in\n    tag_8:\n      mload(0x40)\n      dup1\n      swap2\n      sub\n      swap1\n      return\n        /* \"AulaRecife/AcessoRestrito.sol\":380:472  function encerrarContrato() public apenasDono {... */\n    tag_4:\n      tag_10\n      tag_11\n      jump\t// in\n    tag_10:\n      stop\n        /* \"AulaRecife/AcessoRestrito.sol\":480:587  function sayHello() view public apenasDono returns (string memory v){... */\n    tag_5:\n      tag_12\n      tag_13\n      jump\t// in\n    tag_12:\n      mload(0x40)\n      tag_14\n      swap2\n      swap1\n      tag_15\n      jump\t// in\n    tag_14:\n      mload(0x40)\n      dup1\n      swap2\n      sub\n      swap1\n      return\n        /* \"AulaRecife/AcessoRestrito.sol\":93:112  address public dono */\n    tag_7:\n      0x00\n      0x00\n      swap1\n      sload\n      swap1\n      0x0100\n      exp\n      swap1\n      div\n      0xffffffffffffffffffffffffffffffffffffffff\n      and\n      dup2\n      jump\t// out\n        /* \"AulaRecife/AcessoRestrito.sol\":380:472  function encerrarContrato() public apenasDono {... */\n    tag_11:\n        /* \"AulaRecife/AcessoRestrito.sol\":261:265  dono */\n      0x00\n      0x00\n      swap1\n      sload\n      swap1\n      0x0100\n      exp\n      swap1\n      div\n      0xffffffffffffffffffffffffffffffffffffffff\n      and\n        /* \"AulaRecife/AcessoRestrito.sol\":247:265  msg.sender == dono */\n      0xffffffffffffffffffffffffffffffffffffffff\n      and\n        /* \"AulaRecife/AcessoRestrito.sol\":247:257  msg.sender */\n      caller\n        /* \"AulaRecife/AcessoRestrito.sol\":247:265  msg.sender == dono */\n      0xffffffffffffffffffffffffffffffffffffffff\n      and\n      eq\n        /* \"AulaRecife/AcessoRestrito.sol\":239:297  require(msg.sender == dono, \"Apenas o dono pode executar\") */\n      tag_17\n      jumpi\n      mload(0x40)\n      0x08c379a000000000000000000000000000000000000000000000000000000000\n      dup2\n      mstore\n      0x04\n      add\n      tag_18\n      swap1\n      tag_19\n      jump\t// in\n    tag_18:\n      mload(0x40)\n      dup1\n      swap2\n      sub\n      swap1\n      revert\n    tag_17:\n        /* \"AulaRecife/AcessoRestrito.sol\":458:462  dono */\n      0x00\n      0x00\n      swap1\n      sload\n      swap1\n      0x0100\n      exp\n      swap1\n      div\n      0xffffffffffffffffffffffffffffffffffffffff\n      and\n        /* \"AulaRecife/AcessoRestrito.sol\":437:464  selfdestruct(payable(dono)) */\n      0xffffffffffffffffffffffffffffffffffffffff\n      and\n      selfdestruct\n        /* \"AulaRecife/AcessoRestrito.sol\":480:587  function sayHello() view public apenasDono returns (string memory v){... */\n    tag_13:\n        /* \"AulaRecife/AcessoRestrito.sol\":532:547  string memory v */\n      0x60\n        /* \"AulaRecife/AcessoRestrito.sol\":261:265  dono */\n      0x00\n      0x00\n      swap1\n      sload\n      swap1\n      0x0100\n      exp\n      swap1\n      div\n      0xffffffffffffffffffffffffffffffffffffffff\n      and\n        /* \"AulaRecife/AcessoRestrito.sol\":247:265  msg.sender == dono */\n      0xffffffffffffffffffffffffffffffffffffffff\n      and\n        /* \"AulaRecife/AcessoRestrito.sol\":247:257  msg.sender */\n      caller\n        /* \"AulaRecife/AcessoRestrito.sol\":247:265  msg.sender == dono */\n      0xffffffffffffffffffffffffffffffffffffffff\n      and\n      eq\n        /* \"AulaRecife/AcessoRestrito.sol\":239:297  require(msg.sender == dono, \"Apenas o dono pode executar\") */\n      tag_22\n      jumpi\n      mload(0x40)\n      0x08c379a000000000000000000000000000000000000000000000000000000000\n      dup2\n      mstore\n      0x04\n      add\n      tag_23\n      swap1\n      tag_19\n      jump\t// in\n    tag_23:\n      mload(0x40)\n      dup1\n      swap2\n      sub\n      swap1\n      revert\n    tag_22:\n        /* \"AulaRecife/AcessoRestrito.sol\":559:579  return \"Ola, Mundo!\" */\n      mload(0x40)\n      dup1\n      0x40\n      add\n      0x40\n      mstore\n      dup1\n      0x0b\n      dup2\n      mstore\n      0x20\n      add\n      0x4f6c612c204d756e646f21000000000000000000000000000000000000000000\n      dup2\n      mstore\n      pop\n      swap1\n      pop\n        /* \"AulaRecife/AcessoRestrito.sol\":480:587  function sayHello() view public apenasDono returns (string memory v){... */\n      swap1\n      jump\t// out\n        /* \"#utility.yul\":7:133   */\n    tag_25:\n        /* \"#utility.yul\":44:51   */\n      0x00\n        /* \"#utility.yul\":84:126   */\n      0xffffffffffffffffffffffffffffffffffffffff\n        /* \"#utility.yul\":77:82   */\n      dup3\n        /* \"#utility.yul\":73:127   */\n      and\n        /* \"#utility.yul\":62:127   */\n      swap1\n      pop\n        /* \"#utility.yul\":7:133   */\n      swap2\n      swap1\n      pop\n      jump\t// out\n        /* \"#utility.yul\":139:235   */\n    tag_26:\n        /* \"#utility.yul\":176:183   */\n      0x00\n        /* \"#utility.yul\":205:229   */\n      tag_38\n        /* \"#utility.yul\":223:228   */\n      dup3\n        /* \"#utility.yul\":205:229   */\n      tag_25\n      jump\t// in\n    tag_38:\n        /* \"#utility.yul\":194:229   */\n      swap1\n      pop\n        /* \"#utility.yul\":139:235   */\n      swap2\n      swap1\n      pop\n      jump\t// out\n        /* \"#utility.yul\":241:359   */\n    tag_27:\n        /* \"#utility.yul\":328:352   */\n      tag_40\n        /* \"#utility.yul\":346:351   */\n      dup2\n        /* \"#utility.yul\":328:352   */\n      tag_26\n      jump\t// in\n    tag_40:\n        /* \"#utility.yul\":323:326   */\n      dup3\n        /* \"#utility.yul\":316:353   */\n      mstore\n        /* \"#utility.yul\":241:359   */\n      pop\n      pop\n      jump\t// out\n        /* \"#utility.yul\":365:587   */\n    tag_9:\n        /* \"#utility.yul\":458:462   */\n      0x00\n        /* \"#utility.yul\":496:498   */\n      0x20\n        /* \"#utility.yul\":485:494   */\n      dup3\n        /* \"#utility.yul\":481:499   */\n      add\n        /* \"#utility.yul\":473:499   */\n      swap1\n      pop\n        /* \"#utility.yul\":509:580   */\n      tag_42\n        /* \"#utility.yul\":577:578   */\n      0x00\n        /* \"#utility.yul\":566:575   */\n      dup4\n        /* \"#utility.yul\":562:579   */\n      add\n        /* \"#utility.yul\":553:559   */\n      dup5\n        /* \"#utility.yul\":509:580   */\n      tag_27\n      jump\t// in\n    tag_42:\n        /* \"#utility.yul\":365:587   */\n      swap3\n      swap2\n      pop\n      pop\n      jump\t// out\n        /* \"#utility.yul\":593:692   */\n    tag_28:\n        /* \"#utility.yul\":645:651   */\n      0x00\n        /* \"#utility.yul\":679:684   */\n      dup2\n        /* \"#utility.yul\":673:685   */\n      mload\n        /* \"#utility.yul\":663:685   */\n      swap1\n      pop\n        /* \"#utility.yul\":593:692   */\n      swap2\n      swap1\n      pop\n      jump\t// out\n        /* \"#utility.yul\":698:867   */\n    tag_29:\n        /* \"#utility.yul\":782:793   */\n      0x00\n        /* \"#utility.yul\":816:822   */\n      dup3\n        /* \"#utility.yul\":811:814   */\n      dup3\n        /* \"#utility.yul\":804:823   */\n      mstore\n        /* \"#utility.yul\":856:860   */\n      0x20\n        /* \"#utility.yul\":851:854   */\n      dup3\n        /* \"#utility.yul\":847:861   */\n      add\n        /* \"#utility.yul\":832:861   */\n      swap1\n      pop\n        /* \"#utility.yul\":698:867   */\n      swap3\n      swap2\n      pop\n      pop\n      jump\t// out\n        /* \"#utility.yul\":873:1012   */\n    tag_30:\n        /* \"#utility.yul\":962:968   */\n      dup3\n        /* \"#utility.yul\":957:960   */\n      dup2\n        /* \"#utility.yul\":952:955   */\n      dup4\n        /* \"#utility.yul\":946:969   */\n      mcopy\n        /* \"#utility.yul\":1003:1004   */\n      0x00\n        /* \"#utility.yul\":994:1000   */\n      dup4\n        /* \"#utility.yul\":989:992   */\n      dup4\n        /* \"#utility.yul\":985:1001   */\n      add\n        /* \"#utility.yul\":978:1005   */\n      mstore\n        /* \"#utility.yul\":873:1012   */\n      pop\n      pop\n      pop\n      jump\t// out\n        /* \"#utility.yul\":1018:1120   */\n    tag_31:\n        /* \"#utility.yul\":1059:1065   */\n      0x00\n        /* \"#utility.yul\":1110:1112   */\n      0x1f\n        /* \"#utility.yul\":1106:1113   */\n      not\n        /* \"#utility.yul\":1101:1103   */\n      0x1f\n        /* \"#utility.yul\":1094:1099   */\n      dup4\n        /* \"#utility.yul\":1090:1104   */\n      add\n        /* \"#utility.yul\":1086:1114   */\n      and\n        /* \"#utility.yul\":1076:1114   */\n      swap1\n      pop\n        /* \"#utility.yul\":1018:1120   */\n      swap2\n      swap1\n      pop\n      jump\t// out\n        /* \"#utility.yul\":1126:1503   */\n    tag_32:\n        /* \"#utility.yul\":1214:1217   */\n      0x00\n        /* \"#utility.yul\":1242:1281   */\n      tag_48\n        /* \"#utility.yul\":1275:1280   */\n      dup3\n        /* \"#utility.yul\":1242:1281   */\n      tag_28\n      jump\t// in\n    tag_48:\n        /* \"#utility.yul\":1297:1368   */\n      tag_49\n        /* \"#utility.yul\":1361:1367   */\n      dup2\n        /* \"#utility.yul\":1356:1359   */\n      dup6\n        /* \"#utility.yul\":1297:1368   */\n      tag_29\n      jump\t// in\n    tag_49:\n        /* \"#utility.yul\":1290:1368   */\n      swap4\n      pop\n        /* \"#utility.yul\":1377:1442   */\n      tag_50\n        /* \"#utility.yul\":1435:1441   */\n      dup2\n        /* \"#utility.yul\":1430:1433   */\n      dup6\n        /* \"#utility.yul\":1423:1427   */\n      0x20\n        /* \"#utility.yul\":1416:1421   */\n      dup7\n        /* \"#utility.yul\":1412:1428   */\n      add\n        /* \"#utility.yul\":1377:1442   */\n      tag_30\n      jump\t// in\n    tag_50:\n        /* \"#utility.yul\":1467:1496   */\n      tag_51\n        /* \"#utility.yul\":1489:1495   */\n      dup2\n        /* \"#utility.yul\":1467:1496   */\n      tag_31\n      jump\t// in\n    tag_51:\n        /* \"#utility.yul\":1462:1465   */\n      dup5\n        /* \"#utility.yul\":1458:1497   */\n      add\n        /* \"#utility.yul\":1451:1497   */\n      swap2\n      pop\n        /* \"#utility.yul\":1218:1503   */\n      pop\n        /* \"#utility.yul\":1126:1503   */\n      swap3\n      swap2\n      pop\n      pop\n      jump\t// out\n        /* \"#utility.yul\":1509:1822   */\n    tag_15:\n        /* \"#utility.yul\":1622:1626   */\n      0x00\n        /* \"#utility.yul\":1660:1662   */\n      0x20\n        /* \"#utility.yul\":1649:1658   */\n      dup3\n        /* \"#utility.yul\":1645:1663   */\n      add\n        /* \"#utility.yul\":1637:1663   */\n      swap1\n      pop\n        /* \"#utility.yul\":1709:1718   */\n      dup2\n        /* \"#utility.yul\":1703:1707   */\n      dup2\n        /* \"#utility.yul\":1699:1719   */\n      sub\n        /* \"#utility.yul\":1695:1696   */\n      0x00\n        /* \"#utility.yul\":1684:1693   */\n      dup4\n        /* \"#utility.yul\":1680:1697   */\n      add\n        /* \"#utility.yul\":1673:1720   */\n      mstore\n        /* \"#utility.yul\":1737:1815   */\n      tag_53\n        /* \"#utility.yul\":1810:1814   */\n      dup2\n        /* \"#utility.yul\":1801:1807   */\n      dup5\n        /* \"#utility.yul\":1737:1815   */\n      tag_32\n      jump\t// in\n    tag_53:\n        /* \"#utility.yul\":1729:1815   */\n      swap1\n      pop\n        /* \"#utility.yul\":1509:1822   */\n      swap3\n      swap2\n      pop\n      pop\n      jump\t// out\n        /* \"#utility.yul\":1828:2005   */\n    tag_33:\n        /* \"#utility.yul\":1968:1997   */\n      0x4170656e6173206f20646f6e6f20706f64652065786563757461720000000000\n        /* \"#utility.yul\":1964:1965   */\n      0x00\n        /* \"#utility.yul\":1956:1962   */\n      dup3\n        /* \"#utility.yul\":1952:1966   */\n      add\n        /* \"#utility.yul\":1945:1998   */\n      mstore\n        /* \"#utility.yul\":1828:2005   */\n      pop\n      jump\t// out\n        /* \"#utility.yul\":2011:2377   */\n    tag_34:\n        /* \"#utility.yul\":2153:2156   */\n      0x00\n        /* \"#utility.yul\":2174:2241   */\n      tag_56\n        /* \"#utility.yul\":2238:2240   */\n      0x1b\n        /* \"#utility.yul\":2233:2236   */\n      dup4\n        /* \"#utility.yul\":2174:2241   */\n      tag_29\n      jump\t// in\n    tag_56:\n        /* \"#utility.yul\":2167:2241   */\n      swap2\n      pop\n        /* \"#utility.yul\":2250:2343   */\n      tag_57\n        /* \"#utility.yul\":2339:2342   */\n      dup3\n        /* \"#utility.yul\":2250:2343   */\n      tag_33\n      jump\t// in\n    tag_57:\n        /* \"#utility.yul\":2368:2370   */\n      0x20\n        /* \"#utility.yul\":2363:2366   */\n      dup3\n        /* \"#utility.yul\":2359:2371   */\n      add\n        /* \"#utility.yul\":2352:2371   */\n      swap1\n      pop\n        /* \"#utility.yul\":2011:2377   */\n      swap2\n      swap1\n      pop\n      jump\t// out\n        /* \"#utility.yul\":2383:2802   */\n    tag_19:\n        /* \"#utility.yul\":2549:2553   */\n      0x00\n        /* \"#utility.yul\":2587:2589   */\n      0x20\n        /* \"#utility.yul\":2576:2585   */\n      dup3\n        /* \"#utility.yul\":2572:2590   */\n      add\n        /* \"#utility.yul\":2564:2590   */\n      swap1\n      pop\n        /* \"#utility.yul\":2636:2645   */\n      dup2\n        /* \"#utility.yul\":2630:2634   */\n      dup2\n        /* \"#utility.yul\":2626:2646   */\n      sub\n        /* \"#utility.yul\":2622:2623   */\n      0x00\n        /* \"#utility.yul\":2611:2620   */\n      dup4\n        /* \"#utility.yul\":2607:2624   */\n      add\n        /* \"#utility.yul\":2600:2647   */\n      mstore\n        /* \"#utility.yul\":2664:2795   */\n      tag_59\n        /* \"#utility.yul\":2790:2794   */\n      dup2\n        /* \"#utility.yul\":2664:2795   */\n      tag_34\n      jump\t// in\n    tag_59:\n        /* \"#utility.yul\":2656:2795   */\n      swap1\n      pop\n        /* \"#utility.yul\":2383:2802   */\n      swap2\n      swap1\n      pop\n      jump\t// out\n\n    auxdata: 0xa264697066735822122095cc57d88d649635d2859114b11b8ac1e8c2bed6ac1703b1765bd74b9735082f64736f6c634300081e0033\n}\n",
				"bytecode": {
					"linkReferences": {},
					"object": "6080604052348015600e575f5ffd5b50335f5f6101000a81548173ffffffffffffffffffffffffffffffffffffffff021916908373ffffffffffffffffffffffffffffffffffffffff1602179055506103c58061005b5f395ff3fe608060405234801561000f575f5ffd5b506004361061003f575f3560e01c806370514bea14610043578063d18dc7a814610061578063ef5fb05b1461006b575b5f5ffd5b61004b610089565b604051610058919061027e565b60405180910390f35b6100696100ad565b005b610073610174565b6040516100809190610307565b60405180910390f35b5f5f9054906101000a900473ffffffffffffffffffffffffffffffffffffffff1681565b5f5f9054906101000a900473ffffffffffffffffffffffffffffffffffffffff1673ffffffffffffffffffffffffffffffffffffffff163373ffffffffffffffffffffffffffffffffffffffff161461013b576040517f08c379a000000000000000000000000000000000000000000000000000000000815260040161013290610371565b60405180910390fd5b5f5f9054906101000a900473ffffffffffffffffffffffffffffffffffffffff1673ffffffffffffffffffffffffffffffffffffffff16ff5b60605f5f9054906101000a900473ffffffffffffffffffffffffffffffffffffffff1673ffffffffffffffffffffffffffffffffffffffff163373ffffffffffffffffffffffffffffffffffffffff1614610204576040517f08c379a00000000000000000000000000000000000000000000000000000000081526004016101fb90610371565b60405180910390fd5b6040518060400160405280600b81526020017f4f6c612c204d756e646f21000000000000000000000000000000000000000000815250905090565b5f73ffffffffffffffffffffffffffffffffffffffff82169050919050565b5f6102688261023f565b9050919050565b6102788161025e565b82525050565b5f6020820190506102915f83018461026f565b92915050565b5f81519050919050565b5f82825260208201905092915050565b8281835e5f83830152505050565b5f601f19601f8301169050919050565b5f6102d982610297565b6102e381856102a1565b93506102f38185602086016102b1565b6102fc816102bf565b840191505092915050565b5f6020820190508181035f83015261031f81846102cf565b905092915050565b7f4170656e6173206f20646f6e6f20706f646520657865637574617200000000005f82015250565b5f61035b601b836102a1565b915061036682610327565b602082019050919050565b5f6020820190508181035f8301526103888161034f565b905091905056fea264697066735822122095cc57d88d649635d2859114b11b8ac1e8c2bed6ac1703b1765bd74b9735082f64736f6c634300081e0033",
					"opcodes": "PUSH1 0x80 PUSH1 0x40 MSTORE CALLVALUE DUP1 ISZERO PUSH1 0xE JUMPI PUSH0 PUSH0 REVERT JUMPDEST POP CALLER PUSH0 PUSH0 PUSH2 0x100 EXP DUP2 SLOAD DUP2 PUSH20 0xFFFFFFFFFFFFFFFFFFFFFFFFFFFFFFFFFFFFFFFF MUL NOT AND SWAP1 DUP4 PUSH20 0xFFFFFFFFFFFFFFFFFFFFFFFFFFFFFFFFFFFFFFFF AND MUL OR SWAP1 SSTORE POP PUSH2 0x3C5 DUP1 PUSH2 0x5B PUSH0 CODECOPY PUSH0 RETURN INVALID PUSH1 0x80 PUSH1 0x40 MSTORE CALLVALUE DUP1 ISZERO PUSH2 0xF JUMPI PUSH0 PUSH0 REVERT JUMPDEST POP PUSH1 0x4 CALLDATASIZE LT PUSH2 0x3F JUMPI PUSH0 CALLDATALOAD PUSH1 0xE0 SHR DUP1 PUSH4 0x70514BEA EQ PUSH2 0x43 JUMPI DUP1 PUSH4 0xD18DC7A8 EQ PUSH2 0x61 JUMPI DUP1 PUSH4 0xEF5FB05B EQ PUSH2 0x6B JUMPI JUMPDEST PUSH0 PUSH0 REVERT JUMPDEST PUSH2 0x4B PUSH2 0x89 JUMP JUMPDEST PUSH1 0x40 MLOAD PUSH2 0x58 SWAP2 SWAP1 PUSH2 0x27E JUMP JUMPDEST PUSH1 0x40 MLOAD DUP1 SWAP2 SUB SWAP1 RETURN JUMPDEST PUSH2 0x69 PUSH2 0xAD JUMP JUMPDEST STOP JUMPDEST PUSH2 0x73 PUSH2 0x174 JUMP JUMPDEST PUSH1 0x40 MLOAD PUSH2 0x80 SWAP2 SWAP1 PUSH2 0x307 JUMP JUMPDEST PUSH1 0x40 MLOAD DUP1 SWAP2 SUB SWAP1 RETURN JUMPDEST PUSH0 PUSH0 SWAP1 SLOAD SWAP1 PUSH2 0x100 EXP SWAP1 DIV PUSH20 0xFFFFFFFFFFFFFFFFFFFFFFFFFFFFFFFFFFFFFFFF AND DUP2 JUMP JUMPDEST PUSH0 PUSH0 SWAP1 SLOAD SWAP1 PUSH2 0x100 EXP SWAP1 DIV PUSH20 0xFFFFFFFFFFFFFFFFFFFFFFFFFFFFFFFFFFFFFFFF AND PUSH20 0xFFFFFFFFFFFFFFFFFFFFFFFFFFFFFFFFFFFFFFFF AND CALLER PUSH20 0xFFFFFFFFFFFFFFFFFFFFFFFFFFFFFFFFFFFFFFFF AND EQ PUSH2 0x13B JUMPI PUSH1 0x40 MLOAD PUSH32 0x8C379A000000000000000000000000000000000000000000000000000000000 DUP2 MSTORE PUSH1 0x4 ADD PUSH2 0x132 SWAP1 PUSH2 0x371 JUMP JUMPDEST PUSH1 0x40 MLOAD DUP1 SWAP2 SUB SWAP1 REVERT JUMPDEST PUSH0 PUSH0 SWAP1 SLOAD SWAP1 PUSH2 0x100 EXP SWAP1 DIV PUSH20 0xFFFFFFFFFFFFFFFFFFFFFFFFFFFFFFFFFFFFFFFF AND PUSH20 0xFFFFFFFFFFFFFFFFFFFFFFFFFFFFFFFFFFFFFFFF AND SELFDESTRUCT JUMPDEST PUSH1 0x60 PUSH0 PUSH0 SWAP1 SLOAD SWAP1 PUSH2 0x100 EXP SWAP1 DIV PUSH20 0xFFFFFFFFFFFFFFFFFFFFFFFFFFFFFFFFFFFFFFFF AND PUSH20 0xFFFFFFFFFFFFFFFFFFFFFFFFFFFFFFFFFFFFFFFF AND CALLER PUSH20 0xFFFFFFFFFFFFFFFFFFFFFFFFFFFFFFFFFFFFFFFF AND EQ PUSH2 0x204 JUMPI PUSH1 0x40 MLOAD PUSH32 0x8C379A000000000000000000000000000000000000000000000000000000000 DUP2 MSTORE PUSH1 0x4 ADD PUSH2 0x1FB SWAP1 PUSH2 0x371 JUMP JUMPDEST PUSH1 0x40 MLOAD DUP1 SWAP2 SUB SWAP1 REVERT JUMPDEST PUSH1 0x40 MLOAD DUP1 PUSH1 0x40 ADD PUSH1 0x40 MSTORE DUP1 PUSH1 0xB DUP2 MSTORE PUSH1 0x20 ADD PUSH32 0x4F6C612C204D756E646F21000000000000000000000000000000000000000000 DUP2 MSTORE POP SWAP1 POP SWAP1 JUMP JUMPDEST PUSH0 PUSH20 0xFFFFFFFFFFFFFFFFFFFFFFFFFFFFFFFFFFFFFFFF DUP3 AND SWAP1 POP SWAP2 SWAP1 POP JUMP JUMPDEST PUSH0 PUSH2 0x268 DUP3 PUSH2 0x23F JUMP JUMPDEST SWAP1 POP SWAP2 SWAP1 POP JUMP JUMPDEST PUSH2 0x278 DUP2 PUSH2 0x25E JUMP JUMPDEST DUP3 MSTORE POP POP JUMP JUMPDEST PUSH0 PUSH1 0x20 DUP3 ADD SWAP1 POP PUSH2 0x291 PUSH0 DUP4 ADD DUP5 PUSH2 0x26F JUMP JUMPDEST SWAP3 SWAP2 POP POP JUMP JUMPDEST PUSH0 DUP2 MLOAD SWAP1 POP SWAP2 SWAP1 POP JUMP JUMPDEST PUSH0 DUP3 DUP3 MSTORE PUSH1 0x20 DUP3 ADD SWAP1 POP SWAP3 SWAP2 POP POP JUMP JUMPDEST DUP3 DUP2 DUP4 MCOPY PUSH0 DUP4 DUP4 ADD MSTORE POP POP POP JUMP JUMPDEST PUSH0 PUSH1 0x1F NOT PUSH1 0x1F DUP4 ADD AND SWAP1 POP SWAP2 SWAP1 POP JUMP JUMPDEST PUSH0 PUSH2 0x2D9 DUP3 PUSH2 0x297 JUMP JUMPDEST PUSH2 0x2E3 DUP2 DUP6 PUSH2 0x2A1 JUMP JUMPDEST SWAP4 POP PUSH2 0x2F3 DUP2 DUP6 PUSH1 0x20 DUP7 ADD PUSH2 0x2B1 JUMP JUMPDEST PUSH2 0x2FC DUP2 PUSH2 0x2BF JUMP JUMPDEST DUP5 ADD SWAP2 POP POP SWAP3 SWAP2 POP POP JUMP JUMPDEST PUSH0 PUSH1 0x20 DUP3 ADD SWAP1 POP DUP2 DUP2 SUB PUSH0 DUP4 ADD MSTORE PUSH2 0x31F DUP2 DUP5 PUSH2 0x2CF JUMP JUMPDEST SWAP1 POP SWAP3 SWAP2 POP POP JUMP JUMPDEST PUSH32 0x4170656E6173206F20646F6E6F20706F64652065786563757461720000000000 PUSH0 DUP3 ADD MSTORE POP JUMP JUMPDEST PUSH0 PUSH2 0x35B PUSH1 0x1B DUP4 PUSH2 0x2A1 JUMP JUMPDEST SWAP2 POP PUSH2 0x366 DUP3 PUSH2 0x327 JUMP JUMPDEST PUSH1 0x20 DUP3 ADD SWAP1 POP SWAP2 SWAP1 POP JUMP JUMPDEST PUSH0 PUSH1 0x20 DUP3 ADD SWAP1 POP DUP2 DUP2 SUB PUSH0 DUP4 ADD MSTORE PUSH2 0x388 DUP2 PUSH2 0x34F JUMP JUMPDEST SWAP1 POP SWAP2 SWAP1 POP JUMP INVALID LOG2 PUSH5 0x6970667358 0x22 SLT KECCAK256 SWAP6 0xCC JUMPI 0xD8 DUP14 PUSH5 0x9635D28591 EQ 0xB1 SHL DUP11 0xC1 0xE8 0xC2 0xBE 0xD6 0xAC OR SUB 0xB1 PUSH23 0x5BD74B9735082F64736F6C634300081E00330000000000 "
				},
				"gasEstimates": {
					"creation": {
						"codeDepositCost": "193000",
						"executionCost": "24500",
						"totalCost": "217500"
					},
					"external": {
						"dono()": "2485",
						"encerrarContrato()": "32045",
						"sayHello()": "infinite"
					}
				},
				"methodIdentifiers": {
					"dono()": "70514bea",
					"encerrarContrato()": "d18dc7a8",
					"sayHello()": "ef5fb05b"
				}
			},
			"storageLayout": {
				"storage": [
					{
						"astId": 3,
						"contract": "AulaRecife/AcessoRestrito.sol:AcessoRestrito",
						"label": "dono",
						"offset": 0,
						"slot": "0",
						"type": "t_address"
					}
				],
				"types": {
					"t_address": {
						"encoding": "inplace",
						"label": "address",
						"numberOfBytes": "20"
					}
				}
			},
			"userdoc": {
				"kind": "user",
				"methods": {},
				"version": 1
			}
		}
	}
}